:020000040800F2
:10000000680D0020450100084D0100082D2600085C
:1000100051010008530100085501000800000000CC
:100020000000000000000000000000005701000870
:1000300059010008000000005B010008E9440008C5
:100040005F0100085F0100085F0100085F01000810
:100050005F0100085F010008490300085F01000814
:100060005F0100085F0100085F0100085F010008F0
:100070005F0100085F0100085F0100085F010008E0
:100080005F0100085F010008E50100085F0100084A
:100090005F0100085F0100085F0100085F010008C0
:1000A00059450008814500085F0100085F0100080C
:1000B0005F010008994500085F0100085F01000822
:1000C0005F0100085F0100085F0100085F01000890
:1000D0005F0100085F0100085F0100082556000865
:1000E0005F0100085F0100085F0100085F01000870
:1000F0005F0100085F0100085F0100085F01000860
:100100005F0100085F0100085F0100085F0100084F
:100110005F0100085F0100085F0100085F0100083F
:100120005F0100085F0100085F0100085F0100082F
:10013000DFF80CD000F018F800480047B956000866
:10014000680D00200648804706480047FEE7FEE7A6
:10015000FEE7FEE7FEE7FEE7FEE7FEE7FEE7FEE777
:100160001145000831010008064C074D06E0E06823
:1001700040F0010394E8070098471034AC42F6D3EE
:10018000FFF7DAFF385F0008585F000870B58C1879
:1001900010F8015B15F0070301D110F8013B2A119B
:1001A00006D110F8012B03E010F8016B01F8016B88
:1001B0005B1EF9D12B0705D40023521E0DD401F884
:1001C000013BFAE710F8013BCB1A921C03E013F84D
:1001D000015B01F8015B521EF9D5A142D8D3002082
:1001E00070BD0000054810B5016821F00C010160E8
:1001F00004F038FBBDE8104004F042BE002401408A
:1002000070B504460068816811F0010F20D0816844
:1002100021F00101816001F08DF9054620688068B8
:1002200010F0010F14D000BF01F084F9401B022828
:1002300009D9A06A40F01000A062E06A40F0010015
:10024000E062012070BD2068806810F0010FEBD1E2
:10025000002070BD10B402460FFA81FC08460CFB6A
:100260000CF40B1403FB0341148864438C4224BF39
:1002700010BC704792F8B240C4EB1161C9B202EBF6
:1002800041018A8810BC0CFB02F14FEAE17C01EBD2
:100290005C41C91361F30F0003FB02F1CA1701EBC4
:1002A0005241C91361F31F407047000070B5044606
:1002B00090F83010124D002204F056FE00B200F506
:1002C0000041104802686FF30F1211430160686823
:1002D00040F00100686094F831100022204604F0DC
:1002E00043FE00B200F50041074802686FF30F12A9
:1002F00011430160686840F00200686070BD000052
:10030000007400400C74004018740040084490F8D9
:100310003000704700EB4100B0F932007047000038
:100320000448016841F001010160016841F4803135
:100330000160704700740040084480F83020704726
:1003400000EB4100428670470448016811F0010F3C
:1003500008BF70470121016004F0E6BF14040140AA
:100360007047002190B14378017800221944002B96
:1003700009D900EB020C521C9CF802C0D2B26144B5
:1003800089B29342F5D801EB1120C1B208467047FB
:10039000002141820175417580F8961080F8971010
:1003A00080F8981080F8991080F89A1080F81B1146
:1003B00080F81C1180F81D117047DDF800C000287E
:1003C00018BF80E80E10704700EB400101EB0012EF
:1003D00010B5084901EB420494F82410002918BF15
:1003E00010BD054951F8200003F010FFE083208282
:1003F00010BD0000D0070020F005002010B5044615
:1004000000EB440000EB04121248002100EB420212
:10041000114811605160D1601161D183C2F816108A
:10042000C2F81A10118450F8240003F020F80B4889
:10043000002150F8240003F01AF8094850F824006D
:1004400003F012FF074850F82400BDE8104003F005
:100450009BB90000D0070020F8050020FC05002013
:10046000F005002008060020704770B50D460446D0
:10047000B0F99A1090F84930C26A0020002B53D08E
:10048000926AB4F8B0309A4224BFE081288045D205
:10049000E1810A0041D0A1F5FE43FF3B08BFB4F85B
:1004A000B2003AD094F8C720012A08BFA4F8AE00E1
:1004B0000ED0B4F8AA20A4F8AC20A388D21A12B2A5
:1004C000A4F8A820B4F8C43092FBF3F2A4F8AE204C
:1004D00094F8A320012A14D194F84D3094F82620E2
:1004E000934238BFA4F8A41009D3D4F89C1091FB10
:1004F000F2F2D4F8B41091FBF2F1A4F8A41084F84D
:10050000A300B4F9A400618B00EB800040004843D5
:100510006278E169514390FBF1F02880294620463A
:1005200003F044FE014604E0E2782270E0810021FD
:1005300028802888A081084670BDB0F90E10B0F957
:100540000420A1F5FE43FF3B11D0B0F8AA300B44C4
:10055000A0F8AA30B0F8AC300B44A0F8AC30B0F83A
:10056000AE300B441A448280A0F8A01003E0B0F82B
:10057000A01011448180B0F904007047C26AD168AC
:1005800021F00201D160002180F84A1080F84B1060
:10059000012380F84930418280F84C1080F84D10DA
:1005A00080F84E10A0F8AE1080F8A23080F89810B5
:1005B00080F8A3100170B0F8B030936251621168F6
:1005C00041F001011160D16841F00201D16000F0F9
:1005D0009FB8000070B4C38A4278B0F814C0534387
:1005E0000CFB02F292B24FF6FF7C0CEA4202D0F80A
:1005F00028C01B04C16A4FEA1C449B0CA0F8C240EF
:1006000008BF962306D003EB43035B0042F210754C
:10061000B5FBF3F3A0F8C0309BB263434FF47A7498
:1006200093FBF4F3A0F8B0301B04C0F8B830354B9E
:10063000A0F8B220A3FB0CC3B0F81AC09B08B3FB10
:10064000FCF403EB83035B00B3FBF2F2C5696C437C
:10065000C0F8B440C0F8BC2090F8C620838C0CFBD6
:1006600002F2B2FBF3F2521EA0F8C420012280F87D
:10067000492090F8482001F1180C1305224A1278FD
:1006800062441468DFF884C0F0269CF800509CF89F
:1006900000C006FA05F51B0CAC4303FA0CF3234328
:1006A0001360B0F8B0208A624A6942F001024A61E0
:1006B00000220A610B6843F004030B60CB6843F02F
:1006C0000203CB60CB6843F00103CB604A620A6A45
:1006D00042F001020A620A6842F001020A6090F8E0
:1006E00026200021002A9CBF70BC704700EB810CC3
:1006F000491CD0F8B830C9B2CCF850308A42F5D88D
:1007000070BC7047ABAAAAAA145F00081B5F000860
:1007100070B4D0E910310D0AD0E90E210C0AD0E9ED
:100720000C1C90F820604FEA1C2CE6B1926824EA79
:1007300002021204120C0CBF0122002282F00102FC
:1007400094009A6825EA02021204120C0CBF0122DE
:10075000002244EA420289682CEA01010904090CDA
:100760001AD0002119E09B6825EA03031B041B0C27
:1007700014BF002301239B00926824EA02021204A2
:10078000120C0CBF0122002243EA420289682CEAC3
:1007900001010904090CE4D10121114380F8A610DC
:1007A000C9B2072926D2DFE801F0250A1510200476
:1007B0001B00418C41F25552114481801DE0418C57
:1007C00043F6FF721144818017E0418C46F6AA225D
:1007D000114403E0418CA1F5D441AA3981800CE099
:1007E000418CA1F57C51FF39F8E7418CA1F5A85166
:1007F0005539F3E7002180F849108188A0F8AA1044
:1008000070BC70472DE9F00790F84910C26A0029C2
:1008100000F07A8190F8A61090F9A25090F820305C
:1008200043B3D0E90E3C4FEA1C2C9B682CEA03032F
:100830001B041B0C0CBF0123002383F001039C004D
:10084000D0E9103C4FEA1C2C9B682CEA03031B04E4
:100850001B0C0CBF0123002344EA4304D0E90CC362
:100860001B0ADCF808C023EA0C031B041B0C26D06F
:10087000002325E0D0E9103C4FEA1C2C9B682CEAB1
:1008800003031B041B0C14BF002301239C00D0E9AD
:100890000E3C4FEA1C2C9B682CEA03031B041B0C28
:1008A0000CBF0123002344EA4304D0E90C3C4FEA87
:1008B0001C2C9B682CEA03031B041B0CD8D10123BE
:1008C000234380F8A63003F0FF094FF0FF34660C95
:1008D000012342F6AA2745F255584FF0000CB9F112
:1008E000070F67D2DFE809F0661331225504420092
:1008F000042908BF80F8A2305AD001295CD180F8C1
:10090000A240418C01EB0701A0F8AA1054E0052990
:1009100002D0032905D04FE080F8A230418C394441
:10092000F2E780F8A240418C4144EDE7012902D072
:10093000022905D040E080F8A230418C4144E3E731
:1009400080F8A240418C3144DEE7032902D0062919
:1009500005D031E080F8A230418C3144D4E780F8F2
:10096000A240418CA1F5AA415539CDE7022902D018
:10097000042907D020E080F8A230418CA1F5AA41DB
:100980005539C1E780F8A240418CA1F52851AA3918
:10099000BAE7062905D0052908BF80F8A24007D08C
:1009A0000AE080F8A230418CA1F52851AA39ABE7C2
:1009B000418CA9E780F849C090F9A210A94205D05E
:1009C00080F84DC080F898C080F8A33090F8C71028
:1009D000012904BFB0F8AA10818090F84C1001B32F
:1009E00090F84D1090F82640A14204D290F84D1096
:1009F000491C80F84D10516B8CB2916A90F84E50A2
:100A000089B290F84E7004EB0545E7B1491C89B2F4
:100A100090F84B406943002C18BF80F84BC007D0BA
:100A200027E090F84C10491C80F84C10506B6BE09C
:100A3000946AB0F8B050AC421BD2946A641C9462C1
:100A400080F84B3015E090F84A702FB1891C89B2BC
:100A5000694380F84AC00CE0491C89B26943B4F587
:100A6000AA4F06D2946A24B1946A641E946280F8F4
:100A70004A30D0F8BC208A4284BFA0F89A6080F83F
:100A8000A3C03FD890F89840D0F89C2000EB840495
:100A9000246D121BC0F89C20D0F8B820914208D3D6
:100AA00090F9A240624390F8984000EB84042265DC
:100AB00011E090F8982000EB8202116590F89820E0
:100AC00090F9A24000EB82024C431465D0F89C20C0
:100AD0002244C0F89C20D0F8B420B2FBF1F190F988
:100AE000A2205143A0F89A1090F89810491CC9B25E
:100AF00080F8981090F82620914208BF80F898C09E
:100B000080F8A33080F84EC0BDE8F00700207047A1
:100B100070B50446C16A90F8490000283BD094F8AB
:100B20004E00401C84F84E00886A4FF47A71401CD5
:100B30004843B4F8C010B4F8C2205143B1FBF0F000
:100B400094F84E1080B2814225D30025E5812046DD
:100B5000FFF7DEFD84F84E5084F84C5094F82610D0
:100B6000002000290BD900BF04EB8002D4F8B81094
:100B70001165401C94F82610C0B28142F4D884F864
:100B80004D50A4F89A5084F89850D4F8B800C9B2DF
:100B90004843C4F89C00002070BD000070B483B0CE
:100BA0000022029290F824301446012B01BF02204B
:100BB00003B070BC7047012380F824308368FBB118
:100BC000D1F804C00B691F259C452DD81E05A3EB49
:100BD0000C03C3F10303D1F800C003EB83030CFA49
:100BE00003FC05FA03F343F440150368A6F58016E9
:100BF00046EA0C0C9E6B26EA05054CEA050C21E042
:100C00004B68012B05D0826A42F0200282620122E9
:100C10001AE00368D3F838C00D686FF3150C4CEA7E
:100C2000C53CC3F838C00FE0A3EB0C03C3F10303CA
:100C300003EB830305FA03F343F4401C03689D6B45
:100C400025EA0C0CC3F838C00368D3F808C01CF0C0
:100C5000010F03D04B7D012B16D01EE0D3F808C046
:100C60002CF00105A3F1804CBCF59E3CD1F818C0D6
:100C700025F4E04504BFBCF5C04F4FF4804C45EA75
:100C80000C0CC3F808C0E5E78B69B3F5E04F08D05A
:100C9000826A42F02002826201220B7D012B08D081
:100CA0000EE00368D3F804C04CF4806CC3F804C0B1
:100CB000F3E74B7DCBB1826A42F0200282620122CF
:100CC0000B6805684FF0070C0A2B16D3EE680A3B39
:100CD00003EB43030CFA03FC26EA0C0C8E6806FABD
:100CE00003F34CEA0303EB6014E00368D3F804C099
:100CF0004CF4805CC3F804C0E2E72E6903EB4303C5
:100D00000CFA03FC26EA0C0C8E6806FA03F34CEA94
:100D100003032B610B68102B18BF112B06D103683E
:100D2000D3F808C04CF4000CC3F808C04B68012B82
:100D300013D0022B1CD0032B036824D0D3F820C07F
:100D4000CD686FF30B0C4CEA050CC3F820C00B68A0
:100D5000102B18BF112B20D02AE00368D3F814C041
:100D6000CD686FF30B0C4CEA050CC3F814C0EEE72A
:100D70000368D3F818C0CD686FF30B0C4CEA050C70
:100D8000C3F818C0E3E7D3F81CC0CD686FF30B0CB1
:100D90004CEA050CC3F81CC0D9E70368A3F1804CEA
:100DA000BCF5923C0AD0816A41F0200181620122A7
:100DB00080F8244003B0104670BC7047D3F808C0D8
:100DC0001CF4000FF4D1D3F808C04CF4000CC3F8A5
:100DD00008C009681029EBD11749184B0968B1FB05
:100DE000F3F101EB8101490002910091E0D0B1F1F2
:100DF000004F1BD20029D8BF002105DD11F00101F1
:100E000002D0029B5B1E0293009B491C5B1C994213
:100E1000CEDA00BFDDF808C0891CACF1010CACF1E2
:100E2000010CCDF808C09942F4DBC1E70299491ED4
:100E30000291FCD1BCE700004006002040420F00B8
:100E400070B483B04FF0000CCDF808C090F82420A7
:100E50006446012A01BF022003B070BC7047012222
:100E600080F824204A681F23072A0DD205686E6B7C
:100E7000521E02EB8202934026EA03030E6806FA32
:100E800002F21A436A631BE005680D2A0CD22E6B2E
:100E9000D21F02EB8202934026EA03030E6806FA91
:100EA00002F21A432A630BE0EE6A0D3A02EB820269
:100EB000934026EA03030E6806FA02F21A43EA6236
:100EC0000A68072503680A2A0CD3DE680A3A02EB8F
:100ED0004202954026EA05058E6806FA02F22A4388
:100EE000DA600AE01E6902EB4202954026EA050537
:100EF0008E6806FA02F22A431A610A68102A18BF9D
:100F0000112A0BD10268A2F18043B3F592330BD0C2
:100F1000816A41F0200181624FF0010C80F8244089
:100F200003B0604670BC7047936813F4000FF5D1AE
:100F3000936843F40003936009681029EED11549C2
:100F4000154A0968B1FBF2F101EB810149000291F8
:100F50000091E3D0B1F1004F16D20029D8BF002193
:100F600005DD11F0010102D0029A521E0292009A90
:100F7000491C521C9142D1DA029B891C5B1E5B1EEC
:100F800002939142F8DBC9E70299491E0291FCD114
:100F9000C4E700004006002040420F002DE9F04168
:100FA00004004FF0000604BF0120BDE8F081A06AF4
:100FB000002528B9E56284F82450204600F090F816
:100FC0002046FFF71DF90146A06A10F0100F08BF78
:100FD000002904D0A06A40F01000A06276E0A06A68
:100FE00020F4885040F00200A0622268A2F1804004
:100FF000B0F59E30E06904BFB0F5402F4FF40020FB
:1010000094F80CC040EA4C03606843EA0003A0680F
:10101000B0F5807F16BF01284FF480700020277D37
:10102000012F0ED1BCF1000F21D0D4F828C04CF014
:10103000200CC4F828C0D4F82CC04CF0010CC4F823
:101040002CC0D2F804C02CF4694C4CEA000050606B
:1010500020688268DFF87CC002EA0C021A438260D2
:10106000A068B0F5807F18BF01280FD109E01A4FA2
:10107000D4F818C007EB4C3C4CEA000040F4006088
:10108000DFE7208A4FEA0050A0F580162068C26A88
:1010900022F4700242EA0602C262206880680F4AA7
:1010A00000EA0200984207D1E562A06A20F002003F
:1010B00040F00100A0620AE0A06A20F0020040F0C7
:1010C0001000A062E06A40F00100E06201210846E1
:1010D000BDE8F081FDF7E1FF00E0FFFFFE0E1FFF1E
:1010E00070B586B0002500950195029503950268BC
:1010F00006462B4903202B4BA2F1804CBCF5923CB9
:101100001FD0A2F1804CBCF5943C1CBF06B070BD52
:101110008A6942F480628A618A6902F48062049278
:101120008A6942F010028A61896901F01001049114
:101130000E21CDE900106946184600F0F9F806B016
:1011400070BD8A6942F400728A618A6902F4007291
:1011500004928A6942F010028A61896901F01001E3
:1011600004912F21CDE900106946184600F0E0F8FF
:101170000E4C0D48C4E900058015A560C4E9035074
:10118000800060612020C4E90605204600F080F858
:10119000002818BFFFF7E4F83462666206B070BD3D
:1011A00000100240001001400800024078070020B3
:1011B0004379012B04BF0220704730B44FF0010C7B
:1011C00080F805C00223037103681C6802F0100256
:1011D00040F6FE759540AC43D1E90051294391405A
:1011E0002143196001680C68C02303FA02F224EA63
:1011F00002030B6001680B6823EA02020A6080F8B0
:1012000004C00021417130BC08467047002804BF6B
:101210000120704770B504460079002518B9657142
:10122000204600F007F8022020712561012020717E
:10123000002070BD00B585B00021009101910291A0
:1012400003910068A0F18041B1F5E8411CBF05B0F1
:1012500000BD0D48C16941F00051C161C16901F093
:1012600000510491816941F00401816180696946FE
:1012700000F0040004903020009003200190034807
:1012800000F056F805B000BD001002400008014013
:10129000002804BF012070471F4B01681F4A994274
:1012A00008D21F4B0B44A2FB0332120992000264C6
:1012B0001C4A07E01C4B0B44A2FB033212099200AC
:1012C00002641A4AC26310B4022280F821200A681C
:1012D000D0E9013C43EA0C03D0E903C44CEA040C16
:1012E00043EA0C03D0F814C06FF30D1243EA0C0369
:1012F000D0F818C043EA0C03D0F81CC043EA0C0332
:101300001A430A6000218163012280F8212080F8BD
:10131000201010BC0846704708040240CDCCCCCC4D
:10132000F8FFFDBF00000240F8FBFDBF00040240D3
:1013300000230A689C46002A08BF70472DE9F84F31
:10134000784EDFF8DC914FF001080F2706F1040E0C
:101350000A6808FA03F42240A2427CD14D68A5F144
:10136000805AAAF5881A4D4500F0C98074DC032D17
:1013700008BF4FF0000C1BD00DDC002D6DD0012DEF
:1013800008BFD1F80CC013D0022D04BFD1F80CC097
:101390000CF1080C0CE0112D04BFD1F80CC00CF1BD
:1013A000040C05D0122D04BFD1F80CC00CF10C0CAC
:1013B000B2F5807F34BF0546051D4FEA830428BF80
:1013C000203CD5F800A007FA04FB2AEA0B0A0CFA25
:1013D00004F44AEA04042C604C6814F0805F74D072
:1013E000514CA56945F00105A561A46904F001040B
:1013F000009423F0030404F1804505F58035D5F809
:1014000008A04FEA83744FEA147407FA04FB2AEA2F
:101410000B0AA0F1804BBBF5843B2CD0A0F1804B94
:10142000BBF5863B08BF4FF0010B24D0A0F1804BE9
:10143000BBF5883B08BF4FF0020B1CD0A0F1804BDE
:10144000BBF58A3B08BF4FF0030B14D0A0F1804BD3
:10145000BBF58C3B02E038E03EE050E008BF4FF0C7
:10146000040B08D0A0F1804BBBF58E3B0CBF4FF0B6
:10147000050B4FF0060B0BFA04F444EA0A04AC60C7
:101480004C6814F4803F346814BF144394433460B0
:101490004C6814F4003FDEF8004014BF144394433A
:1014A000CEF800404C6814F4801F204C256814BF0F
:1014B0001543954325604C6814F4001F1C4C2568A7
:1014C00014BF2A4325EA020222600A685B1CDA4044
:1014D0007FF43EAFBDE8F88FBAF5881F0FD007DC68
:1014E000BAF5803F18BFBAF5801F7FF461AF06E000
:1014F000BAF5001F18BFBAF5041F7FF459AFD1F831
:1015000008C0BCF1000F08BF4FF0040C3FF450AF0F
:10151000BCF1010F4FF0080C0CBF0461446147E7B8
:1015200000001110000401400010024008040140B6
:101530000C04014001488068704700003406002018
:1015400002488168027811448160704734060020A7
:10155000074810B5016841F010010160032000F058
:101560008DF8042000F006F800F024F8002010BDEB
:101570000020024070B50D4D04464FF47A71287872
:10158000B1FBF0F00A490968B1FBF0F000F04EFC45
:1015900048B9102C07D200222146501E00F03CF81A
:1015A00000206C6070BD012070BD0000340600207A
:1015B000400600200E4808B5816941F001018161B3
:1015C000816901F001010091C16941F08051C1615F
:1015D000C06900F080500090042000F04FF80548EA
:1015E000416821F0E06141F00071416008BD0000F8
:1015F00000100240000001400028B8BF704700F012
:101600001F01012202FA01F14009800000F1E020EF
:10161000C0F8001170470000174B10B41B68C3F3EB
:101620000223C3F1070CBCF1040F88BF4FF0040C78
:101630001C1D072C34BF0023DB1E012404FA0CFC04
:10164000ACF1010C0CEA0101994004FA03F35B1EB2
:101650001A40114300284FEA0111A1BF00F1E02018
:1016600080F8001410BC704700F00F0000F1E0207B
:1016700080F8141D10BC70470CED00E0074900F025
:1016800007000A684FF6FF031A4042EA002040F0C4
:10169000FD7040F080600860704700000CED00E0D5
:1016A0002DE9F84304460078DFF8148110F0010FAB
:1016B0006AD0D8F81C00002710F0805F0BD1D8F852
:1016C0001C0040F08050C8F81C00D8F81C0001270E
:1016D00000F0805000903B4E306810F4807F14D1B1
:1016E000306840F480703060FFF724FF05463068B2
:1016F00010F4807F09D100BFFFF71CFF401B642856
:101700002BD8306810F4807FF6D0D8F8200010F481
:1017100040702AD0A18801F44071814225D0D8F8C8
:101720002000012220F4407127480260002202605C
:10173000C8F8201011F0010F17D0FFF7FBFE054687
:10174000D8F8200010F0020F08BF41F288360CD103
:10175000FFF7F0FE401BB04202D90320BDE8F8833A
:10176000D8F8200010F0020FF2D0D8F820006168FD
:1017700020F440700843C8F820002FB1D8F81C00AE
:1017800020F08050C8F81C00207810F0020F07D01D
:10179000D8F80400A16820F440400843C8F80400C9
:1017A000207810F0100F07D0D8F80400616920F4F9
:1017B00080000843C8F804000020BDE8F88300005A
:1017C000001002400070004040044242002804BF64
:1017D000012070472DE9F043DFF89081054685B080
:1017E000D8F800000E4600F00700B0420CD2D8F83E
:1017F000000020F007003043C8F80000D8F80000CF
:1018000000F00700B04265D12868594C10F0020F73
:1018100014D010F0040F03D0606840F4E060606002
:10182000287810F0080F03D0606840F460506060C2
:101830006068A96820F0F00008436060287810F024
:10184000010F34D06868012821D02168022823D0F4
:1018500011F0020F3ED0616821F00301084360607F
:10186000FFF768FE07466068696800F00C00B0EB9F
:10187000810F18BF41F2883919D000BFFFF75AFE17
:10188000C01B48450CD905B00320BDE8F083216892
:1018900011F4003FDFD11DE011F0007FDBD119E032
:1018A0006068696800F00C00B0EB810FE6D1D8F8F1
:1018B000000000F00700B04210D9D8F8000020F076
:1018C00007003043C8F80000D8F8000000F0070017
:1018D000B04203D005B00120BDE8F083287810F0B5
:1018E000040F05D06068E96820F4E0600843606098
:1018F000287810F0080F06D06068296920F460503D
:1019000040EAC10060601B490FC98DE80F001A480A
:10191000006804906168194801F00C02042A14D090
:10192000082A12D1C1F3834211F4803F1DF802004E
:1019300004BF1349484308D0616804AAC1F3404179
:10194000515C0E4A5043B0FBF1F061680D4AC1F39F
:101950000311515CC8400C4908600C480068FFF74F
:1019600009FE05B00020BDE8F08300000020024021
:1019700000100240401A0008501A000800127A00B5
:1019800000093D00FC5E00084006002038060020EB
:1019900001490120C86470470000424201480068C4
:1019A0007047000040060020044805490068496867
:1019B000044AC1F30221515CC84070474006002030
:1019C000001002400C5F000804480549006849689F
:1019D000044AC1F3C221515CC84070474006002050
:1019E000001002400C5F000815A186B00FC98DE8F9
:1019F0000F0017A0174A006804905168164801F0BC
:101A00000C03042B04BF06B07047082B1CBF06B0A4
:101A10007047C1F3834311F4803F1DF8030001BFF9
:101A20000E49484306B07047516804AAC1F34041CB
:101A3000515C094A06B05043B0FBF1F0704700001A
:101A400002030405060708090A0B0C0D0E0F1010FF
:101A5000010200000010024000127A0000093D005F
:101A6000002804BF012070472DE9F84F0446007894
:101A7000E84D10F0010F59D0686800F00C00042800
:101A800008D0686800F00C0008280CD1686810F4D1
:101A9000803F08D0286810F4003F47D060680028D5
:101AA00000F0B28142E06068B0F5803F04BF286872
:101AB00040F480300AD010B1B0F5A02F11D02868C2
:101AC00020F480302860286820F480202860606836
:101AD000D0B1FFF72FFD0646286810F4003F08D06C
:101AE00024E0286840F480202860286840F4803092
:101AF000ECE7FFF71FFD801B642800F236812868A1
:101B000010F4003FF5D011E0FFF714FD06462868F9
:101B100010F4003F0AD000BFFFF70CFD801B6428C3
:101B200000F22381286810F4003FF5D12078BA4EE6
:101B300010F0020F4FF0010B4FF0000845D068681D
:101B400010F00C0F14D0686800F00C00082804BFD7
:101B5000686810F4803F0BD0206918B3C6F800B055
:101B6000FFF7E8FC0746286810F0020F09D011E0E3
:101B7000286810F0020F1CBF206901280AD000F06D
:101B800043B9FFF7D7FCC01B02287DD8286810F0A6
:101B9000020FF6D02868616920F0F80040EAC10021
:101BA000286012E0C6F80080FFF7C4FC07462868EA
:101BB00010F0020F09D000BFFFF7BCFCC01B0228C9
:101BC00062D8286810F0020FF6D1207810F0080FC4
:101BD00035D09248A169F9B1C0F800B0FFF7AAFC6E
:101BE0000746686A10F0020F09D100BFFFF7A2FC98
:101BF000C01B022848D8686A10F0020FF6D0884847
:101C000001684FF4FA50B1FBF0F0009000BF00986B
:101C1000411E0091FAD212E0C0F80080FFF78AFC62
:101C20000746686A10F0020F09D000BFFFF782FC78
:101C3000C01B022828D8686A10F0020FF6D120785D
:101C400010F0040F79D0E8694FF0000A10F0805FBF
:101C500009D1E86940F08050E861E8694FF0010A75
:101C600000F080500090DFF8BC91D9F8000010F42B
:101C7000807F19D1D9F8000040F48070C9F80000C5
:101C8000FFF758FC074600E06FE0D9F8000010F4B9
:101C9000807F09D1FFF74EFCC01B642865D8D9F8B6
:101CA000000010F4807FF5D0E068012804BF286AA6
:101CB00040F0010009D008B1052813D0286A20F0AF
:101CC00001002862286A20F004002862E06841F2DE
:101CD0008837D0B1FFF72EFC8146286A10F0020F3A
:101CE00008D023E0286A40F004002862286A40F007
:101CF0000100EAE7FFF71EFCA0EB0900B84234D868
:101D0000286A10F0020FF5D010E0FFF713FC8146AF
:101D1000286A10F0020F09D0FFF70CFCA0EB0900B5
:101D2000B84222D8286A10F0020FF5D1BAF1000F9C
:101D300003D0E86920F08050E861E069F0B3696899
:101D400001F00C01082950D00228C6F860800FD09D
:101D5000FFF7F0FB0446286810F0007F57D000BF63
:101D6000FFF7E8FB001B02283AD90320BDE8F88FF3
:101D7000FFF7E0FB0746286810F0007F09D000BF9E
:101D8000FFF7D8FBC01B0228EFD8286810F0007FAF
:101D9000F6D1206AB0F5803F05D16868A16820F4CB
:101DA000003008436860D4E908010843696821F4F9
:101DB000741108436860C6F860B000E027E0FFF7E0
:101DC000B9FB0446286810F0007F20D1FFF7B2FB72
:101DD000001B0228C9D8286810F0007FF6D016E052
:101DE000286810F0007FBBD111E0012808BFBDE8D2
:101DF000F88F6868226A00F48031914204D1616AE8
:101E000000F47010884202D00120BDE8F88F002055
:101E1000BDE8F88F001002400000424280044242B8
:101E2000400600200070004070470000411EB1F1E4
:101E3000807F24BF012070474FF0E0204161054AB8
:101E4000F02182F8141D0021816107210161002029
:101E5000704700000FE000E010B5FFF7E5FF10BD90
:101E600090F83C20012A04BF02207047012280F82C
:101E70003C20CA688B6822F440721A434B6822F4F3
:101E800080621A430B6822F400621A430B6922F441
:101E900080521A434B6922F400521A43C96922F452
:101EA0008042114302685164002180F83C100846CA
:101EB0007047002804BF0120704770B5044690F8B1
:101EC0003D0088B00E46002520B984F83C502046DD
:101ED00000F04DF8022084F83D00211D206802F03A
:101EE00079FBB36831680322206802F064FC206843
:101EF000816921F00C018161206881697268114358
:101F000081612068416841F08001416020688168FA
:101F100021F0700181602068816841F0400181609A
:101F20002068816821F0070181602068816841F0A4
:101F3000040181607020059504950695039502952E
:101F40000090F06801906946206802F08DFB2068DF
:101F5000416821F0700141602068416841F0500102
:101F60004160012084F83D0008B0002070BD70473A
:101F700090F83C20012A04BF0220704730B40123AE
:101F800080F83C30022280F83D2002685468D2F884
:101F900008C00D6824F0700449682C432CF0800CB4
:101FA00041EA0C0154600268916080F83D300021E4
:101FB00080F83C1030BC08467047002804BF012060
:101FC000704710B5044690F83D0028B9002084F809
:101FD0003C00204600F00CF8022084F83D00211D52
:101FE000206802F0F7FA012084F83D00002010BDBF
:101FF00000B585B000210091019102910391016823
:102000001B48A1F18042B2F5963226D0A1F1804260
:10201000B2F580621CBF05B000BDC16941F002018C
:10202000C161C16901F002010491816941F01001AF
:1020300081618069694600F0100004904FF4E070FF
:1020400000900C48FFF774F90B48416841F4406177
:1020500041F0E061416005B000BD816941F400617B
:102060008161806900F40060049005B000BD00004B
:1020700000100240001001400000014090F83C2098
:10208000012A0DBF0220012380F83C30704730B494
:10209000022280F83D20D0F800C0DCF8082022F0B1
:1020A000770222F47F42CCF808200A68502A3DD0FB
:1020B0000CDC202A74D004DC002A18BF102A51D16D
:1020C0008CE0302A6CD0402A6CD091E0602A4AD053
:1020D000702A06D0B2F5805F44D0B2F5005F12D00E
:1020E00086E0D1E9014C0268C968956844EA01219B
:1020F00025F47F4541EA0C012943916001688A6813
:1021000042F0770210E00268D1F804C08C68C96818
:1021100095684CEA012125F47F45214329439160CC
:1021200001688A6842F480428A6061E00268D1F8FE
:1021300004C0C968146A156A25F00105156295691D
:1021400024F00A0425F0F00545EA011144EA0C0CDC
:102150009161C2F820C001688A6822F0700242F0E2
:1021600057028A6044E00268D1F804C0C968146A62
:1021700024F0100414629569146A25F4704545EA48
:10218000013124F0A00444EA0C1C9161C2F820C083
:1021900001688A6822F0700242F067028A6027E0D4
:1021A0001CE0FFE70268D1F804C0CC68116A156A28
:1021B00025F001051562956921F00A0125F0F00569
:1021C00045EA041441EA0C019461116201688A68CD
:1021D00022F0700242F047028A6009E00168D1F8FB
:1021E00008C02CF0700C4CEA020242F007028A6030
:1021F00080F83D30002180F83C1030BC0846704724
:1022000030B585B0002100910191029103910068E1
:10221000A0F18041B1F596311CBF05B030BD134827
:10222000816941F008018161816901F0080104912F
:10223000816941F0040181618069022400F0040099
:1022400004904FF46040CDE90004032569460395EE
:102250000748FFF76DF84FF4E060CDE900046946E8
:1022600003950448FFF764F805B030BD0010024044
:10227000000C01400008014090F83C30012B04BFE5
:10228000022070472DE9F001012480F83C40022330
:1022900080F83D308A4BDFF82CC242B1042A49D085
:1022A000082A7DD00C2A00F0CE8000F0FFB802682A
:1022B000156A25F001051562156A56689769D1F807
:1022C000008027F0730748EA0707D1F8088025F057
:1022D000020548EA05059A4218BF624507D1D1F8C0
:1022E0000C8025F0080548EA050525F004059A420A
:1022F00018BF624509D1D1F814C026F440734CEAE6
:102300000303D1F818C04CEA0306566097614B6886
:10231000536315620268936943F00803936102688E
:10232000936923F00403936102689369096943EA9E
:10233000010143E00268156A25F010051562156A6F
:1023400056689769D1F8008027F4E64747EA0827DE
:10235000D1F8088025F0200545EA08159A4218BFF3
:10236000624507D1D1F80C8025F0800545EA0815B3
:1023700025F040059A4218BF624509D1D1F814C032
:1023800026F4406343EA8C03D1F818C043EA8C0674
:10239000566097614B68936315620268936900E029
:1023A0000EE043F4006393610268936923F4806351
:1023B000936102689369096943EA0121916175E0BB
:1023C0000268156A25F480751562166A5568D76922
:1023D000D1F8008027F0730748EA0707D1F8088092
:1023E00026F4007646EA08269A4218BF624507D1CD
:1023F000D1F80C8026F4006646EA082626F48066AA
:102400009A4218BF624509D1D1F814C025F440534F
:1024100043EA0C13D1F818C043EA0C155560D76194
:102420004B68D36316620268D36943F00803D36133
:102430000268D36923F00403D3610268D369096990
:1024400043EA010131E00268156A25F480551562FE
:10245000176A5568D669D1F8008026F4E64646EA40
:102460000826D1F8088027F4005747EA08379A422F
:1024700018BF624505D1D1F814C025F4804343EA62
:102480008C155560D6614B68136417620268D36976
:1024900043F40063D3610268D36923F48063D3619A
:1024A0000268D369096943EA0121D16180F83D409E
:1024B0004FF0000180F83C10BDE8F001084670477D
:1024C000002C014000340140002804BF0120704767
:1024D00010B5044690F83D0028B9002084F83C006F
:1024E000204600F00CF8022084F83D00211D2068F1
:1024F00002F070F8012084F83D00002010BD704704
:1025000070B5044690F83C00012804BF022070BD5D
:10251000012584F83C50022084F83D00204602F05A
:10252000DBF801004FF0000005D084F83D5084F83E
:102530003C00012070BD2168CA6822F04002CA60D8
:102540002168CA6822F48042CA6084F83D5084F849
:102550003C00002070BD002804BF0120704770B50A
:10256000044690F83900002520B984F838502046F8
:1025700000F022F8242084F839002068C16821F492
:102580000051C160204602F0F5FA2068016921F48B
:10259000904101612068416921F02A014161206870
:1025A000C16841F40051C160E563202084F839001E
:1025B00084F83A00002070BD30B585B00024009446
:1025C0000194029403940068A0F18041B1F5904118
:1025D0001CBF05B030BD1348C16941F48021C16101
:1025E000C16901F480210491816941F00801816190
:1025F00080690D4D00F0080004904FF48060009059
:1026000002200190039069462846FEF791FEE814E7
:10261000CDE90004694628460294FEF789FE05B01C
:1026200030BD000000100240000C014082B002F0FA
:1026300009F9184CD4F82001006810F0080F0AD0EE
:10264000144802F037FBD4F820010168009140687B
:10265000009002F0A7FED4F82001006810F0800F6F
:102660001CBF0C4802F0CFFBD4F82001016811F028
:10267000200FDFD04068C1B2064802F025FB008879
:10268000012804D0022808BF02F08CFED2E702F035
:1026900083FECFE7A804002010B50446406801F08F
:1026A0003CFEA168086110BD0068012101F09DBEDB
:1026B000002808BF704710B50446007E012818BFE7
:1026C00010BD217B0020012904D0022910D003294C
:1026D0001ED026E0A16881F824000121606801F085
:1026E0004AFEE28AB4F90E10606801F0C5FD0CE004
:1026F000A16881F824000021606801F03CFEE28AB4
:10270000B4F91010606801F0B7FD50B1022009E083
:10271000A168012081F82400A068D4F8121001619A
:10272000F4E70320207610BD01230373C181C28228
:10273000037643767047022303730182C28201212C
:102740000176002141767047006801F01CBE10B58B
:10275000406801F0F8FDBDE8104001F014BD407E76
:10276000704780680068704780684068704780687C
:10277000C0687047806800697047027B0021012AA9
:1027800008BFB0F90E1008467047406801F0CFBD91
:10279000006801F023BE8068B0F91E0070478068B1
:1027A000D0F81A0070478068D0F816007047836030
:1027B000C0E9001200210173C1810182C18201764A
:1027C000704703220273418209148182012101763C
:1027D000002141767047826851828068818270470B
:1027E00010B504460068032101F0FFFD00281CBF5E
:1027F0000121217610BD0068072101F0F6BD406877
:1028000001F0BDBD01B244F6E61361F30F020014FE
:1028100059435843014408444042C013B0F5004FA7
:10282000A8BF47F6FF7104DA10F5004FB4BF0649A0
:1028300001B2104661F31F4011F5004F04BF48F28A
:10284000010161F31F4070470080FFFF70B505462E
:10285000084600F053F82AB203B24FEA254C02FBB7
:1028600003F105140CFB1510C0131649B0F5004F09
:10287000A8BF47F6FF7004DA10F5004FB4BF084652
:1028800000B260F30F04104E10F5004F08BF66F35E
:102890000F0402FB05F00CFB0300C013B0F5004F62
:1028A000A8BF47F6FF7103DA10F5004FA8BF01B2C9
:1028B000204661F31F4011F5004F08BF66F31F402B
:1028C00070BD00000080FFFF0180FFFF70B505466E
:1028D000084600F013F82AB201B22B1402FB01FCE7
:1028E000051403FB05C0C0136A43594360F30F048A
:1028F000891A2046C91361F31F4070BD00F50041DD
:10290000890911F4407C00F50041C1F38712174991
:10291000C2F1FF0319D0BCF5807F1FD0BCF5007F4A
:102920000AD0BCF5407F18BF704731F8133031F83A
:10293000121063F31F400FE031F8122031F813102A
:1029400062F31F4061F30F00704731F8122031F835
:102950001310524262F31F404942F3E731F813303B
:1029600031F812105B4263F31F40EBE76A5C00082A
:10297000F8B58C460446DDE90710069FC4F830C060
:10298000C4E9300108481E4615460090074B084A26
:1029900021466046FDF711FDE763C4E90D56204668
:1029A00000F096FBF8BD0000B5290008BD2900081D
:1029B000C930000810B500F08BFB10BD2DE9F041C7
:1029C00005468CB00020984614460E468DF804004B
:1029D0004F0914D07A1E0021284602F0FBFC002883
:1029E00004BF0B208DF8280000F05983D5F8C400EF
:1029F00006F01F0618B17A1E002102F0EBFC132E20
:102A000080F04B83DFE806F0C20AB0C1C0C0BFBE91
:102A1000BDBCBBBAB9B8C0C0C0C0C20026780520D2
:102A20008DF82800472E70D028DC0F2E7ED00BDCCE
:102A30000F2E6BD2DFE806F055929263927A7A7A83
:102A40007A7A7A7A7A7A7A00172E6FD009DCA6F130
:102A5000100007285AD2DFE800F07272818169699C
:102A600069001D2E5BD004DC182E5FD01C2E4ED0CA
:102A700074E0412E5AD0462E61D06FE0652E55D0BD
:102A80001EDC572E52D00EDC542E4FD006DC482EC2
:102A900055D04F2E18BF532E48D05FE0552E18BF8B
:102AA000562E5BD142E05B2E49D004DC582E18BF75
:102AB000592E53D13AE0612E18BF642E4ED135E025
:102AC000A6F17400152849D2DFE800F01939393928
:102AD00039394848483939484848484848483030E2
:102AE0003000647831462246D5F8C40002F072FC0A
:102AF00022463146284602F06DFC00F029BA627881
:102B00003146284602F066FC22E218E026E06278B0
:102B10000021D5F8C40002F058FC012018E26278C8
:102B20000121D5F8C40002F050FC7FE16078A17863
:102B300000EB01223146284602F04CFC08E26078A6
:102B4000A178227900EB0120E178090401EB026110
:102B500042183146284602F03DFCF9E15FF00200E0
:102B60008DF8280000F09BBA217803208DF828000A
:102B7000892980F094820AE0D7E16EE256E244E2CD
:102B80001CE2E8E1BEE18EE187E282E115E2880025
:102B9000784440688744000024020000BE02000020
:102BA0002402000024020000BE020000980200007F
:102BB00098020000980200009802000098020000AD
:102BC000980200009802000098020000980200009D
:102BD000980200009802000098020000980200008D
:102BE000980200009802000098020000980200007D
:102BF000980200009802000098020000980200006D
:102C000098020000980200004802000074020000D0
:102C1000BE02000098020000980200009802000026
:102C2000240200000605000006050000060500005D
:102C30000605000006050000060500000605000068
:102C40000605000006050000060500000605000058
:102C50000605000006050000060500000605000048
:102C60000605000006050000060500000605000038
:102C70000605000006050000060500000605000028
:102C80000605000006050000060500000605000018
:102C90000605000006050000060500009802000079
:102CA00006050000060500000605000006050000F8
:102CB000BE020000BE020000BE020000980200003A
:102CC0009802000098020000980200002402000010
:102CD000BE02000098020000980200009802000066
:102CE000980200009802000098020000980200007C
:102CF000980200009802000098020000980200006C
:102D000024020000BE020000060500009802000038
:102D1000980200009802000098020000980200004B
:102D20000605000006050000980200009802000059
:102D30002402000024020000BE020000BE020000C7
:102D4000BE020000BE020000BE020000240200001D
:102D50009802000098020000BE0200000605000074
:102D6000980200009802000024020000BE02000049
:102D7000BE020000BE020000BE020000BE02000053
:102D8000BE020000BE020000BE020000BE02000043
:102D9000BE020000BE020000240200000605000082
:102DA00024020000E4020000E4020000E40200004B
:102DB00098020000980200009802000001AA28462C
:102DC00002F0D2F800909DF80400002800F0708115
:102DD000D5E90C0C01236A46F02100F03AB900BF96
:102DE000D5F8C400002800F05A81002102F0B2F8A2
:102DF0008DF80000D5E90C0C01236A46F021E0476C
:102E000001208DF804000CB0BDE8F081D5F8C400B5
:102E1000002800F04481012102F09CF88DF80000A8
:102E2000D5E90C0C01236A46F021E04701208FE030
:102E300001AA284602F098F800909DF804000028A6
:102E400000F03681D5E90C0C02236A46F021E047F8
:102E50000CB0BDE8F08101AA284602F085F8009088
:102E60009DF80400002800F02381D5E90C0C042310
:102E70006A46F021E0470CB0BDE8F08101AA28467F
:102E800002F072F800909DF804000028EDD100F0E7
:102E90000FB9217807208DF82800284602F000F8A5
:102EA0008DF80400FBE0002002A902460A54401CF1
:102EB000C0B22028FAD3002005E00B18401CC0B295
:102EC000DA701D2804D2D5F8C020125C092AF4D18A
:102ED000D5F8C020411D2023515C8DF80810C11D7C
:102EE0000930515C8DF80910D5F8C01002AA085CB1
:102EF0008DF80A00D5E90C0CF021E04701208DF88F
:102F00000400CFE020796179E37800EB012082B200
:102F10002078617800EB0120A178090401EB0361BE
:102F20000144284601F0F4FF12E020796179E3784A
:102F300000EB012082B22078617800EB0120A178BB
:102F4000090401EB0361084401B2284601F0F8FFCF
:102F50008DF80400A3E005A80090217806AB04AA30
:102F6000284602F0B9F9BDF918005449C0EB001029
:102F7000800081FB00108110A1EBE0708DF808004B
:102F8000010A8DF80910010C8DF80A10000E8DF859
:102F90000B00BDF814008DF80C00000A8DF80D0030
:102FA000BDF810008DF80E00000A8DF80F00D5E96D
:102FB0000C0C082302AAF021E04770E0E079227AA5
:102FC000237900EB02201FFA80FC6078A278217838
:102FD00000EB0220E278120402EB0362104400EBE3
:102FE00080004200364B0020C3FB02025011A0EBD0
:102FF000E27003B26079A27900EB022000B2009087
:103000006246284602F08EFAA2E720786178E278DC
:1030100000EB012001B2A07800EB022002B22846AA
:1030200002F0C6F901208DF804003BE00C208DF879
:10303000280002948DF80C80224902A801F092FF2A
:103040008DF8040058B31F48F02103790268D5E9D0
:103050000C0CE0470CB0BDE8F081002002A904E0B0
:103060000A54401CC0B220280DD2D5F8C020125CF2
:10307000002AF5D1202838BF002204D20A54401C6F
:10308000C0B22028FAD3D5E90C0C20230A46F0213F
:10309000E04701208DF8040004E0012060E59DF880
:1030A000040028B10023D5E90C0C1A46F021D0E722
:1030B000D5E90C0C01230AAAFF21CAE767666666F8
:1030C000898888880C00002010B500F001F810BD38
:1030D00010B50446006BE16B8847802084F8C80077
:1030E000A16B206BBDE81040084700000148006854
:1030F000FFF74EBB0400002006480078002808BFF8
:10310000704710B500F008F801F0C2FCBDE81040AF
:1031100002F022B9E405002010B50E4C20780128F9
:1031200018BF10BD608800281CBF6088401E02D1F7
:1031300001F0FEFB09206080A08810B1A088401E2D
:10314000A080E088002808BF10BDE088401EE08015
:1031500010BD0000E405002001480068FFF740BBF7
:103160000400002001480068FFF745BB0400002070
:103170002DE9F35F524801F033F9524E002406F175
:103180002C01347050480860A1F108084F48C8F875
:10319000000000F095FC02F0F3FC4D4800F05DF9F2
:1031A00006F1100B4A48CBF8000006F10C0549481F
:1031B00028604948FDF70EFADBF80010464A2868F7
:1031C00001F0C9F8454800F048F9454800F045F9D4
:1031D00005F108094148C9F8000005F10C0A40480A
:1031E000CAF800003F48F06100F0C2FF05F11C0181
:1031F0003D480860F1693D4FC0E943713C4800F02B
:1032000001F905F114003A49016005F1240139483A
:10321000086000F027FF0020FDF7F0F8012087F894
:103220002400286801F079F83861286801F075F801
:103230000014B88207F128002F1FA0F1280338607E
:1032400005F128012A68FFF7B2FA286801F075F83D
:103250003B68014600221846FFF766FA0098396875
:1032600001602548DBF800100160D9F800104160CA
:10327000DAF80010C0E90214D8F80010C0E904140C
:103280001549C0E9061404622968416205F1280164
:10329000816214390968C162F169C0E90C1405F151
:1032A0001C0184630968C0E90F1444648464C46425
:1032B0000465019908600120307002B0BDE8F09FFC
:1032C00018060020E4050020F4030020E00100209F
:1032D00028010020AC0100205802002054010020E9
:1032E000800100204803002014000020D0070020A7
:1032F00020030020DC03002014080020B0F8003177
:10330000002220F81310B0F80031A0F802315B1C45
:103310009BB2A0F80031802B24BF0023A0F800311D
:103320005FF0000330F913C05B1C9BB26244802B3A
:10333000F8D3D31702EB5362D211A0F80421084648
:10334000704700210A4620F81120491C89B28029C3
:10335000F9D3A0F80021A0F802217047B0F90401C8
:103360007047000008B5FEF719FB4FF4FA61B0FB97
:10337000F1F0FEF75BFD0749081FFFF7F9FE02F0C9
:103380008FFB044B04481A1F00900121101F02F00C
:10339000E5F808BD08000020465C000810B50446AA
:1033A0000078002818BF002012D194F8260000F001
:1033B0006BFDA0F57F41FF3907D0218B238A4A1E80
:1033C00003FB0200B0FBF1F02082204600F02CF855
:1033D000E08280B210BD002101827047017800298F
:1033E00018BF808A01D000B27047018A026A891A28
:1033F000B0F91E20808C5143CA1701EB124100EB3B
:103400002140F0E710B50446007820B10020E082AA
:10341000608A208210BD201D00F096FD84F82600F1
:103420002046FFF7D8FF10BD018A428B914284BF2E
:1034300008207047828B8A428CBF0020C08A704768
:10344000B0F922007047B0F906007047408B704712
:10345000B0F904007047008B704701888180418873
:10346000C180018C4184002181608162704781604C
:10347000704741847047C180704781807047000069
:1034800070B4B0F90420002402FB01F6B0F9062064
:10349000B0F914C0B0F91630002A04BF00218160D1
:1034A00014D085684A43A91805D5002DC4BF002A49
:1034B0006FF0004103E0002DBCBF002A0F49C26835
:1034C0008A42A5BF0269914282608160827F8168E1
:1034D000057F41FA02F246FA05F52A446245C4BF67
:1034E000ACEB0204624603DC9342C4BF9C1A1A464A
:1034F0002144816070BC10B2704700000100008060
:1035000070B5D0F80C110446C868D1F8161002B294
:103510000BB25A430014091400FB0121C81701EB38
:1035200010400514D4F8100102F0B2F8D4F80811D4
:1035300048434FF4167190FBF1F0684300EB4000F4
:103540000749400081FB00108110A1EBE071C81712
:1035500001EB104001142046BDE87040FFF7CEBEDD
:1035600067666666C169084770B50446002511B1F3
:10357000012908D017E000F007F9B4F85200A4F8C8
:10358000440080B90BE0B4F84400002808BF0125CE
:1035900009D0401E0004000CA4F8440003D12169A6
:1035A000204688470125284670BD4268104730B440
:1035B000038E0AB253430A14B0F850104A43520023
:1035C000524202EB030CA2EB03030CEBDC7C03EB9B
:1035D000D3735FEA6C0C4FEA63034FEA910153D552
:1035E000002B18DA042280F83A20ACEB0302D4173F
:1035F00002EB943201EBA241DA1703EBD23201EB7A
:1036000062434FEAEC720CEBD232A1EB624CA0F8B1
:103610003CC0C1876CE0002A1BDC4FF0030C80F833
:103620003AC0A2EB030C4FEAEC740CEB943C01EBB8
:10363000AC414FEAE37C03EBDC334FEAE27C01EB85
:10364000634302EBDC32A3EB624CA0F83CC0C387BF
:1036500017E0022380F83A30ACEB0203DC1703EBEF
:10366000943301EBA3414FEAEC730CEBD333A1EBA2
:10367000634CD31702EBD3320CEB62438387A0F881
:103680003EC0A0F8401052E0002B17DB012280F86A
:103690003A20ACEB0302D41702EB943201EBA241C7
:1036A000DA1703EBD23201EB62434FEAEC720CEB18
:1036B000D2328387A1EB624CC18736E0002A1ADC44
:1036C000052380F83A30ACEB0203DC1703EB9433AC
:1036D00001EBA3414FEAEC730CEBD333A1EB634C4A
:1036E000D31702EBD33281870CEB6243A0F83EC0C4
:1036F000A0F840301BE04FF0000C80F83AC0A2EB7D
:10370000030C4FEAEC740CEB943C01EBAC414FEA38
:10371000E37C03EBDC3301EB63434FEAE27C02EB37
:10372000DC328187A3EB624CC387A0F840C089B22A
:103730009AB2418682861FFA8CF3C386B0F84EC0D7
:10374000BCF1010F02D0816930BC0847B0F948C014
:10375000BCF1000FB0F854C0CCBF6144A1EB0C0128
:103760004186B0F94A1000291FFA8CF1CCBF1144F0
:10377000511A8186B0F94C1000291FFA8CF1CCBF88
:103780001944591AC186DEE781680847416F91F8EC
:103790008820022A11D1CA68896FC1F30F215161B3
:1037A000426F1169D26FC2F30F224A61416F4A69B9
:1037B000D1F88010C1F30F215161012180F87210FE
:1037C000463070472DE9F0470446406F0027856872
:1037D000E7652766676684F87070286A20F05500F0
:1037E00020F4A06028624049616040490326A1613D
:1037F00084F87160204684F83A6000F04EFA606FF9
:1038000004F1700304F1380190F88920284602F091
:10381000E7F9204600F014FA84F8707034496160CA
:1038200084F87170204684F83A7000F036FA606FC0
:1038300004F1700304F1380190F88920284602F061
:10384000CFF9204600F0FCF9E06D2C4BC108E16592
:10385000206E05F11809C1082166606EC108616615
:10386000244961602449A161187800EB09021168BC
:10387000D81D4FF0080890F800C008FA0CFC21EAA7
:103880000C01116099784944D1F800A0877808FAB2
:1038900007F72AEA070AC1F800A01B794B44D3F8BE
:1038A0000090007908FA00F829EA08001860B4F8D6
:1038B0006C006863B4F86C00A863B4F86C00E8634B
:1038C000106840EA0C001060086838430860186807
:1038D00040EA0800186084F83A60296A40F25550BE
:1038E00008432862BDE8F0872D3A00087B3B0008BA
:1038F000833A000801390008B93B0008225F00083C
:1039000070B4426F9268136A23F48053136290F884
:103910003AC01822436F02EB8C029A5814684FF693
:10392000FF7202EA4405302404EB8C041B591B6827
:1039300002EA43043C4A530CBCF1060F66D2DFE8AE
:103940000CF01D414103031DD0F85CC0ACEB050C2D
:103950001CF5004FD8BF0A8005DDBCF5004FACBF99
:103960000B80A1F800C0D0F860C0ACEB040C1CF5D3
:10397000004F47DDBCF5004F3FDA45E0D0F860C0AE
:10398000ACEB050C1CF5004FD8BF4A8005DDBCF53B
:10399000004FACBF4B80A1F802C0D0F864C0ACEBC4
:1039A000040CB1F90240A444CCF1000CBCF5004F6A
:1039B000A8BF0B802ADA1CF5004FD4BF0A80A1F8FB
:1039C00000C023E0D0F85CC0ACEB050C1CF5004F48
:1039D000D8BF0A8005DDBCF5004FACBF0B80A1F855
:1039E00000C0D0F864C0ACEB040CB1F90040A444B2
:1039F000CCF1000CBCF5004F01DB4B8006E01CF560
:103A0000004F01DC4A8001E0A1F802C00A88A0F85A
:103A100048204A88A0F84A200A8849881144494227
:103A2000A0F84C1070BC70470180FFFF426F926895
:103A3000136A23F48053136290F87020102A1CD26A
:103A400090F871304FF0180C426F0CEB8303D25892
:103A50001268C36D4FF0300C1A44C26590F8713093
:103A6000426F0CEB8303D2581268036E1A4402664D
:103A700090F87020521C80F8702000200880488048
:103A80007047426F9268136A23F48053136290F870
:103A90007020102A10D290F871304FF0300C426F25
:103AA0000CEB8303D2581268436E1A44426690F8B6
:103AB0007020521C80F870200020088048807047D9
:103AC00010B4436F9968D3E90023D1F800C02CF0FB
:103AD000010CC1F800C0D0F874C09CF88AC0BCF1D9
:103AE000000F09D06FF0800CC1F810C0D1F80CC0E5
:103AF0004CF0800CC1F80CC0D1F814C04CF0010C93
:103B0000C1F814C0DFF858C0A1F18044B4F5963470
:103B1000DCF804100CBF41F4806141F40031CCF8B2
:103B200004100CBF4FF480514FF4C041A0F86E1048
:103B3000916841F001019160996841F0010199603B
:103B40006FF004011160516841F0800151607021F3
:103B50008166002180F87210A0F84E1010BC7047EA
:103B6000002004E090F872200021012A03D14021B6
:103B7000002280F872200846704790F8711080F893
:103B80003A10B0F86C10491E8AB20146406F4B8E55
:103B9000806843638B8E8363CB8EC3630264006A49
:103BA00010F4805018BF01200A8F012A18BF7047F7
:103BB000012000220A87704730B470218166456F6A
:103BC000818FB0F86C20B5F88440A2EB010CC38F54
:103BD0001FFA8CFCA44506D9032180F83A1091B253
:103BE000491E89B214E0CB1A9BB2B3EB4C0F84BFD1
:103BF000B5F88620891A0AD8214489B2914207D3A0
:103C000060228266B0F86C20C1EB4201491E89B285
:103C1000AB680246408E5863908E9863D08ED8630E
:103C20001964186A10F4805018BF0120118F0129FF
:103C30001CBF30BC704701200021118730BC704789
:103C4000416F8968CA6822F00102CA60002280F8C8
:103C500042204A6C22F400424A64426F92F8883053
:103C6000022B11D1D368926FC2F30F225A61436FB6
:103C70001A69DB6FC3F30F235361426F5069D2F8A7
:103C80008020C2F30F2242616FF001020A610869CD
:103C900010F0010FFBD00A61704710B4416F002291
:103CA000896880F84220B0F86C2052084A63B0F866
:103CB0006C2052088A63B0F86C205208CA63B0F8CE
:103CC0006C20521F0A646FF001030B610A6912F045
:103CD000010FFBD00B614A6C42F480624A644A6C6B
:103CE00042F400424A64426F92F888C0BCF1020F6D
:103CF0001CD1D1F820C040F2555434EA0C0CD2F853
:103D00000CC0926FC2F30F2217D0CCF81420426F70
:103D1000D2F810C0D26FC2F30F22CCF81420426F39
:103D20005069D2F88020C2F30F2242610B61C8684B
:103D300040F00100C86010BC7047CCF81020426F02
:103D4000D2F810C0D26FC2F30F22CCF81020426F0D
:103D50005069D2F88020C2F30F220261E6E700002A
:103D600030B450F8742F116893685268D1F808C0C5
:103D70002CF4004CC1F808C0D2F808C02CF4004C58
:103D8000C2F808C050F83AC94825047805EB840405
:103D90005CF804C0C1F838C0D0F83AC010F8344B11
:103DA000602505EB84045CF804C0C2F838C053F801
:103DB00020CF4CF4805C43F808C9B0F800C08C6890
:103DC0000CF4E04C24F4E04444EA0C0CC1F808C0C4
:103DD00030F806C994680CF4E04C24F4E04444EA5A
:103DE0000C0CC2F808C0D1F808C04CF4004CC1F863
:103DF00008C0916841F4004191600A4950F82229B5
:103E000089791944D1F800C0074B73259C799B79B7
:103E100005FA04F42CEA040C9A404CEA02020A6007
:103E200030BC7047225F0008295F0008416F012203
:103E3000D31E896880F842200B6100224A638A639E
:103E4000CA630A6912F0010FFBD00B614A6C42F49D
:103E500000424A64416F91F88820022A18BF7047D7
:103E6000CA68896FC1F30F211161426F1169D26F66
:103E7000C2F30F220A61416F4869D1F88010C1F383
:103E80000F210161704700001C4910B451F8202037
:103E9000D2F800C0127902EB4203092A99BF4FF011
:103EA000007444EA0353164C04EB03531A434FF4D3
:103EB000407494FAA4F44FF40073B4FA84F4E34029
:103EC0000CEB8303D3F82CC002F01F022CF01F0C64
:103ED0004CEA0202DA6251F820201268D36C93682F
:103EE00043F4A003936051F820000068016811F0CA
:103EF000020FFBD0C06C10BC80B270476808002075
:103F0000000020FE10B50E4C6078012818BF10BDCF
:103F10002078FFF7B9FF6080014602206070094AEF
:103F2000207852F83030002B08BF10BD4FF0000C45
:103F300002EBC00284F801C05268BDE81040184787
:103F40001E0600207808002070B4FF21424B00229A
:103F500053F822C0BCF1000F1DD09CF80440057935
:103F6000AC4206D1DCF800C00468A44504BF114689
:103F70000422521CD2B2042AEAD3042968D243F89C
:103F80002100364B002243F831200268936813F079
:103F9000010F04D023E0042988BF1146E9E75368E4
:103FA00023F02003536002686FF00203136002687D
:103FB000536823F08003536002686FF004031360BA
:103FC0000268936843F0010393600268936843F0CA
:103FD000040393600268936813F0040FFBD1D36A63
:103FE00023F47003D3620279D0F800C04FF000735D
:103FF000092A02EB420492BF43EA0454184D05EB30
:1040000004542243846893FAA3F302F00070B3FAD5
:1040100083F3D8400CEB8000D0F80CC002F0F873AA
:104020004FF0F87292FAA2F5B5FA85F592FAA2F27B
:1040300023FA05F50726B2FA82F206FA05F523FA05
:1040400002F22CEA050C04FA02F24CEA0202C26007
:1040500070BC0846704700006808002078080020FF
:10406000000020FE002181604160C16001610121EA
:104070004161704790F84800704701EB410100EB47
:1040800081008089704701EB410100EB8100B0F9AC
:104090000E00704701EB410100EB8100B0F9100008
:1040A000704701EB410100EB81008281704701EB19
:1040B000410100EB8100C281704701EB410100EB3F
:1040C000810002827047000070B5044690F8260017
:1040D000FFF7DAFEA0F57F418446FF3921D094F83E
:1040E0002510206A20F811C00021228B0846002AE2
:1040F00088BF236A07D900BF33F81050401CC0B2F4
:1041000029448242F8D8B1FBF2F0E080A4F804C060
:1041100094F82500511E8842B4BF401C002084F84A
:104120002500204600F002F8208170BDC188428B36
:10413000914284BF02207047808B88428CBF04204C
:1041400000207047418B828B038B11444A08002169
:10415000002B07D9036A23F81120491C038B89B26D
:104160008B42F7D88280C280002180F825107047EA
:1041700010B504460C30FFF7E7FE84F82600204611
:10418000FFF7E0FF10BDB0F90C007047B0F9040074
:104190007047B0F910007047B0F90C10B0F9140076
:1041A000C1EBC13191FBF0F000B2704730B4B1F90E
:1041B0000050012490F803C000230278002DBABFFC
:1041C000694289B20988858A8D4238BF0123C58A30
:1041D0008D4288BF0123B0F912100029BABF4942AD
:1041E00089B2418A058B8D4228BF002B04D06245DD
:1041F0003CBF511CCAB202E0624538BF0022624592
:1042000008BF00240270204630BC704770B50546D8
:10421000007800280CBFAC686C68E968012904D9F3
:10422000AA69A1F10101144405E005D169884FEAAA
:1042300001444FF00001E960012805D0E01704EBCC
:1042400010400014AC6070BDE01704EB1040061481
:104250006869FFF798FF301A01B22869FFF710F973
:104260000104C5E9014170BD0178012918BF7047FB
:1042700000690021FFF7FBB82DE9F0410446007802
:1042800017460D46012660B16068C11700EB11406A
:10429000E18B0014A942A4BFB4F924108D4212DAB4
:1042A0000FE0204600F051F8E18CA94205DAB4F99C
:1042B000281000268D421CDA03E0B4F928108D4244
:1042C00008DA002615E0218C8D42BCBFB4F922101B
:1042D000A942F6DB87B16580A18B4FF47A727943EE
:1042E000B1FBF2F1491C281A000490FBF1F0E160E7
:1042F000A0613046BDE8F08121782804012914BF6F
:10430000A06060600020E060F2E710B504464069FC
:10431000FFF739FF0004606010BD0146C28D098EB1
:1043200062F30F0061F31F407047C08B7047406815
:10433000C11700EB114000147047B0F92C00704712
:10434000B0F924007047406970478068C11700EBDE
:10435000114000147047C0E9041290F82A1001704F
:10436000818D09044160C18D090481600021418073
:10437000C1608161704701700021C16070470021F8
:10438000C16081617047027800210B2A04D10921A4
:10439000017000218180012108467047B0F802C0F9
:1043A00003784CEA010C2CEA02024280B0F804C007
:1043B0000A2B4CEA0101818005D012B10A2101705B
:1043C0000B4618467047002AFBD10B2101700B46A3
:1043D000F7E78188408841EA0040704700787047DD
:1043E0000021017041808180704710B5027800245F
:1043F000152A6CD2DFE802F00E1B3033525E636682
:1044000069706B6B0B21262B3D424D5848000029EB
:1044100066D05CE003291CBF01290C2960D0072964
:1044200003D000228021FFF7B9FF204610BD0729E5
:104430001CBF0D290E2953D049E00E2918BF0729AA
:104440004ED044E00F2918BF072949D03FE0022988
:1044500018BF072944D03AE0072941D037E007299F
:1044600018BF10293CD004291CBF1129012937D0BD
:104470002DE0112918BF072932D028E012291CBFCE
:10448000072914292CD022E0122918BF072927D088
:104490001DE0042918BF072922D018E013291CBFEA
:1044A000072905291CD012E004291CBF072905296A
:1044B00016D00CE0062918BF072911D007E00729FC
:1044C0000ED004E008290BD001E0092908D0032907
:1044D00018BF0129A9D0A2E7002918BF0C29F6D1DD
:1044E0004FF001040170A0E710B5084C20780228B5
:1044F00005D1FDF725F8FDF7AFFC00202070C0B214
:10450000401C2070BDE81040FEF7F6BD22060020DA
:104510000E48016841F00101016041680C4A1140F8
:104520004160016821F4102121F08071016001686F
:1045300021F480210160416821F4FE0141604FF4C3
:104540001F0181600349C0030860704700100240EA
:104550000000FFF808ED00E0084810B5406F8068E3
:10456000016911F0800F05D06FF0800101610348EF
:10457000FFF70CF9BDE81040FEF7CEBDE0010020CA
:1045800003496FF0010008600248FFF7E9BB000033
:10459000102C0140E001002010B50D4CE06A0169CB
:1045A00011F0010F05D06FF0010101612046FCF709
:1045B000AFFAE06A016911F0020F08BF10BD6FF099
:1045C00002010161BDE810400148FCF71BB9000081
:1045D00058020020F0B402681E4B1F4C1F4D204EA5
:1045E000DFF880C0984218BF604508D0B0F1804F16
:1045F00018BFA04203D0A84218BFB04204D14F68F0
:1046000022F0700247EA0202984218BF604508D0C3
:10461000B0F1804F18BFA04203D0A84218BFB042EB
:1046200004D1CC6822F4407244EA02024C6922F0C0
:10463000800242EA040202608A68C2620A688262F8
:10464000984212BF6045096901634FF00101416161
:10465000F0BC7047002C01400004004000080040FE
:10466000000C00400034014070B4026A22F01002D5
:104670000262026A4368D0F818C00C682CF4E64C59
:104680004CEA042C8C6822F0200242EA0412104CFE
:10469000104DA04218BFA84206D1CE6822F0800279
:1046A00042EA061222F04002A04218BFA84207D1F7
:1046B0004C6923F4406343EA84038C6943EA84032E
:1046C0004360C0F818C049688163026270BC7047DB
:1046D000002C01400034014002689368D1F804C006
:1046E00023F070034CEA0303D1F800C023F0070362
:1046F0004CEA030393604A6812F00F0F59D112116C
:10470000082A56D2DFE802F055555555122B4104C0
:104710000068D1E90232D1F810C0816843EA0C2365
:1047200021F47F411A431143816042E00A68052A5F
:1047300004BF012070470268136AD2F820C02CF031
:10474000010CC2F820C00268D2F818C009692CF028
:10475000F00C4CEA011191610068036229E00068E5
:104760000B698A68016AD0F820C02CF0010CC0F8EF
:1047700020C0D0F818C021F00A012CF0F00C4CEA4F
:10478000031311438361016213E000688A680969B9
:10479000036A23F010030362D0F818C0036A2CF4F4
:1047A000704C4CEA013123F0A00343EA021281610C
:1047B00002620020704730B4D0F820C02CF0010C09
:1047C000C0F820C0D0F818C0046AA0F18045B5F543
:1047D00096351CBFA0F18045B5F59A3513D0B0F1E0
:1047E000804F1CBFA0F18045B5F580650BD0A0F1CE
:1047F0008045B5F500651EBFA0F18045B5F5406563
:104800004CF0010203D12CF0030C4CEA02024FF0F1
:10481000F00C22F0F0020CEA03131A4324F00A030E
:1048200001F00A0119438261016230BC7047000047
:10483000034900208988002908BF01207047000033
:10484000E4050020054810B50068FFF7F9F90022DB
:10485000BDE8104080210248FFF7A0BD08060020F7
:10486000180600202DE9F84F4FF0000A2C48FBF7FE
:1048700064FE2C480068FFF766FD8346FFF786FC60
:10488000DFF8A49007466946D9F80000FEF78DFED0
:104890000098FDF7B7FF80463946FDF7D7FF234C58
:1048A000064631B2B4F91000411AA9F110000068AF
:1048B000FEF7E6FD60F30F05B4F91200A0EB264108
:1048C000A9F10C000068FEF7DBFD294660F31F41EB
:1048D00009F108000068FBF7BDFC05465846FFF7E4
:1048E00058FC39462846FDF7F1FF83465946D9F86A
:1048F0000000FEF75CFEC4F816500099E660C4E9BB
:104900000018C4F81AB02784012805D1002201211B
:1049100009F11000FFF742FD5046BDE8F88F000096
:1049200058020020F005002008060020D0070020D3
:1049300038B50020ADF8000069464F48FBF795FDFB
:1049400004464E480068FEF7DBFD4D48FFF746FD84
:10495000C01E102828BF38BDDFE800F00842475AC3
:104960006A7E881313131313131423304548006809
:10497000FFF75CFA142000F0E7F810214048FFF739
:1049800034FD38BDFFF754FF002808BF38BD3D484F
:1049900000210068FEF7E8FD11213948FFF725FDE9
:1049A00038BD384801210068FEF7DEFD002808BF49
:1049B00038BD12213248FFF718FD38BD2E48FBF7ED
:1049C000DDFD04212E48FFF710FD002808BF38BD8B
:1049D0000020FBF713FD2B480068FFF75EF938BD98
:1049E00005212748FFF701FD38BD0020FBF73CFDFE
:1049F0000020FBF7E9FC06212148FFF7F6FC2248DE
:104A00000068FFF782FC21480068FDF751FE38BDC1
:104A10001E480068FDF74CFE0020FBF7D5FC002C7B
:104A200018BF38BD002220211548FFF7B7FC38BD5C
:104A300014480068FFF704F90020FBF7DFFC0F487B
:104A40000068FEF77EFC4FF4487000F083F8082100
:104A50000B48FFF7CAFC38BD00F082F8002808BFF9
:104A600038BD09210648FFF7C0FC38BD00210448C5
:104A7000FFF7BBFC38BD0000580200200C060020E8
:104A80001806002008060020F0050020EC05002094
:104A900006480078012818BF704710B5002000F0C4
:104AA00007F8BDE81040FFF72DBA0000E40500202C
:104AB000F8B504461F48006800901F4850F82400CD
:104AC000FEF76CFC3DF814101C4F00EA010557F886
:104AD0002400FEF747FD054344B9A7F12400C0694F
:104AE000FFF7F2FABDF8001008400543E84382B230
:104AF000134804EB440100EB410629463046FFF71A
:104B00004DFC3046FFF76AFC0A2806D00B2804BF8C
:104B100057F82400FEF738FEF8BD57F82400FEF7DA
:104B200033FE2046FBF76AFC064850F82400FEF7E7
:104B300008FCF8BD685C0008040600200806002098
:104B4000180600200C0600200149888070470000EC
:104B5000E40500200149C88070470000E4050020FA
:104B600003490020C988002908BF012070470000C0
:104B7000E405002070B5044600680169E26821F48C
:104B80004051114301612169A068084361690143F3
:104B90002068C26822F4037222F4A0521143C1605B
:104BA00020684169A26921F4407111434161206884
:104BB0003C4D3226A0F18041B1F59C3138D0FCF754
:104BC000F3FE00EBC00101EB001160688000B1FB57
:104BD000F0F2A5FB02C2B1FBF0F352096FF0180C22
:104BE00002FB0CF203EB820206EB0212A5FB02327F
:104BF000520902F0F003B1FBF0F2A5FB02C2520928
:104C000003EB0212B1FBF0F3B1FBF0F0A5FB0010D7
:104C100040096FF01801484303EB800006EB0010D9
:104C2000A5FB00102168C0F343101044886070BDDC
:104C3000FCF7CAFE00EBC00101EB001160688000C8
:104C4000B1FBF0F2A5FB02C2B1FBF0F352096FF029
:104C5000180C02FB0CF203EB820206EB0212A5FB1E
:104C60000232520902F0F003B1FBF0F2A5FB02C2DE
:104C7000520903EB0212B1FBF0F3B1FBF0F0A5FB1C
:104C8000001040096FF01801484303EB800006EB69
:104C90000010A5FB00102168C0F343101044886089
:104CA00070BD00001F85EB51002180F81C1170477A
:104CB000FBF76EBB08B508218DF8001001236A468A
:104CC000FF2100F075F808BD38B590F81C212B4D78
:104CD0000446002A4FD094F81D31C9B28BB100228E
:104CE000012B15D094F89AC00CF1020C63451AD22E
:104CF00004F19900195494F81D01401C84F81D0119
:104D000039E084F89910208A60821D4D0120F5E772
:104D100084F89A10022084F81D01C8B2802828BFA8
:104D200084F81D2127E084F81B116282D4F8200149
:104D3000144DC16821F02001C16084F81C2104F1E8
:104D40009900FBF70EFB94F81B1188420AD1D4F8A6
:104D500008C094F89A3094F8991004F19B022068E6
:104D6000E04708E00A208DF8000001236A46FF2191
:104D7000204600F01DF8284638BD0000305F0008CE
:104D8000325F0008345F000890F81C1100291CBF36
:104D900001207047002180F81D11012180F81C11AD
:104DA000D0F82001C16841F02001C16002207047A5
:104DB00010B5044690F8970000281CBF012010BDD4
:104DC00004F1160C2175581E6375C0B207D300BFDD
:104DD00012F8011B401E0CF8011BC0B2F8D204F1FE
:104DE0001400FBF7BEFA84F89600002184F89810AE
:104DF000012184F89710D4F82001C16841F08001A6
:104E0000C160022010BD90F897200146002A08BF1B
:104E1000704791F89820002A08BF0A7D0CD0012A1B
:104E200008BF4A7D08D04B7D9B1C9A423ABF01F1D6
:104E30001403D25C91F89620D0F820315A604B7D53
:104E400091F898209B1C9A423EBF501C81F8980014
:104E50007047D1F82001C26822F08002C2600020B1
:104E600081F89700D1E9000108478169002908BF4E
:104E7000704708474169002908BF7047084700008C
:104E800070B5064C0546A06800F04BFAA84218BF62
:104E900070BDA068BDE87040FFF7E7BF24060020A2
:104EA00070B5026A90F82C0001240F2952F82050A6
:104EB0002AD2DFE801F0291915082A2A111D212517
:104EC0002929292915002846FDF762FC062804BF78
:104ED0002846FDF794FC18E02846FDF759FC18B168
:104EE0002846FDF788FC10E02846FDF779FC0CE029
:104EF0002846FDF729FC08E02846FDF7D5FB04E02D
:104F00002846FDF7C9FB00E00024204670BD0000E4
:104F100010B5036A90F82C0001EB8101DFF81CC08A
:104F200053F820004B000021CCFB03135911A1EBD7
:104F3000E37109B2FDF7F8FB012010BD898888886C
:104F400010B5036A90F82C0053F82000FDF7F3FB2E
:104F5000012010BD034689209A68002A08BF7047C7
:104F600018461047002070472DE9F0418446436AF7
:104F700090F82C00DCF82040012553F8203054F83C
:104F800020600020002A18BF1570D04C232900F0A3
:104F9000728115DC232943D2DFE801F04E53589883
:104FA0005D6A6F7492BEC3C8CDD3D8DD424242421F
:104FB0004242424242797EE2E7F183EFEE42ED0067
:104FC000022730297AD00BDCA1F124010C2927D249
:104FD000DFE801F0F5F4F3D3D2F2F1F0EFEEEDF605
:104FE0006E296CD010DC402900F0298107DC3D29B6
:104FF0007DD03E297CD03F2900F0168110E0412968
:1050000077D05B2967D00BE0722908BFBDE8F0813B
:105010000CDC6F297BD0702904BFAD48BDE8F0815E
:10502000002A1CBF00211170BDE8F081732918BF50
:105030008129F5D1BDE8F081604600F072F9BDE844
:10504000F081986ABDE8F041FFF7C3B9986ABDE8FE
:10505000F041FFF7C3B93046FDF797FBC0EB0010F6
:10506000800084FB00108110A1EBE070BDE8F081AE
:105070001868BDE8F041FEF7EBB91868BDE8F041EB
:10508000FEF7E1B91868BDE8F041FEF7D9B9186B31
:10509000BDE8F04100F0FCBAD86ABDE8F041FEF787
:1050A0009DB93046FDF753FBC0EB0010800084FB38
:1050B00000108110A1EBE070BDE8F0819AE021E0E2
:1050C0003046FDF757FB00B2BDE8F0813046BDE841
:1050D000F041FDF744BB3046FDF741FB0128BAD152
:1050E0003046FDF74AFBC0EB0010800003E04BE0C8
:1050F00053E020E00BE084FB00108110A1EBE07096
:10510000BDE8F0811868BDE8F041FEF7A4B9186861
:10511000BDE8F041FEF79AB95868BDE8F041FEF7E6
:1051200097B95868BDE8F041FEF78DB95868BDE8F9
:10513000F041FEF785B93046FDF71CFB0014BDE8D1
:10514000F0819868BDE8F041FEF782B99868BDE843
:10515000F041FEF778B99868BDE8F041FEF770B904
:10516000D86BBDE8F041FEF7F9B800216046FFF7C3
:10517000F1FEBDE8F08176E071E06CE0FFE701212F
:105180006046FFF7E7FEF4E7DCF81020002AF0D0D5
:10519000BDE8F041002160461047DCF81020002AED
:1051A000E7D0BDE8F04101216046104708E088E003
:1051B00083E07EE079E074E06FE06AE065E05FE064
:1051C0009CF82C20DCF8281051F822200021B7EBA5
:1051D000127F14BFB5EB127F9969C2F30362022AF2
:1051E00014BF012AD9690029C3D0BDE8F04108469F
:1051F000FEF7CCBF9CF82C20DCF8281051F82220B8
:105200000021B7EB127F14BFB5EB127F9969C2F38F
:105210000362022A14BF012AD9690029A9D0BDE876
:10522000F0410846FEF7B8BF586AFFF77EF8C0EBBA
:10523000001028498000A1FB0010C00899E7586AB7
:10524000FFF77EF8C0EB0010800084FB0010811097
:10525000A1EBE0708DE73046FDF789FA0EE03046AD
:10526000FDF785FA0FE05969002982D0BDE8F041C9
:105270000846FEF7FFBE3046FDF773FA00B278E746
:105280003046FDF76EFA001473E73046FDF76CFA0E
:10529000F4E73046FDF768FAF5E73046FDF76AFABD
:1052A000ECE73046FDF766FAEDE73046FDF77BFAAE
:1052B000E4E73046FDF777FAE5E73046FDF76FFAA9
:1052C000DCE73046FDF76BFADDE7000067666666EF
:1052D0007A84A634CDCCCCCC2DE9F0478946416AFE
:1052E00090F82C000124DDF8208051F820001E46A3
:1052F00017464569002D08BF00240FD049462846AF
:10530000FEF7BBFE388049462846FEF7BCFE3080DB
:1053100049462846FEF7BEFEA8F800002046BDE834
:10532000F08790F82C00704710B5FDF7DFFE18B13C
:10533000BDE81040FDF716BFBDE81040FDF70CBFFB
:10534000DDF800C001770021C0E9082380F82C10A7
:10535000C0F828C0704700000948418811B1418851
:10536000491E41808188012902D98188491E818096
:105370000188012998BF70470188491E0180704744
:1053800024060020037F01228B4294BF002280F874
:105390002C1010467047000001494F20888070474C
:1053A0002406002001490020888070472406002040
:1053B000D0F820C090F82C0061F30F0319465CF878
:1053C000200062F31F41FDF7FCB94368002B08BFC2
:1053D000704718472DE9F04115460246036A90F8D8
:1053E0002C0001262CB253F82070536A0A2953F876
:1053F000200068D008DC0A2916D2DFE801F0191570
:10540000153E152F3439555F0E2979D006DC0B294E
:105410005ED00C2961D00D296DD005E00F2974D024
:10542000412977D05B2909D000263046BDE8F081BC
:10543000E9B21046FFF7A6FF0646F6E705EB850042
:10544000374A40000021C2FB00104111A1EBE0707F
:1054500001B200223846FDF767F9E6E70068214609
:10546000FEF70BF8E1E700682146FEF704F8DCE7F9
:1054700000682146FDF7FDFFD7E715F0FF0F07D1C4
:105480003846FDF788F9014600223846FDF753F902
:10549000E8B20128C9D13846FDF777F90146002264
:1054A0003846FDF741F9C0E73846FDF763F964F384
:1054B0000F0001463846FDF784F9B6E740682146FB
:1054C000FDF7DBFFB1E740682146FDF7D4FFACE70D
:1054D00040682146FDF7CDFFA7E73846FDF74AF9BA
:1054E00064F31F4001463846FDF76BF99DE707E07E
:1054F00001E00AE00EE080682146FDF7BEFF94E778
:1055000080682146FDF7B7FF8FE780682146FDF7E9
:10551000B0FF8AE721463846FDF75DF985E70000D0
:10552000898888882DE9F0410F46416A90F82C005F
:105530001D46069E51F82000394644692046FEF774
:10554000B0FD2A4639462046FEF7B1FD32463946BF
:105550002046FEF7B2FD0120BDE8F0812DE9F047BD
:1055600084B0294C0546294E26480C9F9846914602
:105570008A46A060B6E80E10A0E80E10B6E80E103D
:10558000A0E80E1096E80E1080E80E1043464A463A
:1055900051462038203E0095FFF7D2FEA068FFF765
:1055A00069FC23220021A068FFF70FFF24220121BC
:1055B000A068FFF70AFF1648E060B6E80E10A0E802
:1055C0000E10B6E80E10A0E80E1096E80E1080E857
:1055D0000E101048FFF76CFBA0680F49CDE90010D2
:1055E00002970E4B0E4A0B49E068FDF7C1F9009592
:1055F00043464A465146E068FFF7A2FE04B0BDE8C4
:10560000F0870000A0030020240600207003002083
:1056100098080020A8040020A94C0008894D000823
:10562000B14D000838B5194CD4F82001006885B296
:1056300015F0080F0AD02046FFF73CFBD4F82001F4
:105640000168009140680090FFF7ACFE15F0200F54
:1056500010D0D4F820014068C1B20C48FFF734FBE9
:105660000088012804D0022808BFFFF79BFE01E054
:10567000FFF792FED4F82001006810F0800F08BFF9
:1056800038BD0248BDE83840FFF7BDBBA804002084
:10569000C18840884843000C704702E008C8121FC8
:1056A00008C1002AFAD170477047002001E001C10B
:1056B000121F002AFBD1704798B0FBF749FF002466
:1056C000059406940A940B9414940120109400906D
:1056D000159400040E9401900294139401200C94EC
:1056E00004900394119402200D9407901294C00327
:1056F00008904FF4E01009906846FCF7B1F94FF0BC
:105700000F0B0220CDF828B0CDE90B044002CDE903
:105710000D0402210AA8FCF759F80220109080031A
:10572000129010A8FBF7BCFFFCF732F9CD480394A8
:105730008069CC4940F020008861886900F0200031
:105740000490886940F010008861886900F01000BA
:105750000490886940F004008861886900F00400C2
:1057600004900846806940F00800886188696946AD
:1057700000F00800049001200090BB480190022036
:105780000290BA48FBF7D4FDB6484069B54940F0ED
:10579000010048614869B64900F00100B54800942D
:1057A00001940294039404948D150594069407942F
:1057B000089409948560016004730475EF004FF448
:1057C00060214760C16102210161FBF7E7FB012015
:1057D0004FF00B08CDE900808DF815404FF0030A1B
:1057E0004FF4805902908DF81400CDF810A0CDF838
:1057F000189069469F480394FBF7D0F90C260220C5
:10580000CDE9006069469B48FBF7C8F90D20CDE95A
:10581000000A69469748FBF7C1F90120CDE907B0B6
:10582000099007A99348FBF70BFB0A200790022079
:10583000089007A98F48FBF703FB90480094019458
:10584000029403940494059406948B498560016046
:10585000047304754FF460214760C1610121016147
:10586000FBF79CFB0120CDE900808DF815400290EC
:105870008DF81400CDF810A0CDF8189069467F4837
:105880000394FBF78BF90220CDE9006069467B4861
:10589000FBF784F90D20CDE9000A69467748FBF74C
:1058A0007DF9784900947648019408600846FBF732
:1058B000ADFC3C2000900220019000226946714816
:1058C000FBF776FC102269466E48FBF771FC1294D8
:1058D00014941094119413941794009416940194B2
:1058E00003940494059469480294069408940994D6
:1058F0000A940B940C940D940E9463490F94C0E990
:105900000014202181604FF4FA61C0E903150121E0
:10591000C0E90514FCF751FB5C48FCF7D5FD0620F7
:1059200010901020119010A95848FCF7E9FD16942A
:1059300016A956481794FCF71BFB6020CDE900041C
:105940000294039404940594002269464F480694F7
:10595000FCF792FC042269464C48FCF78DFC0822B7
:1059600069464A48FCF788FC7020009040F2CF70EE
:1059700001900C2269464548FCF77EFCA800089778
:10598000CDE909050E20CDE90B040D9408A93F4887
:105990000F94FCF765FA3D48FCF732FC3D4804944F
:1059A0000594069407940394009401940294089437
:1059B00037490994C0E900144FF6FF71C0E902416C
:1059C00004618461FCF7F9FA04A93248CDF810901B
:1059D000FCF754FB0094CDE9014869462D48039437
:1059E000FCF767FA5020CDE9080408A92948FCF71C
:1059F000BFFA2A48284901604FF4E131C0E9011497
:105A0000C460C0E904468461C461FCF7A4FDFDF7ED
:105A1000A9FC002202211220FBF7FEFD1220FBF759
:105A2000EBFD002211460B20FBF7F6FD0B20FBF7E8
:105A3000E3FD002203211D20FBF7EEFD1D20FBF7F7
:105A4000DBFD012203212720FBF7E6FD2720FBF7E2
:105A5000D3FD002203210620FBF7DEFD0620FBF725
:105A6000CBFDFEE7001002400000111000080140CD
:105A70000024014044060020002801407406002054
:105A800000740040A4060020002C0140B80600204D
:105A900000040040F80600200048004038070020BD
:105AA00038B431484FF00113836101218161836172
:105AB0008169009119044FF0000C8161C0F818C091
:105AC0008161826900928161C0F818C08161826938
:105AD0000092264A936101249461936193690224A0
