:020000040800F2
:10000000100E0020C9000008D100000821200008BF
:1000100000000000000000000000000000000000E0
:10002000000000000000000000000000D5000008F3
:100030000000000000000000D70000086940000830
:10004000DB00000800000000DB000008DB00000807
:10005000DB000008DB000008DB000008610300088B
:100060000000000031030008DB000008490300081D
:10007000DB00000895400008DB00000800000000DD
:10008000DD400008DB00000800000000DB00000885
:10009000DB000008DB000008DB000008DB000008D4
:1000A000DB000008DB000008DB00000869520008E4
:1000B000DB0000080348854600F090F80048004740
:1000C00029530008100E00200448804704480047C8
:1000D000FEE7FEE7FEE7FEE7FEE7FEE791400008E9
:1000E000B500000830B50B4601460020202201244F
:1000F00009E00D46D5409D4205D31D469540491B5C
:100100002546954040191546521E002DF1DC30BDA4
:1001100070B500242546002801DA01244042002958
:1001200001DA01254942FFF7DDFFAC4200D0404231
:10013000002C00D0494270BDF0B51FB40646002027
:1001400082B005464024019100901BE001992246AF
:100150000F46304600F020F8049A059B801A99411A
:1001600010D310461946224600F027F8361A8F4160
:100170000197224601200021009F00F01EF8381848
:100180004D4100902046641E0028DFDC019B009852
:100190002946324607B0F0BD10B5202A04DB0846D8
:1001A000203AD040002110BD0B46D340D04020243F
:1001B000A21A91400843194610BD10B5202A04DB4D
:1001C0000146203A9140002010BD914020239C1A06
:1001D0000346E3401943904010BD0000064C012542
:1001E000064E05E0E36807CC2B430C3C98471034DF
:1001F000B442F7D3FFF762FF9C5A0008BC5A0008CC
:1002000070B58C180578401C6B075B0F01D1037823
:10021000401C2A1106D10278401C03E006780E70BB
:10022000401C491C5B1EF9D12B0705D40023521E2C
:100230000DD40B70491CFAE70378401CCB1A921CB2
:1002400003E01D780D70491C5B1C521EF9D5A142BC
:10025000D8D3002070BD30B40AB203460846091452
:1002600014460D4654434D4364191D886D43A54201
:1002700015D2B225ED5C240E641B2406E40DE318B0
:100280009B885A43D417640CA218D21310465943C2
:10029000CA17520C5118C91380B20904084330BC64
:1002A0007047000010B53021095C002204F0E0FC2A
:1002B000012100B2C9034018C117C90E0818C002B5
:1002C0000149000C486310BD0020004010B40B48E9
:1002D0000121026A0A43026209490A4A0978891817
:1002E0000B68094A14780822A24093430B60016806
:1002F00001221143016010BC704700000020004043
:100300004C5A000818200040535A0008401820306A
:10031000007C7047490009183220085E7047401879
:100320002030027470474900081842867047000068
:1003300010B504490720486003F0F8FF04F026FCDC
:1003400010BD00000000024004480168C943890450
:1003500002D40121490341607047000000000240BF
:10036000054901204A69C003024204D010B5486122
:1003700004F019FE10BD7047000401407047816F02
:100380007222525C022A0AD14A6809699162816F1D
:100390008A6849699162816FCA688969916201219D
:1003A000603001750020704710B40021002810D083
:1003B0000178437800225918002B07D98418A478B3
:1003C000521C6118D2B289B29342F7D8080A401879
:1003D000C1B210BC08467047002141820175024637
:1003E000417580329175D17511765176FF309176D5
:1003F0000130C176017741777047002804D010B4EE
:10040000019C1EC010BC704770470022027011464C
:100410000C234B431B185A60491C9A60C9B2DA601E
:100420000529F5D37047000010B52621074A41433E
:100430008C182421095D002906D10549800008583F
:1004400003F094FCE083208210BD000064080020CB
:100450003406002070B526224243124B0021D218E8
:10046000118051809180D1809181D18111825182FE
:10047000D183D18211835183840091830A481184EE
:10048000005902F03BFD09480021005902F036FDF9
:100490000748005903F097FC0648005902F099FEFE
:1004A00070BD0000640800203C06002040060020CB
:1004B000340600204C06002070470000F0B50446CA
:1004C0000546C26A0F4680351A2085B0285E21464F
:1004D000403104910190497A002600294CD0916A5C
:1004E0002A8E914202D3E6813E803EE0E0810028E0
:1004F00018D0264988423DD02146C031C87901280C
:1005000012D0688DA885A288801A00B228858988B3
:10051000FFF7FEFDE8852046A0300390C078012853
:1005200004D016E03E8020E0EE85F4E70498427B9C
:100530002620015D8A4201D2019807E0E869FFF7B1
:10054000E7FD6A6B01461046FFF7E2FDA8840398B9
:10055000C6706278E1692420285E5143628B0A23C9
:1005600058435043FFF7D4FD38803946204603F006
:10057000CDFB06E0688EF7E7E1782170E681002088
:100580003E803988A18105B0F0BD0000FF7F0000EA
:1005900010B40E22825E0D4C04230146C35E8031EE
:1005A000A2420BD04C8DA4184C858C8DA4188C8540
:1005B000CC8D1419E31883800A8402E0098C591841
:1005C000818001460420085E10BC7047FF7F000058
:1005D00070B5C26AD1680224A143D16000210346EC
:1005E00040339972D97201255D7241821973597332
:1005F000997340331E46D98520339D703176D9706A
:100600000170338E93625162116829431160D16881
:100610002143D16000F094F870BD0000F0B50446AD
:10062000C56AC08A627887B050430104A08A274611
:1006300050434004000C0090A06AC037060C890C9F
:1006400003907E80002973D0062041433948FFF78C
:1006500049FD388080B27D217043C900FFF758FD05
:100660002646803630860004B063009870860621E6
:100670000398FFF737FD02460690608B0290014613
:100680001046FFF72FFDE1694843706306980A2181
:1006900048430099FFF726FDF063B9790298484373
:1006A000A18CFFF71FFD401EB8802146012040317C
:1006B0004872097A2A460B051F49183209789C4668
:1006C00089180A681D4B1F78F023BB401B4F9A43C3
:1006D00063463F781B0CBB401A430A60318EA96207
:1006E00069690143696100222A61296804239943E9
:1006F00019432960E96802231943E960E968014365
:10070000E9606A62296A0143296229680143296014
:100710002620015D0020002907D983001B19401CF9
:10072000B26BC0B21A658842F7D307B0F0BDFFE7DD
:1007300096208EE710270000725A0008795A0008A8
:10074000F0B42021826B0F5C0546A0359446066C00
:10075000046BC36B426C416B002F67461ED03F6930
:10076000BB4333D0002301277B4036699B00B24353
:100770002ED0002252001343226991432AD0002137
:100780000B43AB71A979072944D20A007A44127944
:10079000921897443F26302B3A2135003669B243F0
:1007A0000ED000223E699200B3430BD000235B00C1
:1007B0001A432369994307D000210A43AA71E1E74C
:1007C0000122EFE70123F2E70121F6E70123CAE75F
:1007D0000122CFE70121D3E7418C124A8918818099
:1007E0001BE0418C104A8918818016E0418C0F4A29
:1007F0008918818011E0418C0D4A891881800CE0B4
:10080000418C0C4A8918818007E0418C0A4A89187A
:10081000818002E0002249210A548188803041858C
:10082000F0BC704755150000FF3F0000AA6A0000A9
:100830005695FFFF01C0FFFFABEAFFFFF0B506468C
:100840004036717AC26A85B0002974D00546A03559
:100850000223A979EB5602930346203300931B78B9
:10086000002B036B2BD00193436B876B9E46036C6D
:10087000C46B9C46436C3F69BC4345D000240127B0
:100880007C40A70064462469A3433FD000235B005B
:100890001F43019B1C697346A34339D000231F43A8
:1008A000AF71AB7904468034072B72D21F007F44AE
:1008B0003F79FF19BF44A1406854912E7D000393F6
:1008C000436B0193076C846BBC46C76B436CBE469D
:1008D00067463F69BB4311D0002324699B007746DC
:1008E000A7430DD0002464002343039C2469019F87
:1008F000A74307D000242343AB71D2E70123ECE7E1
:100900000124F0E70124F6E70124B8E70123BEE75C
:100910000123C4E7042902D0012904D06FE001219A
:10092000A970418C57E00021C943A970438C7D49CF
:100930005918618563E0F2E0052902D0032907D048
:100940005DE00121A970438C76495918618556E014
:100950000021C943A970438C7349591861854EE041
:10096000012902D0022907D049E00121A970438C56
:100970006D495918618542E00021C943A970438C33
:10098000490C591861853AE0032903D0062908D09B
:1009900035E032E00121A970438C64495918618522
:1009A0002DE00021C943A970438C61495918618524
:1009B00025E0022902D0042907D020E00121A970F6
:1009C000438C5B495918618519E00021C943A9701E
:1009D000438C58495918618511E0062902D0052930
:1009E00006D00CE00121A970438C52495918F2E756
:1009F0000021C943A970418CEDE7002171720223E7
:100A0000EB5602998B4204D00021717321760121AB
:100A1000E970C721095C012901D1618D8180317B99
:100A200000291AD0737B009989798B4202D2717B9D
:100A3000491C7173516B8FB2916ABC468BB2B17B0A
:100A4000B77B09046144002F16D05B1C9BB259434D
:100A5000F37A002B06D000220CE0307B401C307370
:100A6000506B5CE0936A278EBB421CD2936A5B1C7E
:100A700093620122F27216E0B77A002F04D09B1C19
:100A80009AB2514300220DE05B1C9BB2552759439B
:100A90003F02BC4507D2936A002B04D0936A5B1EC9
:100AA00093620122B272E26B8A4203D91F486083CB
:100AB000002031E0237EE2699B001B181B6DD21AD7
:100AC000E261A26B8A4207D80223EB565A43237E87
:100AD0009B00181802650DE0227E92001218116525
:100AE000227E920012180220285648431065E269BF
:100AF0001018E061606BFFF7F5FA02216956484370
:100B00006083207E401CC0B220760099897988429B
:100B100001D1002020760120E8700020B073002071
:100B200005B0F0BDAA2A000055550000FF7F000067
:100B3000ABAAFFFF56D5FFFFF8B504462546403562
:100B4000697AC06A002932D0A97B491CA973816ADD
:100B50007D20C000491C41432046C03002884088A7
:100B60005043FFF7BFFAA97B80B281421FD3002612
:100B7000E6812046FFF7E4FDAE732E732146203157
:100B80008A790020002A0AD92246803287003F193C
:100B9000936B3B65401C8B79C0B28342F6D86E7371
:100BA0008034668326768979A06B4843E061002013
:100BB000F8BD0000F0B583B0002504462034009550
:100BC000227D012A39D001232375026896687607B1
:100BD0007CD4484F4E68BE4265D0966A0F78BB40C1
:100BE0001E4396620123C26A1B079A421FD0012A44
:100BF0001DD0022A1BD0032A19D0042A17D0052A97
:100C000015D0062A13D0072A11D002688B685669BE
:100C10007607760FB3420AD05369DB08DB005361D5
:100C2000006842690B7A5B075B0F1A4342610A68EE
:100C3000102A05D0112A03D051E0022003B0F0BDE4
:100C40002D488368102A07D0012292051343836040
:100C50000868102803D042E00122D205F6E72848B0
:100C600026490068FFF73EFA0A21484300900190A8
:100C700035D02449884237D8002812DDC007C00F7C
:100C800002D00099491E00910199401C491C8842DC
:100C900025DA009A801C521E521E00928842F8DB10
:100CA0001DE00020F0E7906A0E78B3409843906210
:100CB0000868102801D0112811D10F498A6810281E
:100CC00005D00120800582438A6008E002E001200F
:100CD000C005F8E7816B20221143816301250020C4
:100CE0002075284603B0F0BD0098401E0090FCD14E
:100CF000F5E70000011000000027014040420F000E
:100D000088060020FFFFFF7FF8B500260446002874
:100D100005D0A06B25462035002802D007E0012031
:100D2000F8BD0020E0632875204600F0A9F8A06B0C
:100D30001022C006002870DB2068816849076CD447
:100D4000A16B1301994302231943A16381688907A9
:100D5000890F012905D10168C9070FD1C1680904AC
:100D60000CD4C16818239943A3681943C160206853
:100D70000169636889008908194301612068C168B5
:100D80003D4B1940C160207E617E8003C90308434A
:100D9000A17E4B031843A36A012B02D001231B033E
:100DA00000E000231843E36818432369022B09D0AD
:100DB000002318432B79E57E5B0018430123012DA6
:100DC00002D00AE00423F4E7002927D0A16B2025F4
:100DD0002943A163E16B1943E163E1690D46FF3DDE
:100DE000C23D02D0256A294308432168CD680543E6
:100DF000CD600125E16A2D07A94213D0012911D048
:100E000002290FD003290DD004290BD0052909D0C0
:100E1000062907D0072905D010E028E001210904A0
:100E20000843DAE721684D69ED08ED004D6121685E
:100E30004D69A78D7F077F0F3D434D612168C968CC
:100E40000E4D2940814207D10020E063A06B80084D
:100E50008000401CA06308E0A06B0221884310437F
:100E6000A063E06B1843E06301263046F8BDA06B39
:100E70001043A063F8E700001902FEFFE7FF3F837D
:100E800070B586B000260546009601960296039638
:100E9000049600681A4988422FD11A498A69401578
:100EA00002438A618A69024005924A69000202434C
:100EB0004A614969014005911F200090032001907B
:100EC00009206946C00600F057F8104C0E486660CD
:100ED000A66020608020E0604000206180006061AA
:100EE0002020A0610002E061204600F011F80028F7
:100EF00001D0FFF743FA2C63656206B070BD0000B5
:100F00000024014000100240080002400C080020AC
:100F1000002801D10120704770B50446022120301D
:100F200005464170226811681048A3680140606856
:100F300026691843E3683343184363691843A36978
:100F40001843E369184308431060094920684018B2
:100F50001421FFF7C7F88000206400210548A16331
:100F6000E063012068702970084670BD0FC0FFFF64
:100F7000F8FFFDBF000002400B680022002B6FD07D
:100F8000F8B401270B6897403B406AD04C68022CAC
:100F900001D0122C0ED1D408A4002418A446246A2F
:100FA0005507ED0E0F26AE40B4430E69AE40264302
:100FB00064462662056856000324B440A446A5434F
:100FC0000C79A407A40FB4402C4304604C68012C96
:100FD00005D0022C03D0112C01D0122C0FD1856822
:100FE0006446A5432C46CD68B540254385604568D9
:100FF0000C79BD43E406E40F94402C434460C4687C
:101000006546AC438D68B5402543C5604C68E40037
:1010100049D5294CA56901263543A561A4699508E0
:1010200034400094254CAD002F19BC6895072E0F55
:101030000F25B540AC430925ED06A84201D1002596
:1010400011E01F4DA84201D101250CE01D4DA84221
:1010500001D1022507E01C4DA84203D1032502E07F
:1010600028E020E00525B5402543BD60174C2568E4
:101070004E689D43F60300D51D43256065684E68A4
:101080009D43B60300D51D436560A5684E689D432A
:10109000F60200D51D43A560E5684E689D43B60283
:1010A00000D51D43E5600B68521CD34000D068E7B3
:1010B000F8BC70477047000000100240000001407B
:1010C0000004004800080048000C004800040140EB
:1010D00001488068704700007C0600200248816853
:1010E00002788918816070477C06002010B5064898
:1010F0000168102211430160022000F007F800F09F
:1011000027F8002010BD00000020024070B5044602
:101110000D4D7D202978C000FEF7E4FF01460B4805
:101120000068FEF7DFFF00F0DDFB002809D1042C8A
:1011300007D200222146401E00F02AF800206C60F1
:1011400070BD012070BD00007C06002088060020D4
:10115000084881B081690122114381618169114090
:101160000091C26901040A43C261C069084000904D
:1011700001B0704700100240002805DBC106C90E0F
:1011800001208840014908607047000000E100E04C
:101190008207D30EFF229A408907090E9940002842
:1011A00008DB830809489B001818036893430B4326
:1011B000036070470007000F0838830804489B004D
:1011C0001B18D86990430843D861704700E400E0D9
:1011D00000ED00E0F8B504460068C0035BD539486F
:1011E0000027C069C00008D43648C26901040A4318
:1011F000C261C069084001270090334D2868C005CE
:1012000011D42868A91508432860FFF761FF064636
:101210002868C00507D4FFF75BFF801B642826D829
:101220002868C005F7D52748006A0321090208404D
:1012300023D062680A4082421FD0224E306A326A4E
:101240008843012109040A433262326A8A433262C6
:101250003062C00711D0FFF73BFF316A05468907AE
:101260000BD41A4EFFF734FF401BB04201D90320C4
:10127000F8BD1448006A8007F4D51248016A0322B9
:1012800012029143626811430162002F03D0C269C8
:1012900001048A43C2612078C00706D00948016B67
:1012A000A26889088900114301632078800606D569
:1012B0000448016B10229143E2681143016300204E
:1012C000F8BD0000001002400070004088130000CC
:1012D000002801D101207047F0B50546524889B079
:1012E00000680E46C007C00FB0420AD24E480168DF
:1012F00049084900314301600068C007C00FB0428F
:1013000051D12868494C81070CD5400704D5616844
:1013100007200002014361606068F0218843A968EA
:10132000084360602878C0072DD0686801281CD069
:10133000216802281DD0890735D561688908890090
:1013400001436160FFF7C4FE616807466A680C20CC
:1013500001409200914216D0FFF7BAFEC11B3448FB
:10136000814209D9032009B0F0BD216889031AD54B
:10137000E3E7890117D5E0E760680C210840696858
:1013800089008842E8D128480168C907C90FB142DD
:101390000CD9016849084900314301600068C00761
:1013A000C00FB04202D0012009B0F0BD287840073C
:1013B00006D56068072109028843E9680843606030
:1013C0001C4B6D460FCB0FC51B4B0FCB0FC5616878
:1013D0000C200A4602401948042A16D0082A14D1C3
:1013E0008A02120F6B469D5CE26A04AB1207120F71
:1013F0009A5CC90305D500231946FEF79DFE2946D0
:1014000001E028460E4903F066FF61680D4A0906AF
:10141000090F515CC8400C4908600220FFF776FEB6
:10142000002009B0F0BD0000002002400010024082
:1014300088130000E0140008F014000800127A007D
:1014400000093D005A5A0008880600200348016838
:101450000122D204114301607047000000100240D5
:1014600001480068704700008806002004480549CC
:1014700000684968044A4905490F515CC8407047F3
:1014800088060020001002406A5A000810B514A314
:101490000FCB88B06C460FC415A30FCB0FC4184AEE
:1014A00051680C200B4603401648042B16D0082B1D
:1014B00014D18B021B0F6C46E45CD26A04AB12079A
:1014C000120F9A5CC90305D500231946FEF734FEB6
:1014D000214601E020460C4903F0FDFE08B010BD96
:1014E00002030405060708090A0B0C0D0E0F101065
:1014F0000102030405060708090A0B0C0D0E0F1064
:101500000010024000127A0000093D00002801D1BD
:1015100001207047F8B504460078EE4DC0074ED064
:1015200068680007800F012807D068680007800FEF
:10153000022809D16868C00306D5286880033ED513
:10154000606800287ED03AE0616801291FD0012040
:101550008004002901D005291FD029680122120426
:10156000914329602968814329606068002818D068
:10157000FFF7AEFD06462868800320D4FFF7A8FDDC
:10158000801B64287AD828688003F7D517E028687C
:101590000121090408432860E7E72968014329601D
:1015A000F5E7FFF795FD06462868800307D5FFF7A6
:1015B0008FFD801B642861D828688003F7D42078C9
:1015C000800742D568680007800F07D06868000769
:1015D000800F022809D16868C00306D428688007F4
:1015E00018D5E06801282DD114E0E06800282868AB
:1015F00018D0012108432860FFF76AFD06462868D5
:10160000800707D4FFF764FD801B022836D82868BE
:101610008007F7D52868F82188432169C900084365
:10162000286012E0400840002860FFF751FD0646A0
:101630002868800709D5FFF74BFD801B02281DD8BD
:10164000286800E041E18007F5D42078000727D51D
:10165000E0690028686A12D0012108436862FFF738
:1016600037FD0646686A80071AD4FFF731FD801BF4
:10167000022803D8686A8007F7D511E08CE040089B
:1016800040006862FFF724FD0646686A800707D5B8
:10169000FFF71EFD801B02287ED8686A8007F7D4FA
:1016A0002078400768D500200090E869C00008D481
:1016B000E969012000070143E961E969014001206E
:1016C0000090854F3868C00511D43868B9150843B3
:1016D0003860FFF7FDFC06463868C00507D4FFF701
:1016E000F7FC801B642857D83868C005F7D5A06878
:1016F00001281ED0002801D005281ED0286A4008E5
:1017000040002862286A042188432862A068734E3A
:1017100000281BD0FFF7DCFC0746286A800723D48B
:10172000FFF7D6FCC01BB04260D8286A8007F7D507
:101730001AE0286A01210843E7E7286A04210843E0
:101740002862296A012001432962DFE7FFF7C0FC14
:101750000746286A800707D5FFF7BAFCC01BB042CE
:1017600044D8286A8007F7D40098002804D0E86994
:10177000012109078843E8612078C0061CD560690B
:10178000012835D0401D51D0686B0421084368639F
:10179000686B4008400000E028E06863FFF798FCB1
:1017A0000646686B800707D5FFF792FC801B02286E
:1017B0001CD8686B8007F7D4206A00286BD0696852
:1017C0000907890F02296BD001273F0602282868E4
:1017D00031D0B8432860FFF77BFC044628688001BD
:1017E00075D5FFF775FC001B022855D90320F8BDFD
:1017F000686B042108436863686B012108436863D0
:10180000FFF766FC0646686B800707D4FFF760FCAD
:10181000801B0228EAD8686B8007F7D5686BF8212F
:101820008843A169C90008436863C5E7696B042060
:1018300081436963F2E7B8432860FFF749FC064635
:101840002868800107D5FFF743FC801B0228CDD80C
:1018500028688001F7D4E86A0109E06A09010143B8
:10186000E962616AA06A084369683D2212049143F3
:1018700008436860286838432860FFF729FC04465D
:101880002868800123D4FFF723FC001B0228ADD871
:1018900028688001F7D51AE028688001A1D416E0F5
:1018A0000128A4D06868E96A01221204636A024030
:1018B0009A420AD10907E26A090F914205D10F2124
:1018C00089040840A16A884201D00120F8BD0020A7
:1018D000F8BD0000001002400070004088130000B6
:1018E000704700000B4910B4401E884202D910BC5A
:1018F000012070470849486108480722C3691B0254
:101900001B0A4C042343C361002088610A6110BC98
:1019100070470000FFFFFF0000E000E004ED00E082
:1019200010B5FFF7DDFF10BD034620331A7F012AF3
:1019300001D10220704710B401221A770324CA682B
:101940002402A2438C68006822430124A402A2431B
:101950004C6822430124E402A2430C682243012480
:101960002403A2430C69224301246403A2434C696B
:10197000C96922430124A403A2430A43426400200C
:10198000187710BC7047002801D101207047F0B5CE
:10199000054604462035687F87B00E46002803D1EF
:1019A0002877204600F04AF802206877211D206839
:1019B00002F0AEFBB36831680322206802F074FCC9
:1019C000206881690C229143816120688169726875
:1019D0001143816120684168802211434160206881
:1019E00081687027B9438160206881684022114373
:1019F000816020688168C908C900816020688168A9
:101A00000422114381600020059004900690039009
:101A100000970290F06801906946206802F004FC8B
:101A200020684168B94341602068416850221143F1
:101A3000416001206877002007B0F0BD70470000CA
:101A400002462032137F012B01D102207047F0B4EF
:101A5000012515770223537706687468B3687027E9
:101A6000BC430F68274377600068094CA04205D04B
:101A7000084CA04202D0084CA04204D180244968FE
:101A8000A34319438160557700201077F0BC70475D
:101A9000002C01400004004000400140002801D11A
:101AA0000120704770B5054604462035687F002840
:101AB00003D12877204600F00BF802206877211D1B
:101AC000206802F025FB01206877002070BD00002F
:101AD00000B587B00021009101910291039104911A
:101AE000154A0168154891421AD1C26902210A4378
:101AF000C261C2690A40059243694A0413434361C3
:101B0000406901911040059031200090032003901E
:101B10000120049069460A48FFF72EFA07B000BD7D
:101B2000084A9142FAD1C26989150A43C261C06963
:101B30000840059007B000BD0004004000100240BE
:101B40000004004800200040034620331A7F012A89
:101B500002D001221A7701E002207047F0B502227C
:101B60005A770568AC6877229443FF2212029443A7
:101B7000AC600E6870240725502E39D00CDC202E66
:101B800074D004DC002E71D0102E4ED18DE0302E9A
:101B90006CD0402E49D16AE0602E47D0702E17D00D
:101BA00001242403351B40D0A5423ED10468CF68F0
:101BB0008E684D68A16891433A022A4332430A4332
:101BC000A26000688168012292031143816072E083
:101BD0000468CF688E684D68A16891433A022A4331
:101BE00032430A43A26001688868772210431BE0F1
:101BF00002684F68CE68116ABE468C46116A490871
:101C0000490011629169F027B94336010E436146DC
:101C10000A27B94377463943966111620168502219
:101C20008868A04310432843886044E04E680268F7
:101C3000B646CE68116A1027B94311629169176AD6
:101C40003603BC460F273F03B9430E436746A02126
:101C50008F43714609013943966111620168602220
:101C60008868A04310432843886024E01DE0026890
:101C70004F68CE68116ABE468C46116A4908490011
:101C800011629169F027B94336010E4361460A2774
:101C9000B9437746394396611162016840228868EA
:101CA000A04310432843886005E001688868A0438A
:101CB0003043284388600120587700201877F0BD12
:101CC00030B587B0002100910191029103910491F8
:101CD0001D4D012203681D49920402241C48AB4299
:101CE00022D14B6913434B614B69134005934B69F8
:101CF000C20113434B614969032511400591072136
:101D00004903009101940294039504946946FFF7F6
:101D100033F90720000200900920019402946946DB
:101D200003950494C0060BE00A4DAB420AD14B69FF
:101D300013434B6149690094114005910194694630
:101D4000FFF71AF907B030BD002C01400010024027
:101D50000004004800200040F8B50646044620363E
:101D6000307F0D4601280CD001203077022070779B
:101D7000002A08D0042A19D0082A2CD00C2A71D1A4
:101D800071E00220F8BD206802F008FA206881693D
:101D90000822114381612068816904229143816195
:101DA000206881692A69114381619BE0206802F003
:101DB0003BFA206881690122D202114381612068C7
:101DC0008169521091438161206881692A691202F8
:101DD0001143816186E02068016AFF22013291434C
:101DE0000162076A4268C1697023994389082B68B8
:101DF00089000B43012149028F43A9680902394335
:101E00003B4FB84208D1C714B943EF683F020F43B4
:101E100001158F43394608E0364FB84205D0364F9A
:101E2000B84202D0354FB84208D103273F03BA4326
:101E30006F693F011743AA6912013A434260C361C7
:101E40006A68C26301622068C16908221143C161E6
:101E50002068C16904229143C1612068C1692A696F
:101E60001143C1613EE02068026A012109038A43EF
:101E70000262026A4168C76973231B029F432B6891
:101E80001B023B4301277F03BA43AF683F0317435D
:101E9000174A904208D0174A904205D0164A9042FD
:101EA00002D0164A904206D10A46012189038A438C
:101EB0006969890111434160C3616968016407620E
:101EC0002068C1690122D2021143C1612068C26940
:101ED000012189028A43C2612068C1692A6912020C
:101EE0001143C1610120707700203077F8BD0000F8
:101EF000002C0140004001400044014000480140E6
:101F0000002801D10120704770B5054604462035F0
:101F1000687F002803D12877204600F00BF80220C4
:101F20006877211D206802F0F3F80120687700200F
:101F300070BD00000068074981B0884207D106489B
:101F40008269C1140A43826180690840009001B02F
:101F500070470000002C014000100240002801D111
:101F60000120704710B50446406F002805D10021BC
:101F700070200155204600F027F824206067206873
:101F80000168490849000160204602F0FFFB012872
:101F900018D0606A002802D0204602F061FB206859
:101FA00041680122D2029143416020688168082281
:101FB000914381602068016801221143016020463D
:101FC00002F0B4FB10BD000000B587B00021009105
:101FD000019102910391049100680E49884217D142
:101FE0000D488269012189030A43826182690A409E
:101FF0000592426909010A4342614069084005901F
:10200000C02000900220019069460448FEF7B4FF0A
:1020100007B000BD00380140001002400004004835
:1020200002F074F9154C0825206AC069C043000706
:1020300006D4134802F0D4FC206A056202F0F0FFD7
:10204000206AC069C043000602D40D4802F062FD58
:10205000206AC169C9438906E6D4808CC1B20848A8
:1020600002F0C8FC0088012804D00228DCD102F06C
:10207000D7FFD9E702F0CEFFD6E70000EC0500203D
:10208000EC04002010B50446406801F0FDFEA16894
:102090000882000C488210BD10B50068012101F0D3
:1020A0005AFF10BD002839D010B50446007E012823
:1020B00033D1217B0020012904D0022910D003292B
:1020C00029D11EE0A168203108710121606801F06A
:1020D0000AFF0E21E28A615E606801F07EFE0CE07C
:1020E000A168203108710021606801F0FCFE102118
:1020F000E28A615E606801F070FE00280BD0022069
:102100000AE0A168012020310871A068618A01827B
:10211000A18A4182F3E70320207610BD7047012396
:102120000373C181C282037643767047022303732F
:102130000182C2820121017600214176704710B5EB
:10214000006801F0D8FE10BD10B5406801F0B3FE84
:1021500001F0C4FD10BD407E7047836819880846B1
:10216000598880B2090408437047836899880846F3
:10217000D98880B209040843704783689989084662
:10218000D98980B20904084370478368198A0846D0
:10219000598A80B2090408437047027B0021012A52
:1021A00001D10E21415E0846704710B5406801F02C
:1021B00074FE10BD10B5006801F0C6FE10BD816848
:1021C0001E20085E70478368598B0846998B80B241
:1021D0000904084370478368D98A0846198B80B27E
:1021E0000904084370478360426001600021017365
:1021F000C1810182C182017670470322027341824C
:10220000091481820121017600214176704782689C
:10221000518280688182704710B5044600680321AE
:1022200001F099FE002801D00121217610BD10B5E2
:102230000068072101F08FFE10BD10B5406801F065
:1022400056FE10BD01B2120C12048BB21A430D4B94
:10225000001459435843091808180B494042C01349
:10226000CB43884203DC1946884200DB01B290B2BE
:102270000A041043994203D1044980B20904084377
:1022800070470000E6490000FF7F00000180FFFF6B
:10229000F8B50546084600F053F829B22A140B4653
:1022A00006B20714154671437D43481B1449C513F4
:1022B0008D4201DD084603E01248854200DB28B26A
:1022C000250C2D0484B225430E4CA04203D12D0CC5
:1022D0000D482D0405437B4372439818C013884270
:1022E00004DCA04201DA214600E001B2A8B20A04EF
:1022F0001043A14203D1054980B209040843F8BD47
:10230000FF7F00000080FFFF018000000180FFFFD1
:1023100070B50546084600F013F8024629B203B22C
:1023200028140E46121405465E4355437519514351
:102330005843401AED13C113A8B20904084370BDF5
:102340000122D203821812040323920D1B021A40A9
:10235000012330B4DB03C11889040C0E6300FF2590
:102360002C1B1E496400002A1FD0FF3A521E29D0A0
:10237000FF3A521E0ED0FF3A012A09D10A5BC95A10
:1023800080B2120410434942000C000489B2084391
:1023900030BC7047CA5A80B21204095B1043000C6B
:1023A000000489B230BC08437047CA5A095B5242E4
:1023B00080B2120410434942000C000489B230BCC0
:1023C000084370470A5B80B252421204C95A104354
:1023D000000C000489B230BC08437047D65700088F
:1023E000FFB581B016460D460A9F0C9A0B9904461C
:1023F000056380300264416408480090084B094A34
:1024000021462846FDF7F9FF66630498E763A06359
:10241000204600F091FB05B0F0BD00002924000823
:1024200031240008312B000810B500F085FB10BDE9
:10243000FFB505468FB00F4600206946087478093D
:102440002E46803614460090002810D0421E0021EF
:10245000284602F0FCFD00281AD0FF06706CFF0E23
:10246000002804D0009A0021521E02F0F0FD132F24
:102470006FD238007844007900188744890DC5D49C
:102480006A6AD3D2D1D0CFCECDCC6A6A6A6A8900CB
:102490000B206946087536E32778052069460875DC
:1024A000472F57D02EDC0F2F40D00EDC0F2F70D2CD
:1024B00039007944097949188F445DA2A26CA2863B
:1024C00086868686868686868600172F7CD00CDCDC
:1024D0003846103807285CD2010079440979491838
:1024E0008F447D7D8E8E727272001D2F63D004DC4E
:1024F000182F69D01C2F4CD154E0412F64D0462FA7
:102500007ED16CE0652F5FD01EDC572F5CD00EDCD7
:10251000542F59D006DC482F61D04F2F54D0532F61
:102520006ED151E0552F4FD0562F69D14CE05B2F23
:1025300055D004DC582F47D0592F61D144E0612F8A
:1025400042D0642F5CD13FE038467438152857D20A
:1025500001E0D5E243E001007944097949188F444C
:10256000193E3E3E3E3E4F4F4F3E3E4F4F4F4F4F28
:102570004F4F33333300647839462246706C02F093
:1025800066FD22463946284602F061FD6946087418
:10259000B9E235E062783946284602F058FD6946CE
:1025A0000874B0E262780021706C02F04BFD0120EB
:1025B00069460874A7E262780121706C02F042FD5E
:1025C0000120694608749EE2A178607809024218E9
:1025D0003946284602F03BFD6946087493E2A1782B
:1025E000607809024018E1782279090412068918F6
:1025F00042183946284602F02AFD6946087482E2EC
:102600000220694608757EE2217803206A4610752B
:10261000892909D209E0CDE155E23DE22BE206E24B
:10262000DEE1B2E185E179E182E188007844406849
:102630008744000024020000B202000024020000CF
:1026400024020000B202000090020000900200008C
:102650009002000090020000900200009002000032
:102660009002000090020000900200009002000022
:102670009002000090020000900200009002000012
:102680009002000090020000900200009002000002
:1026900090020000900200009002000090020000F2
:1026A00090020000460200006C020000B20200002E
:1026B000900200009002000090020000240200003E
:1026C000D2040000D2040000D2040000D2040000B2
:1026D000D2040000D2040000D2040000D2040000A2
:1026E000D2040000D2040000D2040000D204000092
:1026F000D2040000D2040000D2040000D204000082
:10270000D2040000D2040000D2040000D204000071
:10271000D2040000D2040000D2040000D204000061
:10272000D2040000D2040000D2040000D204000051
:10273000D2040000D204000090020000D204000085
:10274000D2040000D2040000D2040000B202000053
:10275000B2020000B20200009002000090020000ED
:10276000900200009002000024020000B20200006B
:102770009002000090020000900200009002000011
:102780009002000090020000900200009002000001
:10279000900200009002000090020000240200005D
:1027A000B2020000D204000090020000900200007B
:1027B000900200009002000090020000D20400008D
:1027C000D2040000900200009002000024020000E9
:1027D00024020000B2020000B2020000B2020000B7
:1027E000B2020000B20200002402000090020000C9
:1027F00090020000B2020000D2040000900200002B
:102800009002000024020000B2020000B2020000A8
:10281000B2020000B2020000B2020000B2020000E8
:10282000B2020000B2020000B2020000B2020000D8
:10283000B202000024020000D204000024020000C2
:10284000D4020000D4020000D40200009002000074
:10285000900200009002000004AA284602F008FA44
:1028600000906846007C002857D001236C6B6A46B4
:10287000F021286BA04713B0F0BD706C002857D032
:10288000002102F0EAF96946087001236C6B6A4680
:10289000F021286BA04701206946087413B0F0BDF1
:1028A000706C002844D0012102F0D7F96946087005
:1028B00001236C6B6A46F021286BA0470120694612
:1028C000087420E104AA284602F0D2F90090684674
:1028D000007C002821D002236C6B6A46F021286B13
:1028E000A04713B0F0BD04AA284602F0C1F9009039
:1028F0006846007C002810D004236C6B6A46F021E7
:10290000286BA04713B0F0BD04AA284602F0B0F926
:1029100000906846007C0028EED1FEE02178072276
:1029200068460275284602F03FF901466846017480
:10293000E9E0002006A902460A54401CC0B2202843
:10294000FAD3002005E00B18401CC0B2DA701D2835
:1029500003D2326C125C092AF5D1326C411D535CF2
:1029600069460B76C11D525C69464A76316C093066
:10297000085C6946887620236C6B06AAF021286BD8
:10298000A047012069460874C1E0617920790902F5
:10299000401882B26178207809024018A178E37863
:1029A00009041B06C9184118284602F038F969467F
:1029B0000874A8E0617920790902401882B2617830
:1029C000207809024018A178E37809041B06C91889
:1029D000401801B2284602F036F96946087492E0C0
:1029E00001A80090217807AB06AA284602F0B6FAA3
:1029F00069461C20085E3C2148430A21FDF788FBFC
:102A00006946087202124A7202148A72000EC87273
:102A10008888087300124873088B8873000AC8738B
:102A200008236C6B02AAF021286BA0476BE0217A87
:102A3000E0790902401886B2A1786078090240184E
:102A4000E178227909041206891840180A214843BE
:102A500027783C21FDF75CFB03B2A179607909027C
:102A6000401800B2009032463946284602F090FBEA
:102A70006946087447E0617820780902401801B27D
:102A8000E278A0781202801802B2284602F0CEFA4C
:102A90000120694608743AE006946946129808775E
:102AA0000C200875214906A802F0DFF86946087471
:102AB000002828D01D486C6B03790268F021286B30
:102AC000A04713B0F0BD002006A904E00A54401C42
:102AD000C0B220280AD2326C125C002AF6D120281B
:102AE00004D20A54401CC0B22028FAD320230A463C
:102AF0006C6BF021286BA04701206946087406E042
:102B00000120694608756846007C002805D000232E
:102B10001A46F0216C6B286B04E001236C6B05AA4C
:102B2000FF21286BA04713B0F0BD00000C0000206F
:102B300010B500F001F810BD10B50446E16B006B54
:102B400088478021C8200155A16B206B884710BDA4
:102B500010B502480068FFF72DFB10BD04000020EF
:102B600006480078002807D010B500F009F801F0F9
:102B700005FD02F02FFA10BD704700002806002066
:102B800010B50D4C2078012815D16088002802D09E
:102B90006088401E02E001F045FC07206080A088AC
:102BA000002802D0A088401EA080E088002802D023
:102BB000E088401EE08010BD2806002010B50248C5
:102BC0000068FFF729FB10BD0400002010B5024883
:102BD0000068FFF72CFB10BD04000020F3B581B0A6
:102BE0004A4801F0B3F94A4E00244B493470494831
:102BF00008604B4849490160084600F055FC4948C7
:102C000000F072F9484847490160494D474828603B
:102C10004848FDF703FD281D0168464A286801F071
:102C200052F9454800F060F9444800F05DF9444825
:102C3000414901604348414901604348F06101F066
:102C400042F8434941480860FF300130F169414F83
:102C5000C7600161404800F017F940483E490160F3
:102C600040493F48086000F0A7FF0020FDF7F2FB55
:102C70003D4901200871286801F006F93882000CEE
:102C80007882286801F000F90014B882384F37487C
:102C90003860304B1D492A68FFF7A5FA286801F013
:102CA00002F93B68014600221846FFF738FA0198FE
:102CB00039680160281D01682E48016020490968B3
:102CC000416020490968C460816015490968446110
:102CD0000161C461174904628161296841620B493D
:102CE000816214390968C162F169446384630163D4
:102CF00017490968046444648464C4640465C16356
:102D0000029908600120307003B0F0BD5C0600201D
:102D1000280600203804002054060020E00100208E
:102D20004C0600202801002038060020AC010020BD
:102D3000340600205C0200205401002080010020A5
:102D40003C060020400600204C0300201400002018
:102D500050060020640800202403002048060020BC
:102D6000E003002058060020840800208C08002082
:102D700030060020A808002030B4C31DF9331A889B
:102D80000024520081521A885A80521C92B21A8032
:102D9000802A01D300221A8000225500455F521C70
:102DA0002C1992B2802AF8D3E017400E0019C011F6
:102DB000988030BC0846704700210A464B00491CE9
:102DC00089B2C2528029F9D3FF300130028042809B
:102DD0007047FF210531085E7047000008B5FEF717
:102DE0003FFB7D210901FDF77DF9FEF77BFD0749DA
:102DF0000748FFF7F3FE02F039FC0648034B00904A
:102E00001A1F0121044802F0DDF908BD0800002066
:102E100004000020B45700080000002010B504464C
:102E20000078002801D0002013E02620005D00F08B
:102E3000A1FD09490246884208D0208B238A014619
:102E4000401E43439818FDF74DF92082204600F0BC
:102E50002EF8E08280B210BDFFFF00000021018249
:102E600070470178002902D0808A00B27047018A39
:102E7000026A8A1A1E21415E808C5143CA17120CC5
:102E8000511809140818F0E710B504460078002816
:102E900004D00020E082608A208210BD201D00F056
:102EA00043FE262108552046FFF7D8FF10BD018AB2
:102EB000428B914201D908207047828B914201D206
:102EC00000207047C08A704701462220085E704784
:102ED00001460620085E7047408B7047014604207B
:102EE000085E7047008B7047018881804188C180EF
:102EF000018C41840021816081627047816070474C
:102F000041847047C180704781807047F0B40422CB
:102F1000825E062314251624C35E0026455F045FE7
:102F20004A43002B09D087684B43F91808D5002F76
:102F30000BDD002B09DD144907E0002181600DE065
:102F4000002F02DA002B00DA1049C3688B4202DB43
:102F500003698B4201DD836000E081608168877FC7
:102F60000B463B41077F3A419A18AA4202DDAE1A4E
:102F70002A4603E0A24201DAA61A22468919816094
:102F8000F0BC10B270470000FFFFFF7F010000801F
:102F900070B5C51DF935EA68044693891846D3898A
:102FA00080B21B041843D38A128B99B212041143C6
:102FB00002B20BB2001409145A4348431018C11747
:102FC000090C08180614286902F080F9A96848431A
:102FD0004B21C900FDF79CF80146304648430621C5
:102FE00048430A21FDF794F8C117090C0818011489
:102FF0002046FFF7C1FE70BDC169084770B50446A1
:10300000002640340546002902D0012908D015E0E9
:10301000284600F0DEF8608AA080002808D00DE085
:10302000A088002809D0401E0004000CA08005D113
:10303000296928468847012600E00126304670BDF0
:1030400042681047F0B404460AB24034268A091494
:103050007143038E49005A4349428B18DD0FEB1828
:103060008A1AD50FAA1805465B1052102035B608EB
:10307000002B43DA002A14DA0421A976991ACD1715
:10308000AD0B691889147518D117C90B8918491423
:103090004A19D917C90BC91849146B1A8387C587F0
:1030A00059E0002914DC0323AB768B1ADD17AD0B36
:1030B000EB189B14F518D317DB0B9A18CB17DB0B07
:1030C0005214591852194914531A8387C28713E0AE
:1030D0000222AA765A1AD517AD0BAA189214B5185F
:1030E000DA17D20BD2185214AB1ACA17D20B5118D6
:1030F0004914CA188287C387258043E0002A14DB5D
:103100000121A976991ACD17AD0B69188914751884
:10311000D117C90B891849144A19D917C90BC918ED
:10312000491482876B1AC5872BE0002915DC05221C
:10313000AA765A1AD517AD0BAA189214B518DA1731
:10314000D20BD2185214AB1ACA17D20B5118491409
:103150008587CA18C387228014E00023AB768B1AB8
:10316000DD17AD0BEB189B14F518D317DB0B9A1872
:10317000CB175214DB0B5219591849148587531A6F
:10318000C2872380A9B2418692B282869BB2C3864F
:10319000E589012D1AD10825655F002DA58A01DD7D
:1031A000491900E0491B41860A21615E0029A18A74
:1031B00001DD511800E0511A81860C21615E002961
:1031C000A18A01DD591800E0591AC1868169F0BC55
:1031D0000847816808470000F0B5002683B0C6653F
:1031E00006660546454F60354666AE74396A044644
:1031F0004348814339624349616043490420A161E6
:10320000E87401462046203002908176204600F086
:103210006DFAA06F23466030C27A2146723338318E
:1032200038460193009102F09DFA204600F00EFA14
:1032300036496160EE7402988676AE74204600F0DE
:1032400055FAA06F019B6030C27A3846009902F0AF
:1032500089FA204600F0FAF9029804218176E06D9F
:103260000109E165206E01092166606E0109616650
:103270002749616027492848A161817927480818B2
:10328000026827498B79082199408A4302600268C5
:103290008A43026002688A43026020464030818D82
:1032A0007963818DB963808DF8631B4801781B4871
:1032B000081802681A490B78082199400A430260ED
:1032C0001548817815480818026815498B78082137
:1032D00099400A43026010480179104808180268B2
:1032E0000F490B79082199400A430260386A044962
:1032F00008433862AE7503B0F0BD0000002C0140F9
:10330000550500001D340008D9350008693400084F
:1033100025330008F7350008855A0008182C0140AD
:103320008C5A0008F0B43A4B5A687024A2435A6091
:103330003A22384B165CDA680424A243DA60B20001
:103340001446836F34341C5924884C329A5815889B
:10335000314A5342062E4ED237007F443F79FF193F
:10336000BF44142F2F020214C66D341B9C4201DA95
:103370000B8004E0944201DD0A8000E00C80046EC2
:10338000641B9C4234DB94422EDC33E0066E341B1B
:103390009C4201DA4B8004E0944201DD4A8000E067
:1033A0004C80446E641B02254D5F2C19644294428C
:1033B00001DD0A801FE09C4201DA0B801BE00C80DB
:1033C00019E0C66D341B9C4201DA0B8004E0944284
:1033D00001DD0A8000E00C80446E641B00254D5F17
:1033E0002C196442944201DD4A8004E09C4201DAD7
:1033F0004B8000E04C800A88403002814A8842813C
:103400000A884988511849428181F0BC7047000000
:10341000002C014000240140FF7F000070B4114BDC
:1034200002466032D47C5D687026B5435D60937C53
:10343000102B12D2A3001C46856F34342C592488DB
:10344000C56D6419C465846F4C33E3581B88046EE2
:103450001B190366907C401C9074002008804880F3
:1034600070BC7047002C014070B40E4B02466032B5
:10347000D47C5D687026B5435D6000233A252B54EB
:10348000957C102D0AD2A400856F4C342C592488C9
:10349000456E64194466907C401C90740B804B8090
:1034A00070BC7047002C0140F8B439494B680422C5
:1034B00093434B600A604B68082293434B600A6059
:1034C000344B1A680124E40422431A608022324CEF
:1034D000D2432261E26880252A43E26002464032FC
:1034E000958D6D1E656201249D69A40525439D612E
:1034F0009B6923400093294BCC14DD682543DD6094
:103500008B681724A3434C0523438B608B68DB43F4
:10351000FCD58B68DB435B07F8D58B68DB43DB06A8
:10352000F4D58B68DB439B07F0D58B681C4C23409C
:103530005B1C8B600B68DB43DB07FBD11A4904463D
:103540000E781A4D174B6E3474510D78194E184C75
:10355000AC5103240E781D1D77593F0C3F042743BF
:10356000775109785D58012425435D500A494B681D
:103570007025AB434B600B158366002360304375A9
:103580000375C375D381086820430860F8BC704791
:103590000024014000100240002C0140005801406E
:1035A000E8FFFF7F00000240805A00080C00024044
:1035B000402401400800024060300021437D0A465B
:1035C000012B01D102214275037D012B02D1402341
:1035D000194302750846704710B5012189028166BA
:1035E00073210A5C3A210A546C21095A491E89B296
:1035F00000F064F910BDF8B502464032818F978D16
:10360000C68F7B1A9CB2836F4033DD8CAC4206D9E7
:1036100004233A210B54918D491E89B213E08E1B6D
:10362000B6B26400B44202D21A8D891A0AE069184F
:1036300089B28F4207D80123DB028366928D520044
:10364000511A491E89B200F039F9F8BDF0B4224987
:10365000CA6852085200CA60002242231A544B6CB6
:103660000124E403A3434B6404466034A37D012B8F
:103670000FD0836F7225ED5C022D0AD15D681B6946
:10368000AB62836F9D685B69AB62836FD8689B692F
:1036900083621348114B00781D580226B5431D5014
:1036A00010488568104F3D4010358560C5686D082D
:1036B0006D00C5605E6004230360C3683725AD01FB
:1036C000AB43C360E275321F0A610869C043C0079B
:1036D000FBD10A61F0BC7047002C014000000240A1
:1036E000805A000800240140E8FFFF7FF0B4024642
:1036F000002340329370012377242354938D36495D
:103700005B084B63938D5B088B63938D5B08CB6386
:10371000928D521F0A640124E4430C610A69D2436A
:10372000D207FBD10C614A6C01239B021A434A6405
:103730004A6C5B011A434A64826F72239B5C022BC2
:103740000ED10D6A254BAB435368126939D09A628A
:10375000826F936852699A62836FDA689B69936299
:10376000806F1F4B6030807A5A69D208D2000243C2
:103770005A611D4A1B48157846597608760046510D
:1037800002261578071DEF593F0C3F043743061DED
:10379000AF511678875901252F43875104261E60A3
:1037A000DF68BF08BF002F43DF6046601278835890
:1037B0000226334383500C61C8682843C860F0BCBC
:1037C00070479A61836F9A685B699361826FD3686F
:1037D00092699A61C4E70000002C01405505000081
:1037E0000024014000000240805A000870B4836E3B
:1037F0001C49CA680324A402A2431A43CA60CA68C7
:103800000B153724A401A2431A43CA600246203292
:103810001546927E846FA2186032127B9400CA68AB
:103820000426B2432243CA60AA7E846F92001C32EF
:10383000A2588A62826F4C696032927AE408E4008E
:1038400014434C61084C62687025AA432A436260A5
:103850008A68064C2240121D8A60836670BC46301E
:103860007047000000240140002C0140E8FFFF7F6A
:103870000123422210491354DA1E0A6100224A63CE
:103880008A63CA630A69D243D207FBD14A6C012317
:10389000DB031A434A64816F7222525C022A0AD106
:1038A0004A6809699161826F916852698A61816F82
:1038B000C868896981617047002C01400246806FA9
:1038C0000368508E5863908E9863D08ED8631964C5
:1038D00058684006400F00D00120118F012902D105
:1038E00001200021118770471D48062100780246FB
:1038F0004A431C49895C012931D1F0B41A4B042197
:1039000019608100194843581B68DC68A408A400AA
:10391000DC6043581B68DC683725AD01AC43DC60D4
:1039200044582368A4685D69ED08ED0025435D6196
:1039300043581D791E680123AC061F46AF403C4327
:103940006403640BB462405800688168084C2140ED
:10395000091D8160034810184370F0BC7047704720
:10396000620600202C09002000240140FC080020F1
:10397000E8FFFF7FF0B4062207465743444A002180
:10398000D55D13460424FB18002D24D106254D4394
:10399000565D012E0DD1AE187579854208D95D713D
:1039A000197106214D437071A9180871042100E0B6
:1039B0000C46491CC9B2042912D0E7D30121D155C4
:1039C00000215970334906250C786C43A2185278AF
:1039D000012A00D008703049C97D002911D053E078
:1039E000042C0BD0062161438D18697959711C7123
:1039F00006246143687189180871DFE7254908705A
:103A0000DCE7264A800011580968CC68A408A400A5
:103A1000CC6011580968CC683725AD01AC43CC6047
:103A200014582168A4684D69ED08ED0025434D61E7
:103A300011580D790E68AC060121A9400C436103B1
:103A4000490BB1621158042409680C6011580968C7
:103A50008C68134D2C40241D8C6010580068016840
:103A6000C9434907FBD4006C58800A480178890093
:103A7000515801220968CC68A408A4001443CC6002
:103A800059790170022058705888F0BC70470000C6
:103A90002C0900206206002040020020FC080020C3
:103AA000E8FFFF7F70B50C4CA078012812D1607838
:103AB000FFF760FFA08001460220A07065780748EC
:103AC000EA008358002B05D00026A6701018426823
:103AD0002846984770BD0000620600200C090020AF
:103AE00010B40E4906200A780D4B5043C018437895
:103AF000012B0ED193000B4AD25813681B6C4380E4
:103B00000223437012680123D468A408A4001C4354
:103B1000D4604079087010BC704700006206002035
:103B20002C090020FC08002070B40246FF201E4B28
:103B300000218C001C59002C32D026791579AE4218
:103B400005D124681568AC4201D108460421491CFE
:103B5000C9B20429EDD3042820D281005A50002391
:103B6000124CC100635011688C68E443E4070ED026
:103B70008C681725AC43ED072C438C6011688A686C
:103B8000D243FCD58A680A4C2240521C8A60062126
:103B9000084A4143535489184871087170BC7047F2
:103BA0000428D4D90846D2E7FC0800200C090020DC
:103BB000E8FFFF7F2C09002010B5002181604160E3
:103BC000C1600161012141611830FCF71EFC10BD8C
:103BD0004030007A70470C225143081880897047A2
:103BE0000C22514309180E20085E70470C225143E5
:103BF00009181020085E70470C2359430818828169
:103C000070470C2359430818C28170470C2359434D
:103C10000818028270470000F8B5054604462035B2
:103C2000A879FFF7A7FE1449074688421ED0697994
:103C3000206A490047520022268B1046002E07D9E1
:103C4000216A4300CB5A401C9A18C0B28642F8D869
:103C500031461046FCF746FAE080A7806879761E68
:103C6000B04201DA401C00E000206871204600F0FC
:103C700005F82081F8BD0000FFFF0000C188428BDD
:103C8000914201D902207047808B814201D20420E9
:103C900070470020704710B4418B828B038B8918CA
:103CA0004A080021002B07D94C00036A491C1A530B
:103CB000038B89B28B42F7D88280C28000212030EA
:103CC000417110BC704710B504460C30FFF72CFF53
:103CD000262108552046FFF7DEFF10BD01460C20C7
:103CE000085E704701460420085E704701461020B8
:103CF000085E704710B50C21415ECA03521A1421A8
:103D0000415E1046FCF704FA00B210BD70B4002307
:103D1000CE5E0125C4780278002E02DA714289B2A3
:103D200000E00988868A8E4200D20123C68A8E422C
:103D300000D901231221415E002902DA494289B2E9
:103D400000E0418A068B8E4201D3002B04D0A242B0
:103D500005D2521CD2B202E0A24200D20022A242FC
:103D600000D100250270284670BC704770B50178FC
:103D70000546002907D06C68E868012805D9AA69BA
:103D80001419401E06E0AC68F6E7012803D16888E4
:103D900004040020E860012905D0E017000C001998
:103DA0000014AC6070BDE017000C001906146869BF
:103DB000FFF794FF301A01B22869FFF7A7F8010452
:103DC0006C60A96070BD0178012905D110B500694A
:103DD0000021FFF793F810BD7047F8B5044600784E
:103DE000012617460D4600280DD06068C117090C42
:103DF000081800140090E08BA84215DB2420205EF8
:103E0000A84211DC12E0204600F057F80090E08C48
:103E1000A84205DA2820205E0026A84204DC27E01C
:103E20002820205EA84208DD002621E0208CA84240
:103E300003DD2220205EA842F6DB002F10D0658033
:103E4000A08B7D217843C900FCF74CF9401CE06051
:103E50000099691A0A0401461046FCF759F906E070
:103E600021782804012905D0A0600020E060A0612D
:103E70003046F8BD6060F8E710B504464069FFF7CA
:103E80002DFF0004606010BDC28D1146028E88B205
:103E9000110408437047C08B70474068C117090C74
:103EA00008180014704701462C20085E7047014630
:103EB0002420085E7047406970478068C117090C6C
:103EC000081800147047426101612A21095C0170E1
:103ED000818D09044160C18D090481600021418008
:103EE000C1608161704701700021C160704700218D
:103EF000C16081617047027800210B2A04D1092139
:103F000001700021818001210846704710B4448867
:103F100003780C439443448082880A4382800A2BAE
:103F200007D0002C02D00A2101700B4610BC1846A5
:103F30007047002CFAD10B2101700B46F6E78188FF
:103F400040880004084370470078704700210170E2
:103F500041808180704710B502780024152A73D201
:103F600013007B441B79DB189F440D142A2D4E5CF3
:103F70006164676A6E6E0A1B2025383D495544000E
:103F800000296DD060E003296AD0012968D00C298E
:103F900066D05DE0072963D00D2961D00E295FD07E
:103FA00052E00E295CD007295AD04DE00F2957D096
:103FB000072955D048E0022952D0072950D043E0C4
:103FC00007294DD040E007294AD0102948D00429BC
:103FD00046D0112944D0012942D035E011293FD0E3
:103FE00007293DD030E012293AD0072938D01429CA
:103FF00036D029E0122933D0072931D024E0042912
:104000002ED007292CD01FE0132929D0072927D02B
:10401000052925D018E0042922D0072920D0052918
:104020001ED011E006291BD0072919D00CE0072962
:1040300016D009E0082913D006E0092910D003E0C2
:1040400000290DD00C290BD0032907D0012905D058
:10405000072903D000228021FFF758FF204610BD1A
:1040600001240170FAE7000010B5084C20780228FE
:1040700005D1FDF733F8FDF753FC00202070C0B2E6
:10408000401C2070FEF76CFD10BD0000680600208B
:104090007047000010B5104CA06F00680169C9435B
:1040A000C90708D1C168C943C90704D1891E016184
:1040B0002046FFF79BFBA06F00680169C943090612
:1040C00009D4C168C943090605D48021C9430161E7
:1040D0000148FCF754F910BDE001002010B50B4C6D
:1040E000E06A0169C943C90704D1891E01612046FC
:1040F000FCF722FDE06A0169C943890705D4022162
:10410000C94301610148FCF799FB10BD5C02002026
:10411000F0B402681B4B1C4C984201D0A04203D162
:104120007025AA434D682A43184D194E194F9842DD
:104130000AD0A04208D0184CA04205D0A84203D013
:10414000B04201D0B84205D1144603221202944372
:10415000CA6822438024A2434C69224302608A68D1
:10416000C2620A688262984205D0A84203D0B04277
:1041700001D0B84201D10969016301214161F0BC5C
:1041800070470000002C0140000400400040014046
:10419000004401400048014000200040F0B4026AA1
:1041A000520852000262056A436882697024A24381
:1041B00092080C6892001443022295438A68174EB5
:1041C0002A43154DA84207D0B04205D0144FB8423B
:1041D00002D0144FB84206D10827BA43CF6817431C
:1041E000042297433A46A84207D0B04205D00C4D6E
:1041F000A84202D00B4DA84206D103252D02AB43A5
:104200004D691D438B692B43436084614968416359
:104210000262F0BC70470000002C014000400140E9
:10422000004401400048014070B4026A10239A43E0
:104230000262056A4268836973242402A3430C68FE
:1042400024021C4320239D438B681B012B43124DEA
:10425000A84208D11D46CB688026B5431B012B43DD
:104260004025AB4308E00D4DA84205D00C4DA842B7
:1042700002D00C4DA84208D10325AD02AA434D69D6
:10428000AD0015438A6992002A43426084614968FF
:104290008163036270BC7047002C01400040014004
:1042A000004401400048014070B4046A640864009E
:1042B00004628469056A0D4EB04205D00C4EB042CE
:1042C00002D00C4EB04202D1A408A40000E00122AA
:1042D0001443F02294431A07120E0A2322439D43EB
:1042E000194029438261016270BC7047002C014073
:1042F0000004004000400140034900208988002953
:1043000000D10120704700002806002010B50548A4
:104310000068FFF79BF9002280210348FFF7F6FDB4
:1043200010BD00004C0600205C060020F0B585B0F2
:10433000002004903348FCF72BF933480068FFF75E
:10434000BAFD0746FFF7CEFC019030486946006889
:10435000FEF776FEFFF7C8FA0098FDF773FF0290AC
:104360000199FDF795FF0446294D1020285E21B2E2
:10437000411A28480068FEF7C9FD06461220285E4B
:104380002114411A24480068FEF7C0FDB1B20004B0
:10439000014322480068FBF75EFF06463846FFF7F8
:1043A000A5FC30460199FDF7B3FF0746174839468B
:1043B0000068FEF747FE0390FFF792FB2A46D6827D
:1043C000300C1083684600882880684640886880E2
:1043D0000298A8800298911C000CE880AC81200C07
:1043E000E8810F83380C48830198288403980128BA
:1043F00004D1002201210A48FFF788FD049805B086
:10440000F0BD00005C020020340600204C060020B5
:10441000640800203C0600204006002054060020CE
:104420005C06002038B50020694608804D48FCF73E
:1044300045F804464C480068FEF7AAFD4B48FFF7D4
:1044400083FDC01E102817D201007944097949184C
:104450008F44073E435665798212121212121213CC
:10446000212D43480068FFF703FA142000F0E2F81A
:1044700010213E48FFF76FFD38BDFFF73DFF0028D4
:10448000FAD03B4800210068FEF7B8FD11213748FB
:10449000FFF761FD38BD364801210068FEF7AEFD2B
:1044A0000028F7D012213148FFF755FD38BD2D48BF
:1044B000FCF78EF804212D48FFF74DFD0028F5D0BC
:1044C0000020FBF7C7FF2A480068FFF70FF938BD47
:1044D00005212648FFF73FFD38BD0020FBF7ECFF24
:1044E0000020FBF7A1FF06212048FFF734FD2148FB
:1044F0000068FFF7C1FC20480068FDF7D3FD38BD18
:104500001D480068FDF7CEFD0020FBF78DFF002C55
:10451000F5D1002220211548FFF7F8FC38BD1448DA
:104520000068FFF793F80020FBF794FF0E4800683F
:10453000FEF742FC1920400100F082F808210B48E8
:10454000FFF709FD38BD00F081F80028FAD00921F5
:104550000648FFF700FD38BD00210448FFF7FBFCCB
:1045600038BD00005C020020500600205C060020E0
:104570004C06002034060020300600200548007854
:10458000012806D110B5002000F006F8FFF78AFADE
:1045900010BD704728060020F8B505461F48AE003C
:1045A000006800901E488059FEF738FC6A00694692
:1045B000895A084007461B488059FEF71DFD3843BD
:1045C0000446002D07D11848C069FFF725FB69464E
:1045D000098808400443E04382B206201349684337
:1045E000471821463846FFF791FC3846FFF7ACFCE8
:1045F0000A2806D00B2803D10A488059FEF7E9FDA6
:10460000F8BD08488059FEF7E4FD2846FBF722FF75
:1046100007488059FEF7D0FBF8BD0000D4570008CA
:10462000480600204C060020280600205C060020DA
:1046300050060020014988807047000028060020AD
:104640000149C88070470000280600200349002067
:10465000C988002900D101207047000028060020E9
:1046600010B4818CC90707D001684A6801235B0434
:104670009A43836A1A434A60818C890707D5016887
:104680004A6801231B049A43C36A1A434A60818C17
:10469000490707D501684A6801239B049A43036BC5
:1046A0001A434A60818C090707D501684A680123CB
:1046B000DB039A43436B1A434A60818CC90607D5D2
:1046C0000268916801231B039943836B194391602E
:1046D000818C890607D501688A6801235B039A43A8
:1046E000C36B1A438A60818C490612D503685A68E5
:1046F00001210905046C8A4322435A60026C8A42F4
:1047000007D10268516803235B059943436C194341
:104710005160818C090607D501684A680123DB04D2
:10472000806C9A4302434A6010BC7047F8B500257C
:104730000446C567FCF7CCFC074620680068124EAB
:10474000000709D501213B46002249052046009675
:1047500000F0DEF800280DD12068006840070BD576
:1047600001213B46002289052046009600F0D0F842
:10477000002801D00320F8BD20206067A0676034C6
:1047800025740020F8BD0000FFFFFF0170B504464E
:1047900080682169E2690843616900251143226844
:1047A00008431168524B1940014311602068416869
:1047B000032212039143E26811434160A169206A18
:1047C0002268084391680B231B02994301439160BF
:1047D00048492068884210D14748006B8007800F05
:1047E00011D0012805D0022805D003280AD10220C3
:1047F00009E0042007E0082005E04049884201D193
:10480000002000E010200122E169D2033C4E9142D9
:1048100038D1002806D002280ED0042814D0082849
:1048200060D11BE0FCF722FE616840004A08801856
:10483000FBF758FC80B219E06168324A48088018DA
:10484000FBF750FC80B211E0FCF720FE61684000ED
:104850004A088018FBF746FC80B207E06168012235
:10486000480812048018FBF73DFC80B2014610395D
:10487000B14237D8244901400007400F084321685E
:10488000C86030E0002806D002280DD0042813D0DC
:10489000082827D119E0FCF7E9FD61684A081018DB
:1048A000FBF720FC80B216E06168184A48088018BF
:1048B000FBF718FC80B20EE0FCF7E8FD61684A08DF
:1048C0001018FBF70FFC80B205E0616848088018FB
:1048D000FBF708FC80B201461039B14202D82168CA
:1048E000C86000E00125002020666066284670BD93
:1048F000F369FFFF0038014000100240004400400F
:10490000EFFF00000024F400F0FF000000127A0026
:10491000FFB50446006881B00D460A9EC16917467E
:104920002846884330D00020B8424BD12046603022
:104930000090701C3ED0FCF7CBFB0499401AB042AB
:1049400024D8002E22D020680168490732D5C069DA
:10495000C04300052ED401202168C00208622068EF
:104960000268FF21A1318A430260206881684908FA
:104970004900816020206067A067E06700990020FF
:104980000874032005B0F0BD0120CDE72068016860
:10499000FF22A132914301602068816849084900E3
:1049A000816020206067A0670099002008740320C0
:1049B00005B0F0BD2068C1692846884305D00020B5
:1049C000B842B6D0002005B0F0BD0120F8E70021C4
:1049D000FF3001300177704710B5FBF7FDFC10BDCB
:1049E00008B508216A4611700123FF2100F066F81E
:1049F00008BD0000F8B5C41DF934227F234E0746D8
:104A0000002A41D0627F05468035C9B2002A0BD00A
:104A1000012A0FD0AB7E99309B1C9A4213D21154BD
:104A2000607F401C60772FE06976388A7882184E64
:104A3000012006E0A97602206077A87E802823D393
:104A40000020607720E0E17600217982216A114E12
:104A50000A6820239A430A6000212177FBF7A4FC0F
:104A6000E17E884207D13A46BC68AB7E697E9B32C4
:104A70003868A04708E00A206946087001236A46A2
:104A8000FF21384600F01AF83046F8BD945A000865
:104A9000965A0008985A0008FF300130017F00291B
:104AA00001D0012070470021417701210177006A80
:104AB00001682022114301600220704770B505464D
:104AC0008035EC7D002C01D0012070BD01750446BD
:104AD000591E163406464375C9B2002B08D0137808
:104AE00023700B46491E521C641CC9B2002BF6D120
:104AF00030461430FBF758FCA875002028760120BA
:104B0000FF36E8750136306A016880221143016082
:104B1000022070BD30B403468033DA7D0146002A9E
:104B20001CD01A7E002A09D0012A09D04C7DA41C71
:104B3000A24207D20C461434125D04E00A7D02E062
:104B40004A7D00E09A7DC81DF930046A22854C7DBB
:104B50001A7EA41CA24203D2521C1A7630BC7047A3
:104B6000006A02688024A24302600020D8750868A9
:104B7000496830BC08478169002900D00847704760
:104B80004169002900D008477047000070B5054C06
:104B90000546A06800F004FAA84202D1A068FFF719
:104BA000EAFF70BD6C06002070B5026A2030007B01
:104BB0000124800015580F292ED20800784400796E
:104BC00000188744291915072A2A101D212529298B
:104BD000292915002846FDF7EDFA06281DD128469B
:104BE000FDF72BFB19E02846FDF7E4FA002803D077
:104BF0002846FDF71CFB10E02846FDF70DFB0CE0F6
:104C00002846FDF79CFA08E02846FDF745FA04E03F
:104C10002846FDF737FA00E00024204670BD70B545
:104C20001546026A2030007B8000145808460A218D
:104C300048433C21FBF76CFA01B22A462046FDF7B7
:104C40006EFA012070BD10B5036A2030007B800031
:104C50001858FDF76BFA012010BD03469A688920A9
:104C6000002A01D018461047704700207047000006
:104C7000F8B5064604462036436A307B256A800034
:104C80001B582D580020002A01D001271770232916
:104C900072D018DC232945D20E007E443679B6192D
:104CA000B74445494D7F515A5E627A9EA0A2A4A99D
:104CB000ADB1404040404040404040666BB5B9BE59
:104CC0006FFEFD40FC0030296FD00DDC24390C292B
:104CD00028D20F007F443F79FF19BF44EAE9E8E199
:104CE000E0E7E6E5E4E3E2B46E296DD00EDC4029AE
:104CF00072D006DC3D2970D03E296FD03F2911D1FA
:104D0000DEE0412972D05B290CD14FE072290DD031
:104D100004DC6F295CD0702904D13BE0732905D0F5
:104D2000812903D0002A01D000211170F8BD20464E
:104D300000F036F9F8BD986AFFF701F9F8BD986AF6
:104D4000FFF702F9F8BD2846FDF72FFA3C2148434A
:104D50000A21FBF7DDF9F8BD1868FEF7BFF8F8BDCA
:104D60001868FEF7B5F8F8BD1868FEF7ADF8F8BD9D
:104D7000186B00F0ABFAF8BDC3E0D86AFEF771F823
:104D8000F8BD2846FDF7E0F93C2148430A21FBF72E
:104D9000BFF9F8BD7048F8BD2846FDF7F6F900B236
:104DA000F8BD2846FDF7D7F9F8BD64E02846FDF7C1
:104DB000D2F90128C7D12846FDF7EFF93C21484335
:104DC0000A21FBF7A5F9F8BD1868FEF78BF8F8BDC6
:104DD0001868FEF781F8F8BD7BE026E02CE005E0DE
:104DE000586809E058680BE058680DE02846FDF760
:104DF000CCF90014EFE79868FEF770F8EBE79868D5
:104E0000FEF766F8E7E79868FEF75EF8E3E7D86B29
:104E1000FDF7DFFFDFE700212046FFF71EFFDAE79F
:104E200001212046FFF719FFD5E72269002AD2D0D9
:104E3000002120469047CEE72269002ACBD00121ED
:104E400020469047C7E7327BA16A92008A5800212A
:104E5000140F022C01D0012C00D199691201120FFC
:104E6000022A01D0012A00D1D9690029B3D008460D
:104E7000FEF738FFAFE7327BA16A92008A58002123
:104E8000140F022C01D0012C00D199691201120FCC
:104E9000022A01D0012A00D1D9690BE02AE025E0DD
:104EA00020E054E04FE04AE045E040E03BE036E0FF
:104EB00031E02BE000298ED00846FEF71BFF8AE781
:104EC000586AFEF7E8FF3C2148430A21FBF70AF93C
:104ED00081E7586AFEF7EBFF3C2148430A21FBF7C4
:104EE00017F978E72846FDF748F90DE02846FDF761
:104EF00044F90EE05969002984D00846FEF768FE9F
:104F000069E72846FDF729F900B264E72846FDF76E
:104F100024F900145FE72846FDF727F9F4E728464F
:104F2000FDF723F9F5E72846FDF72FF9ECE72846CA
:104F3000FDF72BF9EDE72846FDF74DF9E4E72846A4
:104F4000FDF749F9E5E72846FDF73DF9DCE7284696
:104F5000FDF739F9DDE700007A84A634FFB5416A30
:104F60002030007B81B080000858012544690A9FE9
:104F70001E46002C10D020460299FEF72CFE039905
:104F8000088020460299FEF72BFE308020460299C9
:104F9000FEF72CFE388000E00025284605B0F0BD65
:104FA0002030007B704710B5FDF7D2FD002802D0FD
:104FB000FDF70CFE10BDFDF701FE10BD10B4019C05
:104FC00001774362026200222C210A54846210BCE1
:104FD0007047000009484188002902D04188491ED5
:104FE00041808188012902D98188491E81800188F8
:104FF000012902D90188491E018070476C060020F2
:105000000246137F01208B4201D8002070472032D6
:105010001173704701494F20888070476C0600204B
:1050200001490020888070476C06002010B5046A92
:105030002030007B89B28000120420581143FDF714
:10504000DCF810BD4368002B00D018477047F8B556
:1050500015460246036A2030007B012680001F5857
:10506000536A2CB218580A2967D00BDC0A2919D2C6
:105070000B007B441B79DB189F4417141438142948
:105080002E334F5A0E2974D006DC0B295AD00C2926
:105090005DD00D2906D164E00F296FD0412972D06F
:1050A0005B2908D000263046F8BDE9B21046FFF76C
:1050B000A7FF0646F7E728460A2148433C21FBF7AD
:1050C00027F801B200223846FDF729F8EBE700681F
:1050D0002146FDF719FFE6E700682146FDF712FFBC
:1050E000E1E700682146FDF70BFFDCE72806000E2C
:1050F00007D13846FDF763F8014600223846FDF730
:1051000015F8E8B20128CED13846FDF74EF8014631
:1051100000223846FDF703F8C5E73846FDF735F8B5
:10512000010C0904A0B201433846FDF766F8BAE75E
:1051300040682146FDF7E8FEB5E740682146FDF7E7
:10514000E1FEB0E740682146FDF7DAFEABE73846FE
:10515000FDF71BF881B2200401433846FDF74DF8F6
:10516000A1E780682146FDF7CFFE9CE701E005E05E
:1051700009E080682146FDF7C5FE94E78068214676
:10518000FDF7BEFE8FE721463846FDF740F88AE777
:10519000F8B50E46416A2030007B1C468000085856
:1051A000069D476931463846FEF726FD22463146C0
:1051B0003846FEF726FD2A4631463846FEF726FDDC
:1051C0000120F8BDFFB50646204C83B01E48204D97
:1051D000A0608ECD8EC08ECD8EC08ECD8EC000963E
:1051E0003038303D069B059A0499FFF7E7FEA0682A
:1051F000FFF7C6FC23220021A068FFF723FF24222B
:105200000121A068FFF71EFF1248E0608ECD8EC01E
:105210008ECD8EC02ECD2EC00F48FFF7DDFBA168CE
:105220000C9A0E480292019100900D4B0D4A0A49CA
:10523000E068FDF7D5F80096069B059A0499E068AA
:10524000FFF7BCFE07B0F0BDA40300206C060020F1
:105250007403002044090020EC040020CF4900081A
:10526000994A0008BD4A000810B5164C206AC16969
:10527000C94389060FD4808CC1B21348FFF7BAFB2B
:105280000088012802D0022803D004E0FFF7C2FE04
:1052900001E0FFF7C5FE206AC069C043000602D4E2
:1052A0000948FFF737FC206AC069C043000707D4EC
:1052B0000548FFF795FB206A08210162FFF7B0FE61
:1052C00010BD0000EC050020EC040020C1884088DF
:1052D0004843000C7047F0B4040C8BB2264682B2EF
:1052E0005E430D0C1046370C5843360480190021DC
:1052F000794116466E43370C3604801979412646AB
:105300006E438919F0BC704702E008C8121F08C13B
:10531000002AFAD170477047002001E001C1121F36
:10532000002AFBD17047000094B0FBF7DFFE002499
:105330000F94112000900B9401201094019005907F
:10534000039410200D9406900494129402200E945D
:1053500008901394C00302940990079400010C94E0
:105360000A9011946846FCF7D1F807200C900220AF
:105370000D900E9401210F940CA8FBF7A9FF0120BA
:105380001090129410A8FBF725FFFCF75FF8A748D0
:10539000039404944069012189050843A3494861A5
:1053A00048690121890508400590A048416901200C
:1053B00040049E4A01435161516901400591516980
:1053C000400001435161516901400591C0100090B6
:1053D000974801900220029009206946C006FBF719
:1053E000CBFD9248406901210843904948614869D2
:1053F0009149C007C00F009401948E480294086040
:105400000846446020268460C660012008610427A5
:1054100008464761047644768476C4767501C46193
:105420000562864801210171084683498862084661
:10543000FBF76AFCA80001900120029000946946E5
:105440007D48FBF7B7FB0120009069467A48FBF7DF
:10545000B1FB0220009069467748FBF7ABFB0320C5
:10546000009069467448FBF7A5FB694672480097AF
:10547000FBF7A0FB109400941194019403940494FE
:10548000059402940694089409940A946D480B9428
:105490000C940D940E940F948660694944600160E9
:1054A000AE1069490661C160012184614161FCF768
:1054B00027FD702710A9634810971194FCF7C0FAD4
:1054C00060200594019400900294039404940022B7
:1054D000694606945B48FCF73FFC0422694659483C
:1054E000FCF73AFC082269465648FCF735FC574859
:1054F00001900C22694600975248FCF72DFC0A9651
:105500006F000897092609950C940D9408A94D4839
:105510000B960F94FCF708FA4A48FCF7D1FB049469
:1055200005940694079403944A48009401940294C5
:1055300008940994446046498460016004614649C6
:105540008461C160FCF7AAFAA800049004A941484C
:10555000FCF7FAFA0094019469463E4802960394D7
:10556000FCF711FA5020089008A909943948FCF773
:1055700067FA009401943A480294039404940594C1
:105580000694446084600461C760344984610160AA
:10559000FCF784FA3248FCF7B3FC602000900294D8
:1055A00000226946019504942D48FCF7D5FB2C4850
:1055B000FCF786FB2C482B4901608460E121C46024
:1055C0004902046141608461C46104620C21446247
:1055D0004161FCF7C3FCFDF701FC002211460D20E0
:1055E000FBF7D6FD0D20FBF7C7FD002201210920A6
:1055F000FBF7CEFD0920FBF7BFFD002203211020A1
:10560000FBF7C6FD1020FBF7B7FD002203211B208E
:10561000FBF7BEFD1B20FBF7AFFD00220321072097
:10562000FBF7B6FD0720FBF7A7FDFEE700100240E1
:1056300000001110002401408C060020AC06002060
:10564000002C0140CC060020DC050000DB0500003A
:10565000000400400C070020FFFF00000020004075
:105660004C070020003801408C07002018B40821A6
:105670000920364AC006C261C161C261C169009198
:105680000421121FC261C161C261C169009102217E
:10569000921EC261C161C261C16900912C4901229F
:1056A000C161C261C161C26900922A4A1023C2610C
:1056B000C361C261C3690093274C0123E161E361C7
:1056C000E161E16900911021E261E161E261E1697A
:1056D0000091224A2021E261E16111462246D16116
:1056E000D16900911E491A02C161C261C161C169DB
:1056F0000091520081214902C161C261C161C16949
:1057000000915201052189032346D961DA61D961EB
:10571000D9690091121141218902C161C261C1613F
:10572000C069009051010320C003D861D9611946B6
:10573000C861C869D100009098131A46D061D16140
:10574000D061D069009018BC7047000008000100CB
:1057500001000100100001000004004820000100C9
:1057600000010100F0B4046870252C400126602C73
:1057700018D0521C520854010225ED4305611F78D0
:105780000022102F0CD20769FF43BF070DD405611B
:10579000521C92B2A24208D31878102800D20E8070
:1057A000F0BC704754012034E6E71F78102FEAD38D
:1057B000F0BC70475354204D432053444B09566569
:1057C000722E352E342E3300000000000000000041
:1057D000000000000E000000C90092015B022403DB
:1057E000ED03B6047F0548061107D907A2086A0928
:1057F000330AFB0AC40B8C0C540D1C0EE30EAB0FCA
:1058000072103A110112C8128F1355141C15E215AB
:10581000A8166E173318F918BE19821A471B0B1CED
:10582000CF1C931D571E1A1FDD1F9F2061212322AD
:10583000E522A62367242825E825A8266727262809
:10584000E528A329612A1F2BDC2B992C552D112E1D
:10585000CC2E872F4130FB30B5316E322633DF330B
:1058600096344D350436BA366F372438D9388C39EA
:10587000403AF23AA53B563C073DB83D683E173FDB
:10588000C53F73402141CE417A422543D0437A44FB
:105890002445CD4575461C47C34769480F49B4495F
:1058A000584AFB4A9D4B3F4CE04C814D204EBF4E29
:1058B0005D4FFB4F97503351CE51685202539B536B
:1058C0003254C9546055F5558A561D57B057425841
:1058D000D3586459F359825A0F5B9C5B285CB35CC4
:1058E0003E5DC75D4F5ED75E5D5FE35F6860EB6006
:1058F0006E61F0617162F1627063EE636C64E86422
:105900006365DD655666CF664667BC673268A66824
:1059100019698B69FD696D6ADC6A4A6BB76B236C28
:105920008E6CF86C616DC96D306E966EFB6E5E6F3D
:10593000C16F22708370E27040719D71F971547271
:10594000AE7207735E73B5730A745F74B2740475D4
:105950005575A575F37541768D76D87622776B7778
:10596000B377FA773F788478C77809794A79897963
:10597000C879057A417A7C7AB67AEE7A267B5C7BA6
:10598000917BC57BF87B297C597C887CB67CE37C49
:105990000E7D397D627D897DB07DD57DFA7D1D7E50
:1059A0003E7E5F7E7E7E9C7EB97ED57EEF7E097FC9
:1059B000217F377F4D7F617F747F867F977FA67FB2
:1059C000B47FC17FCD7FD87FE17FE97FF07FF57F16
:1059D000F97FFD7FFE7F0000002C014000000000E9
:1059E00000000000000000000000000000000000B7
:1059F0000000000006000000050000000500000097
:105A00000300000003000000060000004E0200201A
:105A10004E02002050020020500200204E020020C2
:105A20005002002050020020500200204E020020B0
:105A30004E020020500200204E02002013008D0074
:105A40006D000101000001010001010000000000E3
:105A5000040404000008000000080000000000002A
:105A6000000001020304060708090000000001020B
:105A70000304000000000404040000080000000803
:105A8000081C304458000000000404040000080012
:105A9000000008000000010002000000BC5A0008DD
:105AA000000000208C06000000020008645C000872
:105AB0008C0600208407000018530008227002FFA3
:105AC00010011994B51501A4400696235E3E2009E5
:105AD000A2C1FF5E3EA2C110130104D208951801B5
