:020000040800F2
:10000000E00C0020450100084D010008C52400084F
:1000100051010008530100085501000800000000CC
:100020000000000000000000000000005701000870
:1000300059010008000000005B010008D9420008D7
:100040005F0100085F0100085F0100085F01000810
:100050005F0100085F0100085F0100085F01000800
:100060005F0100085F010008A50200085F010008A9
:100070005F0100085F0100085F0100085F010008E0
:100080005F0100085F010008E50100085F0100084A
:100090005F0100085F0100085F0100085F010008C0
:1000A00049430008714300085F0100085F01000830
:1000B000894300085F0100085F0100085F01000834
:1000C0005F0100085F0100085F0100085F01000890
:1000D0005F0100085F0100085F0100081D53000870
:1000E0005F0100085F0100085F0100085F01000870
:1000F0005F0100085F0100085F0100085F01000860
:100100005F0100085F0100085F0100085F0100084F
:100110005F0100085F0100085F0100085F0100083F
:100120005F0100085F0100085F0100085F0100082F
:10013000DFF80CD000F018F800480047B153000871
:10014000E00C00200648804706480047FEE7FEE72F
:10015000FEE7FEE7FEE7FEE7FEE7FEE7FEE7FEE777
:100160000143000831010008064C074D06E0E06835
:1001700040F0010394E8070098471034AC42F6D3EE
:10018000FFF7DAFFE05B0008005C000870B58C1830
:1001900010F8015B15F0070301D110F8013B2A119B
:1001A00006D110F8012B03E010F8016B01F8016B88
:1001B0005B1EF9D12B0705D40023521E0DD401F884
:1001C000013BFAE710F8013BCB1A921C03E013F84D
:1001D000015B01F8015B521EF9D5A142D8D3002082
:1001E00070BD00000348016821F00C01016004F0BB
:1001F00031BA00000024014070B5044600688168EF
:1002000011F0010F20D0816821F00101816001F01F
:10021000DFF805462068806810F0010F14D000BF99
:1002200001F0D6F8401B022809D9A06A40F010005E
:10023000A062E06A40F00100E062012070BD206829
:10024000806810F0010FEBD1002070BD10B40246A1
:100250000FFA81FC08460CFB0CF40B1403FB034162
:10026000148864438C4224BF10BC704792F8B2409B
:10027000C4EB1161C9B202EB41018A8810BC0CFBCE
:1002800002F14FEAE17C01EB5C41C91361F30F001D
:1002900003FB02F1CA1701EB5241C91361F31F407E
:1002A000704700000448016811F0100F08BF704744
:1002B0001021016004F0EABE1404014070470021DF
:1002C00090B14378017800221944002B09D900EB42
:1002D000020C521C9CF802C0D2B2614489B2934213
:1002E000F5D801EB1120C1B20846704700214182C8
:1002F0000175417580F8961080F8971080F8981075
:1003000080F8991080F89A1080F81B1180F81C1161
:1003100080F81D117047DDF800C0002818BF80E884
:100320000E10704700EB400101EB001210B50849B8
:1003300001EB420494F82410002918BF10BD0549B0
:1003400051F8200003F05AFEE083208210BD000027
:10035000640700208405002010B5044600EB44002B
:1003600000EB04121248002100EB42021148116018
:100370005160D1601161D183C2F81610C2F81A1011
:10038000118450F8240002F06AFF0B48002150F855
:10039000240002F064FF094850F8240003F05CFEDA
:1003A000074850F82400BDE8104003F0E5B800000D
:1003B000640700208C0500209005002084050020A3
:1003C0009C050020704770B50D460446B0F99A10A0
:1003D00090F84930C26A0020002B53D0926AB4F8DA
:1003E000B0309A4224BFE081288045D2E1810A00E2
:1003F00041D0A1F5FE43FF3B08BFB4F8B2003AD0AC
:1004000094F8C720012A08BFA4F8AE000ED0B4F8B3
:10041000AA20A4F8AC20A388D21A12B2A4F8A8206B
:10042000B4F8C43092FBF3F2A4F8AE2094F8A32001
:10043000012A14D194F84D3094F82620934238BF05
:10044000A4F8A41009D3D4F89C1091FBF2F2D4F8CC
:10045000B41091FBF2F1A4F8A41084F8A300B4F94D
:10046000A400618B00EB8000400048436278E169A2
:10047000514390FBF1F028802946204603F08EFD81
:10048000014604E0E2782270E0810021288028887B
:10049000A081084670BDB0F90E10B0F90420A1F596
:1004A000FE43FF3B11D0B0F8AA300B44A0F8AA30AD
:1004B000B0F8AC300B44A0F8AC30B0F8AE300B4420
:1004C0001A448280A0F8A01003E0B0F8A0101144F4
:1004D0008180B0F904007047C26AD16821F002013E
:1004E000D160002180F84A1080F84B10012380F879
:1004F0004930418280F84C1080F84D1080F84E1041
:10050000A0F8AE1080F8A23080F8981080F8A31000
:100510000170B0F8B03093625162116841F001018E
:100520001160D16841F00201D16000F09FB8000075
:1005300070B4C38A4278B0F814C053430CFB02F283
:1005400092B24FF6FF7C0CEA4202D0F828C01B049E
:10055000C16A4FEA1C449B0CA0F8C24008BF962316
:1005600006D003EB43035B0042F21075B5FBF3F3D7
:10057000A0F8C0309BB263434FF47A7493FBF4F35A
:10058000A0F8B0301B04C0F8B830354BA0F8B2204A
:10059000A3FB0CC3B0F81AC09B08B3FBFCF403EB3D
:1005A00083035B00B3FBF2F2C5696C43C0F8B4404F
:1005B000C0F8BC2090F8C620838C0CFB02F2B2FB82
:1005C000F3F2521EA0F8C420012280F8492090F8CE
:1005D000482001F1180C1305224A1278624414686D
:1005E000DFF884C0F0269CF800509CF800C006FAA2
:1005F00005F51B0CAC4303FA0CF323431360B0F86E
:10060000B0208A624A6942F001024A6100220A610E
:100610000B6843F004030B60CB6843F00203CB602C
:10062000CB6843F00103CB604A620A6A42F00102E0
:100630000A620A6842F001020A6090F8262000214E
:10064000002A9CBF70BC704700EB810C491CD0F89D
:10065000B830C9B2CCF850308A42F5D870BC704777
:10066000ABAAAAAABC5B0008C35B000870B4D0E9BF
:1006700010310D0AD0E90E210C0AD0E90C1C90F8BB
:1006800020604FEA1C2CE6B1926824EA02021204B0
:10069000120C0CBF0122002282F0010294009A6821
:1006A00025EA02021204120C0CBF0122002244EAC5
:1006B000420289682CEA01010904090C1AD00021C0
:1006C00019E09B6825EA03031B041B0C14BF0023DD
:1006D00001239B00926824EA02021204120C0CBF50
:1006E0000122002243EA420289682CEA010109043E
:1006F000090CE4D10121114380F8A610C9B20729E1
:1007000026D2DFE801F0250A151020041B00418CD9
:1007100041F25552114481801DE0418C43F6FF7235
:100720001144818017E0418C46F6AA22114403E06F
:10073000418CA1F5D441AA3981800CE0418CA1F50E
:100740007C51FF39F8E7418CA1F5A8515539F3E701
:10075000002180F849108188A0F8AA1070BC704769
:100760002DE9F00790F84910C26A002900F07A815B
:1007700090F8A61090F9A25090F8203043B3D0E939
:100780000E3C4FEA1C2C9B682CEA03031B041B0C39
:100790000CBF0123002383F001039C00D0E9103C2F
:1007A0004FEA1C2C9B682CEA03031B041B0C0CBF98
:1007B0000123002344EA4304D0E90CC31B0ADCF8FC
:1007C00008C023EA0C031B041B0C26D0002325E0E1
:1007D000D0E9103C4FEA1C2C9B682CEA03031B0455
:1007E0001B0C14BF002301239C00D0E90E3C4FEAF0
:1007F0001C2C9B682CEA03031B041B0C0CBF01235D
:10080000002344EA4304D0E90C3C4FEA1C2C9B68CB
:100810002CEA03031B041B0CD8D10123234380F8CB
:10082000A63003F0FF094FF0FF34660C012342F6B7
:10083000AA2745F255584FF0000CB9F1070F67D2BF
:10084000DFE809F06613312255044200042908BF8D
:1008500080F8A2305AD001295CD180F8A240418CA6
:1008600001EB0701A0F8AA1054E0052902D00329E2
:1008700005D04FE080F8A230418C3944F2E780F88F
:10088000A240418C4144EDE7012902D0022905D064
:1008900040E080F8A230418C4144E3E780F8A24078
:1008A000418C3144DEE7032902D0062905D031E02E
:1008B00080F8A230418C3144D4E780F8A240418CCA
:1008C000A1F5AA415539CDE7022902D0042907D064
:1008D00020E080F8A230418CA1F5AA415539C1E74A
:1008E00080F8A240418CA1F52851AA39BAE706291F
:1008F00005D0052908BF80F8A24007D00AE080F89B
:10090000A230418CA1F52851AA39ABE7418CA9E767
:1009100080F849C090F9A210A94205D080F84DC0D6
:1009200080F898C080F8A33090F8C710012904BF60
:10093000B0F8AA10818090F84C1001B390F84D10D7
:1009400090F82640A14204D290F84D10491C80F83E
:100950004D10516B8CB2916A90F84E5089B290F85C
:100960004E7004EB0545E7B1491C89B290F84B4045
:100970006943002C18BF80F84BC007D027E090F8DF
:100980004C10491C80F84C10506B6BE0946AB0F826
:10099000B050AC421BD2946A641C946280F84B3015
:1009A00015E090F84A702FB1891C89B2694380F82C
:1009B0004AC00CE0491C89B26943B4F5AA4F06D27B
:1009C000946A24B1946A641E946280F84A30D0F824
:1009D000BC208A4284BFA0F89A6080F8A3C03FD8A8
:1009E00090F89840D0F89C2000EB8404246D121BF2
:1009F000C0F89C20D0F8B820914208D390F9A240CA
:100A0000624390F8984000EB8404226511E090F86E
:100A1000982000EB8202116590F8982090F9A2408E
:100A200000EB82024C431465D0F89C202244C0F8AD
:100A30009C20D0F8B420B2FBF1F190F9A2205143F0
:100A4000A0F89A1090F89810491CC9B280F8981034
:100A500090F82620914208BF80F898C080F8A33013
:100A600080F84EC0BDE8F0070020704770B504461E
:100A7000C16A90F8490000283BD094F84E00401C11
:100A800084F84E00886A4FF47A71401C4843B4F8E9
:100A9000C010B4F8C2205143B1FBF0F094F84E10EE
:100AA00080B2814225D30025E5812046FFF7DEFD97
:100AB00084F84E5084F84C5094F8261000200029F9
:100AC0000BD900BF04EB8002D4F8B8101165401CAC
:100AD00094F82610C0B28142F4D884F84D50A4F89E
:100AE0009A5084F89850D4F8B800C9B24843C4F872
:100AF0009C00002070BD000070B483B00022029200
:100B000090F824301446012B01BF022003B070BCC2
:100B10007047012380F824308368FBB1D1F804C00A
:100B20000B691F259C452DD81E05A3EB0C03C3F1B3
:100B30000303D1F800C003EB83030CFA03FC05FAAE
:100B400003F343F440150368A6F5801646EA0C0C3F
:100B50009E6B26EA05054CEA050C21E04B68012B4B
:100B600005D0826A42F02002826201221AE0036804
:100B7000D3F838C00D686FF3150C4CEAC53CC3F8C8
:100B800038C00FE0A3EB0C03C3F1030303EB8303B3
:100B900005FA03F343F4401C03689D6B25EA0C0C33
:100BA000C3F838C00368D3F808C01CF0010F03D0A5
:100BB0004B7D012B16D01EE0D3F808C02CF00105A8
:100BC000A3F1804CBCF59E3CD1F818C025F4E0455B
:100BD00004BFBCF5C04F4FF4804C45EA0C0CC3F881
:100BE00008C0E5E78B69B3F5E04F08D0826A42F0B0
:100BF0002002826201220B7D012B08D00EE00368E7
:100C0000D3F804C04CF4806CC3F804C0F3E74B7D08
:100C1000CBB1826A42F02002826201220B68056831
:100C20004FF0070C0A2B16D3EE680A3B03EB430385
:100C30000CFA03FC26EA0C0C8E6806FA03F34CEA65
:100C40000303EB6014E00368D3F804C04CF4805C49
:100C5000C3F804C0E2E72E6903EB43030CFA03FC7C
:100C600026EA0C0C8E6806FA03F34CEA03032B61A8
:100C70000B68102B18BF112B06D10368D3F808C0DE
:100C80004CF4000CC3F808C04B68012B13D0022BA6
:100C90001CD0032B036824D0D3F820C0CD686FF399
:100CA0000B0C4CEA050CC3F820C00B68102B18BFC6
:100CB000112B20D02AE00368D3F814C0CD686FF35D
:100CC0000B0C4CEA050CC3F814C0EEE70368D3F82C
:100CD00018C0CD686FF30B0C4CEA050CC3F818C0B4
:100CE000E3E7D3F81CC0CD686FF30B0C4CEA050C9E
:100CF000C3F81CC0D9E70368A3F1804CBCF5923C53
:100D00000AD0816A41F020018162012280F82440EA
:100D100003B0104670BC7047D3F808C01CF4000F35
:100D2000F4D1D3F808C04CF4000CC3F808C009682B
:100D30001029EBD11749184B0968B1FBF3F101EB0E
:100D40008101490002910091E0D0B1F1004F1BD226
:100D50000029D8BF002105DD11F0010102D0029B5E
:100D60005B1E0293009B491C5B1C9942CEDA00BFBC
:100D7000DDF808C0891CACF1010CACF1010CCDF818
:100D800008C09942F4DBC1E70299491E0291FCD1E7
:100D9000BCE70000D005002040420F0070B483B0D3
:100DA0004FF0000CCDF808C090F824206446012ACA
:100DB00001BF022003B070BC7047012280F82420DC
:100DC0004A681F23072A0DD205686E6B521E02EB7C
:100DD0008202934026EA03030E6806FA02F21A43DF
:100DE0006A631BE005680D2A0CD22E6BD21F02EB42
:100DF0008202934026EA03030E6806FA02F21A43BF
:100E00002A630BE0EE6A0D3A02EB8202934026EA77
:100E100003030E6806FA02F21A43EA620A6807251B
:100E200003680A2A0CD3DE680A3A02EB42029540B4
:100E300026EA05058E6806FA02F22A43DA600AE01D
:100E40001E6902EB4202954026EA05058E6806FA05
:100E500002F22A431A610A68102A18BF112A0BD11C
:100E60000268A2F18043B3F592330BD0816A41F05E
:100E7000200181624FF0010C80F8244003B06046ED
:100E800070BC7047936813F4000FF5D1936843F476
:100E90000003936009681029EED11549154A0968C5
:100EA000B1FBF2F101EB8101490002910091E3D025
:100EB000B1F1004F16D20029D8BF002105DD11F095
:100EC000010102D0029A521E0292009A491C521C41
:100ED0009142D1DA029B891C5B1E5B1E02939142F8
:100EE000F8DBC9E70299491E0291FCD1C4E7000072
:100EF000D005002040420F002DE9F04104004FF0E2
:100F0000000604BF0120BDE8F081A06A002528B9D1
:100F1000E56284F82450204600F090F82046FFF760
:100F20006BF90146A06A10F0100F08BF002904D029
:100F3000A06A40F01000A06276E0A06A20F4885019
:100F400040F00200A0622268A2F18040B0F59E301D
:100F5000E06904BFB0F5402F4FF4002094F80CC0B6
:100F600040EA4C03606843EA0003A068B0F5807F64
:100F700016BF01284FF480700020277D012F0ED16D
:100F8000BCF1000F21D0D4F828C04CF0200CC4F8DC
:100F900028C0D4F82CC04CF0010CC4F82CC0D2F8F6
:100FA00004C02CF4694C4CEA000050602068826850
:100FB000DFF87CC002EA0C021A438260A068B0F538
:100FC000807F18BF01280FD109E01A4FD4F818C04C
:100FD00007EB4C3C4CEA000040F40060DFE7208A5D
:100FE0004FEA0050A0F580162068C26A22F4700211
:100FF00042EA0602C262206880680F4A00EA0200E4
:10100000984207D1E562A06A20F0020040F001009A
:10101000A0620AE0A06A20F0020040F01000A06286
:10102000E06A40F00100E06201210846BDE8F0817D
:10103000FDF7E1FF00E0FFFFFE0E1FFF70B586B079
:1010400000250095019502950395026806463249F0
:1010500070200324314BA2F1804CBCF5923C1ED091
:10106000A2F1804CBCF5943C1CBF06B070BD8A69EF
:1010700042F480628A618A6902F4806204928A6919
:1010800042F004028A618969CDE9000401F004019B
:1010900004916946184600F099F806B070BD8A6957
:1010A00042F400728A618A6902F4007204928A69C9
:1010B00042F004028A618A6902F0040204928A6999
:1010C00042F008028A618969CDE9000401F0080153
:1010D00004916946184600F079F800946946104872
:1010E000019400F073F8104C0E48C4E90005801517
:1010F000A560C4E90350800060612020C4E90605B2
:10110000204600F013F8002818BFFFF7D7F8346224
:10111000666206B070BD0000001002400008014089
:10112000000C014008000240F4060020002804BF23
:10113000012070471F4B01681F4A994208D21F4B7C
:101140000B44A2FB03321209920002641C4A07E01E
:101150001C4B0B44A2FB03321209920002641A4A90
:10116000C26310B4022280F821200A68D0E9013C51
:1011700043EA0C03D0E903C44CEA040C43EA0C0331
:10118000D0F814C06FF30D1243EA0C03D0F818C066
:1011900043EA0C03D0F81CC043EA0C031A430A606C
:1011A00000218163012280F8212080F8201010BCEA
:1011B0000846704708040240CDCCCCCCF8FFFDBFF8
:1011C00000000240F8FBFDBF0004024000230A6853
:1011D0009C46002A08BF70472DE9F84F784EDFF88B
:1011E000DC914FF001080F2706F1040E0A6808FA97
:1011F00003F42240A2427CD14D68A5F1805AAAF5A1
:10120000881A4D4500F0C98074DC032D08BF4FF0EB
:10121000000C1BD00DDC002D6DD0012D08BFD1F8C6
:101220000CC013D0022D04BFD1F80CC00CF1080C77
:101230000CE0112D04BFD1F80CC00CF1040C05D04A
:10124000122D04BFD1F80CC00CF10C0CB2F5807F4C
:1012500034BF0546051D4FEA830428BF203CD5F85E
:1012600000A007FA04FB2AEA0B0A0CFA04F44AEA83
:1012700004042C604C6814F0805F74D0514CA56954
:1012800045F00105A561A46904F00104009423F070
:10129000030404F1804505F58035D5F808A04FEA30
:1012A00083744FEA147407FA04FB2AEA0B0AA0F1CC
:1012B000804BBBF5843B2CD0A0F1804BBBF5863B2B
:1012C00008BF4FF0010B24D0A0F1804BBBF5883B49
:1012D00008BF4FF0020B1CD0A0F1804BBBF58A3B3E
:1012E00008BF4FF0030B14D0A0F1804BBBF58C3B33
:1012F00002E038E03EE050E008BF4FF0040B08D0B9
:10130000A0F1804BBBF58E3B0CBF4FF0050B4FF0AF
:10131000060B0BFA04F444EA0A04AC604C6814F4BB
:10132000803F346814BF1443944334604C6814F411
:10133000003FDEF8004014BF14439443CEF8004051
:101340004C6814F4801F204C256814BF1543954346
:1013500025604C6814F4001F1C4C256814BF2A43F8
:1013600025EA020222600A685B1CDA407FF43EAF85
:10137000BDE8F88FBAF5881F0FD007DCBAF5803FBB
:1013800018BFBAF5801F7FF461AF06E0BAF5001F01
:1013900018BFBAF5041F7FF459AFD1F808C0BCF1EB
:1013A000000F08BF4FF0040C3FF450AFBCF1010F29
:1013B0004FF0080C0CBF0461446147E700001110B6
:1013C0000004014000100240080401400C040140E8
:1013D0000148806870470000C40500200248816809
:1013E0000278114481607047C4050020074810B599
:1013F000016841F010010160032000F08DF8042025
:1014000000F006F800F024F8002010BD0020024093
:1014100070B50D4D04464FF47A712878B1FBF0F0A9
:101420000A490968B1FBF0F000F04EFC48B9102CF5
:1014300007D200222146501E00F03CF800206C60CC
:1014400070BD012070BD0000C4050020D005002043
:101450000E4808B5816941F001018161816901F09F
:1014600001010091C16941F08051C161C06900F082
:1014700080500090042000F04FF80548416821F0AA
:10148000E06141F00071416008BD000000100240C1
:10149000000001400028B8BF704700F01F01012282
:1014A00002FA01F14009800000F1E020C0F80011CB
:1014B00070470000174B10B41B68C3F30223C3F13D
:1014C000070CBCF1040F88BF4FF0040C1C1D072C47
:1014D00034BF0023DB1E012404FA0CFCACF1010C28
:1014E0000CEA0101994004FA03F35B1E1A40114310
:1014F00000284FEA0111A1BF00F1E02080F800149C
:1015000010BC704700F00F0000F1E02080F8141DBF
:1015100010BC70470CED00E0074900F007000A68B6
:101520004FF6FF031A4042EA002040F0FD7040F001
:1015300080600860704700000CED00E02DE9F84382
:1015400004460078DFF8148110F0010F6AD0D8F853
:101550001C00002710F0805F0BD1D8F81C0040F071
:101560008050C8F81C00D8F81C00012700F08050FB
:1015700000903B4E306810F4807F14D1306840F406
:1015800080703060FFF724FF0546306810F4807FDC
:1015900009D100BFFFF71CFF401B64282BD830681F
:1015A00010F4807FF6D0D8F8200010F440702AD0D4
:1015B000A18801F44071814225D0D8F82000012291
:1015C00020F440712748026000220260C8F8201011
:1015D00011F0010F17D0FFF7FBFE0546D8F82000E9
:1015E00010F0020F08BF41F288360CD1FFF7F0FE71
:1015F000401BB04202D90320BDE8F883D8F8200090
:1016000010F0020FF2D0D8F82000616820F440708A
:101610000843C8F820002FB1D8F81C0020F08050F3
:10162000C8F81C00207810F0020F07D0D8F804008A
:10163000A16820F440400843C8F80400207810F066
:10164000100F07D0D8F80400616920F48000084327
:10165000C8F804000020BDE8F88300000010024034
:101660000070004040044242002804BF012070473F
:101670002DE9F043DFF89081054685B0D8F80000E9
:101680000E4600F00700B0420CD2D8F8000020F05F
:1016900007003043C8F80000D8F8000000F0070049
:1016A000B04265D12868594C10F0020F14D010F0E8
:1016B000040F03D0606840F4E0606060287810F0A8
:1016C000080F03D0606840F4605060606068A968EB
:1016D00020F0F00008436060287810F0010F34D04B
:1016E0006868012821D02168022823D011F0020F58
:1016F0003ED0616821F0030108436060FFF768FE97
:1017000007466068696800F00C00B0EB810F18BFF5
:1017100041F2883919D000BFFFF75AFEC01B484577
:101720000CD905B00320BDE8F083216811F4003F17
:10173000DFD11DE011F0007FDBD119E0606869683E
:1017400000F00C00B0EB810FE6D1D8F8000000F0FB
:101750000700B04210D9D8F8000020F0070030434D
:10176000C8F80000D8F8000000F00700B04203D02D
:1017700005B00120BDE8F083287810F0040F05D0F3
:101780006068E96820F4E06008436060287810F041
:10179000080F06D06068296920F4605040EAC10053
:1017A00060601B490FC98DE80F001A48006804905B
:1017B0006168194801F00C02042A14D0082A12D1D9
:1017C000C1F3834211F4803F1DF8020004BF1349A6
:1017D000484308D0616804AAC1F34041515C0E4AF5
:1017E0005043B0FBF1F061680D4AC1F30311515C45
:1017F000C8400C4908600C480068FFF709FE05B0B6
:101800000020BDE8F08300000020024000100240EC
:10181000DC180008EC18000800127A0000093D00EE
:10182000A45B0008D0050020C80500200149012064
:10183000C8647047000042420148006870470000D9
:10184000D00500200448054900684968044AC1F3EE
:101850000221515CC8407047D005002000100240B2
:10186000B45B00080448054900684968044AC1F3AC
:10187000C221515CC8407047D005002000100240D2
:10188000B45B000815A186B00FC98DE80F0017A042
:10189000174A006804905168164801F00C03042BA5
:1018A00004BF06B07047082B1CBF06B07047C1F3D9
:1018B000834311F4803F1DF8030001BF0E494843E4
:1018C00006B07047516804AAC1F34041515C094A0F
:1018D00006B05043B0FBF1F070470000020304056E
:1018E000060708090A0B0C0D0E0F1010010200006C
:1018F0000010024000127A0000093D00002804BFD9
:10190000012070472DE9F84F04460078E84D10F0AB
:10191000010F59D0686800F00C00042808D06868EE
:1019200000F00C0008280CD1686810F4803F08D043
:10193000286810F4003F47D06068002800F0B281AA
:1019400042E06068B0F5803F04BF286840F4803012
:101950000AD010B1B0F5A02F11D0286820F4803043
:101960002860286820F4802028606068D0B1FFF7E4
:101970002FFD0646286810F4003F08D024E02868B0
:1019800040F480202860286840F48030ECE7FFF7BE
:101990001FFD801B642800F23681286810F4003F88
:1019A000F5D011E0FFF714FD0646286810F4003F5B
:1019B0000AD000BFFFF70CFD801B642800F22381D2
:1019C000286810F4003FF5D12078BA4E10F0020FCD
:1019D0004FF0010B4FF0000845D0686810F00C0F75
:1019E00014D0686800F00C00082804BF686810F480
:1019F000803F0BD0206918B3C6F800B0FFF7E8FCB1
:101A00000746286810F0020F09D011E0286810F08E
:101A1000020F1CBF206901280AD000F043B9FFF76C
:101A2000D7FCC01B02287DD8286810F0020FF6D022
:101A30002868616920F0F80040EAC100286012E0DF
:101A4000C6F80080FFF7C4FC0746286810F0020FB4
:101A500009D000BFFFF7BCFCC01B022862D8286871
:101A600010F0020FF6D1207810F0080F35D0924810
:101A7000A169F9B1C0F800B0FFF7AAFC0746686A8F
:101A800010F0020F09D100BFFFF7A2FCC01B022813
:101A900048D8686A10F0020FF6D0884801684FF401
:101AA000FA50B1FBF0F0009000BF0098411E009189
:101AB000FAD212E0C0F80080FFF78AFC0746686A95
:101AC00010F0020F09D000BFFFF782FCC01B0228F4
:101AD00028D8686A10F0020FF6D1207810F0040FB1
:101AE00079D0E8694FF0000A10F0805F09D1E86909
:101AF00040F08050E861E8694FF0010A00F0805042
:101B00000090DFF8BC91D9F8000010F4807F19D163
:101B1000D9F8000040F48070C9F80000FFF758FCC5
:101B2000074600E06FE0D9F8000010F4807F09D18B
:101B3000FFF74EFCC01B642865D8D9F8000010F4EC
:101B4000807FF5D0E068012804BF286A40F00100DA
:101B500009D008B1052813D0286A20F001002862B6
:101B6000286A20F004002862E06841F28837D0B18A
:101B7000FFF72EFC8146286A10F0020F08D023E000
:101B8000286A40F004002862286A40F00100EAE771
:101B9000FFF71EFCA0EB0900B84234D8286A10F009
:101BA000020FF5D010E0FFF713FC8146286A10F011
:101BB000020F09D0FFF70CFCA0EB0900B84222D8B5
:101BC000286A10F0020FF5D1BAF1000F03D0E869CE
:101BD00020F08050E861E069F0B3696801F00C0121
:101BE000082950D00228C6F860800FD0FFF7F0FB1C
:101BF0000446286810F0007F57D000BFFFF7E8FBCD
:101C0000001B02283AD90320BDE8F88FFFF7E0FB5C
:101C10000746286810F0007F09D000BFFFF7D8FB07
:101C2000C01B0228EFD8286810F0007FF6D1206A88
:101C3000B0F5803F05D16868A16820F40030084302
:101C40006860D4E908010843696821F47411084305
:101C50006860C6F860B000E027E0FFF7B9FB044613
:101C6000286810F0007F20D1FFF7B2FB001B02288C
:101C7000C9D8286810F0007FF6D016E0286810F068
:101C8000007FBBD111E0012808BFBDE8F88F68686C
:101C9000226A00F48031914204D1616A00F470102C
:101CA000884202D00120BDE8F88F0020BDE8F88FFF
:101CB000001002400000424280044242D005002051
:101CC0000070004070470000411EB1F1807F24BFCA
:101CD000012070474FF0E0204161054AF02182F871
:101CE000141D00218161072101610020704700005F
:101CF0000FE000E010B5FFF7E5FF10BD90F83C20C5
:101D0000012A04BF02207047012280F83C20CA68E3
:101D10008B6822F440721A434B6822F480621A43A3
:101D20000B6822F400621A430B6922F480521A43B2
:101D30004B6922F400521A43C96922F480421143CC
:101D400002685164002180F83C1008467047002862
:101D500004BF0120704770B5044690F83D0088B07C
:101D60000E46002520B984F83C50204600F04DF87E
:101D7000022084F83D00211D206802F023FBB36897
:101D800031680322206802F00EFC2068816921F08E
:101D90000C0181612068816972681143816120684A
:101DA000416841F0800141602068816821F0700144
:101DB00081602068816841F040018160206881680D
:101DC00021F0070181602068816841F00401816091
:101DD0007020059504950695039502950090F0688E
:101DE00001906946206802F037FB2068416821F0C5
:101DF000700141602068416841F05001416001205C
:101E000084F83D0008B0002070BD704790F83C2079
:101E1000012A04BF0220704730B4012380F83C300F
:101E2000022280F83D2002685468D2F808C00D688C
:101E300024F0700449682C432CF0800C41EA0C011A
:101E400054600268916080F83D30002180F83C10B9
:101E500030BC08467047002804BF0120704710B509
:101E6000044690F83D0028B9002084F83C00204644
:101E700000F00CF8022084F83D00211D206802F0DB
:101E8000A1FA012084F83D00002010BD00B585B006
:101E90000021009101910291039101681648A1F17E
:101EA0008042B2F596321CD0B1F1804F1CBF05B014
:101EB00000BDC16941F00101C161C16901F00101C9
:101EC0000491816941F0040181618069694600F0F3
:101ED00004000490072000900848FFF777F905B048
:101EE00000BD816941F400618161806900F4006096
:101EF000049005B000BD0000001002400008014041
:101F000090F83C20012A0DBF0220012380F83C30CC
:101F1000704730B4022280F83D20D0F800C0DCF8D1
:101F2000082022F0770222F47F42CCF808200A68C9
:101F3000502A3DD00CDC202A74D004DC002A18BFC3
:101F4000102A51D18CE0302A6CD0402A6CD091E01C
:101F5000602A4AD0702A06D0B2F5805F44D0B2F52C
:101F6000005F12D086E0D1E9014C0268C96895682B
:101F700044EA012125F47F4541EA0C01294391609F
:101F800001688A6842F0770210E00268D1F804C064
:101F90008C68C96895684CEA012125F47F45214386
:101FA0002943916001688A6842F480428A6061E056
:101FB0000268D1F804C0C968146A156A25F00105E1
:101FC0001562956924F00A0425F0F00545EA01112F
:101FD00044EA0C0C9161C2F820C001688A6822F0C2
:101FE000700242F057028A6044E00268D1F804C0EF
:101FF000C968146A24F0100414629569146A25F4FF
:10200000704545EA013124F0A00444EA0C1C9161BA
:10201000C2F820C001688A6822F0700242F06702AC
:102020008A6027E01CE0FFE70268D1F804C0CC68B2
:10203000116A156A25F001051562956921F00A01FA
:1020400025F0F00545EA041441EA0C01946111629F
:1020500001688A6822F0700242F047028A6009E053
:102060000168D1F808C02CF0700C4CEA020242F072
:1020700007028A6080F83D30002180F83C1030BCB7
:102080000846704730B585B000210091019102915A
:1020900003910068A0F18041B1F596311CBF05B0F5
:1020A00030BD1348816941F008018161816901F007
:1020B00008010491816941F0040181618069022471
:1020C00000F0040004904FF46040CDE900040325C3
:1020D000694603950748FFF779F84FF4E060CDE9CA
:1020E0000004694603950448FFF770F805B030BD59
:1020F00000100240000C01400008014090F83C3004
:10210000012B04BF022070472DE9F001012480F863
:102110003C40022380F83D308A4BDFF82CC242B1AC
:10212000042A49D0082A7DD00C2A00F0CE8000F085
:10213000FFB80268156A25F001051562156A566830
:102140009769D1F8008027F0730748EA0707D1F8AC
:10215000088025F0020548EA05059A4218BF624545
:1021600007D1D1F80C8025F0080548EA050525F0CF
:1021700004059A4218BF624509D1D1F814C026F46B
:1021800040734CEA0303D1F818C04CEA03065660CA
:1021900097614B68536315620268936943F00803C3
:1021A00093610268936923F0040393610268936961
:1021B000096943EA010143E00268156A25F0100548
:1021C0001562156A56689769D1F8008027F4E647CA
:1021D00047EA0827D1F8088025F0200545EA0815C8
:1021E0009A4218BF624507D1D1F80C8025F08005CE
:1021F00045EA081525F040059A4218BF624509D105
:10220000D1F814C026F4406343EA8C03D1F818C017
:1022100043EA8C06566097614B68936315620268C7
:10222000936900E00EE043F40063936102689369F0
:1022300023F48063936102689369096943EA012189
:10224000916175E00268156A25F480751562166A59
:102250005568D769D1F8008027F0730748EA070767
:10226000D1F8088026F4007646EA08269A4218BF7C
:10227000624507D1D1F80C8026F4006646EA0826AC
:1022800026F480669A4218BF624509D1D1F814C07D
:1022900025F4405343EA0C13D1F818C043EA0C1557
:1022A0005560D7614B68D36316620268D36943F007
:1022B0000803D3610268D36923F00403D361026881
:1022C000D369096943EA010131E00268156A25F41E
:1022D00080551562176A5568D669D1F8008026F4D2
:1022E000E64646EA0826D1F8088027F4005747EA70
:1022F00008379A4218BF624505D1D1F814C025F4B9
:10230000804343EA8C155560D6614B6813641762AD
:102310000268D36943F40063D3610268D36923F48C
:102320008063D3610268D369096943EA0121D161FD
:1023300080F83D404FF0000180F83C10BDE8F0010E
:1023400008467047002C014000340140002804BFBB
:102350000120704710B5044690F83D0028B90020D0
:1023600084F83C00204600F00CF8022084F83D0080
:10237000211D206802F026F8012084F83D0000208D
:1023800010BD704770B5044690F83C00012804BFAA
:10239000022070BD012584F83C50022084F83D00E5
:1023A000204602F091F801004FF0000005D084F8BB
:1023B0003D5084F83C00012070BD2168CA6822F0BD
:1023C0004002CA602168CA6822F48042CA6084F868
:1023D0003D5084F83C00002070BD002804BF01205F
:1023E000704770B5044690F83900002520B984F88C
:1023F0003850204600F022F8242084F83900206864
:10240000C16821F40051C160204602F0ABFA206897
:10241000016921F4904101612068416921F02A019C
:1024200041612068C16841F40051C160E56320202A
:1024300084F8390084F83A00002070BD30B585B0CA
:10244000002400940194029403940068A0F1804158
:10245000B1F590411CBF05B030BD1748C16941F4CA
:102460008021C161C16901F480210491816941F039
:10247000100181618069114D00F0100004904FF44B
:102480008060009002200190039069462846FEF784
:102490009DFEE814CDE90004694628460294FEF743
:1024A00095FE0748416821F0300141F0100141F0EC
:1024B000E061416005B030BD0010024000100140F5
:1024C0000000014082B002F0B5F8184CD4F82001A9
:1024D000006810F0080F0AD0144802F0E3FAD4F8AC
:1024E0002001016800914068009002F009FED4F8D4
:1024F0002001006810F0800F1CBF0C4802F07BFB2D
:10250000D4F82001016811F0200FDFD04068C1B27B
:10251000064802F0D1FA0088012804D0022808BF3A
:1025200002F0EEFDD2E702F0E5FDCFE73C0400202B
:1025300010B50446406801F0E8FDA168086110BDCF
:102540000068012101F049BE002808BF704710B59E
:102550000446007E012818BF10BD217B0020012900
:1025600004D0022910D003291ED026E0A16881F8EA
:1025700024000121606801F0F6FDE28AB4F90E1032
:10258000606801F071FD0CE0A16881F82400002171
:10259000606801F0E8FDE28AB4F91010606801F0AB
:1025A00063FD50B1022009E0A168012081F82400F8
:1025B000A068D4F812100161F4E70320207610BD62
:1025C00001230373C181C2820376437670470223DD
:1025D00003730182C2820121017600214176704796
:1025E000006801F0C8BD10B5406801F0A4FDBDE869
:1025F000104001F0C0BC407E7047806800687047A2
:102600008068406870478068C0687047806800696B
:102610007047027B0021012A08BFB0F90E1008465E
:102620007047406801F07BBD006801F0CFBD806855
:10263000B0F91E0070478068D0F81A0070478068B3
:10264000D0F8160070478360C0E9001200210173C2
:10265000C1810182C18201767047032202734182E7
:102660000914818201210176002141767047826838
:10267000518280688182704710B50446006803214A
:1026800001F0ABFD00281CBF0121217610BD0068C0
:10269000072101F0A2BD406801F069BD01B244F616
:1026A000E61361F30F0200145943584301440844F0
:1026B0004042C013B0F5004FA8BF47F6FF7104DADF
:1026C00010F5004FB4BF064901B2104661F31F4038
:1026D00011F5004F04BF48F2010161F31F4070473C
:1026E0000080FFFF70B50546084600F053F82AB297
:1026F00003B24FEA254C02FB03F105140CFB151045
:10270000C0131649B0F5004FA8BF47F6FF7004DAB2
:1027100010F5004FB4BF084600B260F30F04104E2E
:1027200010F5004F08BF66F30F0402FB05F00CFB29
:102730000300C013B0F5004FA8BF47F6FF7103DADE
:1027400010F5004FA8BF01B2204661F31F4011F5FC
:10275000004F08BF66F31F4070BD00000080FFFF00
:102760000180FFFF70B50546084600F013F82AB255
:1027700001B22B1402FB01FC051403FB05C0C013BE
:102780006A43594360F30F04891A2046C91361F361
:102790001F4070BD00F50041890911F4407C00F52F
:1027A0000041C1F387121749C2F1FF0319D0BCF5EC
:1027B000807F1FD0BCF5007F0AD0BCF5407F18BFDA
:1027C000704731F8133031F8121063F31F400FE0F7
:1027D00031F8122031F8131062F31F4061F30F003B
:1027E000704731F8122031F81310524262F31F4043
:1027F0004942F3E731F8133031F812105B4263F3CA
:102800001F40EBE712590008F8B50446DDE90670F1
:10281000A161C4F8A8008C4608481E4615460090E1
:10282000074B084A21466046FDF775FD6762C4E91B
:102830000756204600F044FBF8BD00004928000878
:1028400051280008B92E000810B500F039FB10BD62
:10285000F0B58BB0054600208DF804001F461446E5
:102860000E4648090DD0421E0021284602F05AFCAF
:10287000002806BF0B208DF8280006F01F0600F088
:102880000683132E80F00183DFE806F0A20A90A1F0
:10289000A0A09F9E9D9C9B9A9998A0A0A0A0A200FA
:1028A000217805208DF8280047296BD028DC0F29D6
:1028B00060D00BDC0F2974D2DFE801F0557373553B
:1028C000735C5C5C5C5C5C5C5C5C5C00172951D09C
:1028D00009DCA1F11000072863D2DFE800F05353B0
:1028E00062624B4B4B001D2942D004DC182941D0B9
:1028F0001C293DD055E041293CD0462942D050E02A
:10290000652937D01EDC572934D00EDC542931D04C
:1029100006DC482936D04F2918BF53292AD040E079
:10292000552918BF56293CD124E05B292AD004DC64
:10293000582918BF592934D11CE0612918BF6429CE
:102940002FD117E0A1F1740015282AD2DFE800F09A
:102950000B1A1A1A1A1A2929291A1A29292929296E
:102960002929121212006278284602F0DBFBE7E107
:102970000120E5E16078A27800EB0222284602F00F
:10298000D1FBDDE16078A278237900EB0222E078C8
:10299000000400EB03600244284602F0C3FBCFE1D1
:1029A000FFE702208DF8280000F071BA217803209B
:1029B0008DF82800892980F06A820AE0ADE144E2BE
:1029C0002DE21BE2F2E1BEE194E164E15DE257E158
:1029D0005DE28800784440688744000024020000DB
:1029E0006A02000024020000240200006A020000C3
:1029F00046020000460200004602000046020000B7
:102A000046020000460200004602000046020000A6
:102A10004602000046020000460200004602000096
:102A20004602000046020000460200004602000086
:102A30004602000046020000460200004602000076
:102A4000460200004602000046020000B2040000F8
:102A5000B20400006A0200004602000046020000C4
:102A60004602000024020000B2040000B20400008C
:102A7000B2040000B2040000B2040000B20400007E
:102A8000B2040000B2040000B2040000B20400006E
:102A9000B2040000B2040000B2040000B20400005E
:102AA000B2040000B2040000B2040000B20400004E
:102AB000B2040000B2040000B2040000B20400003E
:102AC000B2040000B2040000B2040000B20400002E
:102AD000B2040000B2040000B2040000B20400001E
:102AE00046020000B2040000B2040000B20400007C
:102AF000B20400006A0200006A0200006A020000DC
:102B000046020000460200004602000046020000A5
:102B1000240200006A020000460200004602000093
:102B20004602000046020000460200004602000085
:102B30004602000046020000460200004602000075
:102B400046020000240200006A020000B2040000F5
:102B50004602000046020000460200004602000055
:102B600046020000B2040000B20400004602000069
:102B70004602000024020000240200006A02000055
:102B80006A0200006A0200006A0200006A02000095
:102B90002402000046020000460200006A02000013
:102BA000B2040000460200004602000024020000B9
:102BB0006A0200006A0200006A0200006A02000065
:102BC0006A0200006A0200006A0200006A02000055
:102BD0006A0200006A0200006A020000240200008B
:102BE000B2040000240200008E0200008E020000E9
:102BF0008E0200004602000046020000460200006D
:102C000001AA284602F084F800909DF804000028EC
:102C100000F04681D5E9060C01236A46F02100F058
:102C200011B901AA284602F073F800909DF804003B
:102C3000002800F03581D5E9060C02236A46F02110
:102C4000E0470BB0F0BD01AA284602F061F8009001
:102C50009DF80400002800F02381D5E9060C042328
:102C60006A46F021E0470BB0F0BD01AA284602F009
:102C70004FF800909DF804000028EED100F010B944
:102C8000217807208DF82800284601F0E6FF8DF80E
:102C9000040000F0FCB8002002A902460A54401CBF
:102CA000C0B22028FAD3002005E00B18401CC0B2A7
:102CB000DA701D2804D2D5F8A820125C092AF4D1B4
:102CC000D5F8A810421D20238A5C8DF80820C21D6B
:102CD0000930895C8DF80910D5F8A81002AA085CA3
:102CE0008DF80A00D5E9060CF021E04701208DF8A7
:102CF0000400CFE020796179E37800EB012082B213
:102D00002078617800EB0120A178090401EB0361D0
:102D10000144284601F0D8FF12E020796179E37878
:102D200000EB012082B22078617800EB0120A178CD
:102D3000090401EB0361084401B2284601F0DCFFFD
:102D40008DF80400A3E005A80090217806AB04AA42
:102D5000284602F075F9BDF918005449C0EB00107F
:102D6000800081FB00108110A1EBE0708DF808005D
:102D7000010A8DF80910010C8DF80A10000E8DF86B
:102D80000B00BDF814008DF80C00000A8DF80D0042
:102D9000BDF810008DF80E00000A8DF80F00D5E97F
:102DA000060C082302AAF021E04770E0E079227ABD
:102DB000A37800EB022082B2607894F804C000EBA4
:102DC0000320E37821781B0403EB0C63184400EB29
:102DD0008000DFF8DCC040000023CCFB0030431152
:102DE000A3EBE07003B2607994F806C000EB0C200E
:102DF00000B20090284602F03BFAA1E72078617803
:102E0000E27800EB012001B2A07800EB022002B2D0
:102E1000284602F07BF901208DF804003AE00C20EE
:102E20008DF8280002948DF80C70224902A801F058
:102E30006CFF8DF8040050B31E48F021037902683E
:102E4000D5E9060CE0470BB0F0BD002002A904E074
:102E50000A54401CC0B220280DD2D5F8A820125C1C
:102E6000002AF5D1202838BF002204D20A54401C81
:102E7000C0B22028FAD3D5E9060C20230A46F02157
:102E8000E04701208DF8040004E001208AE59DF868
:102E9000040028B10023D5E9060C1A46F021D1E739
:102EA000D5E9060C01230AAAFF21CBE7676666660F
:102EB000898888880C00002010B500F001F810BD4A
:102EC00010B504468069616A8847802084F8AC00A8
:102ED000216AA069BDE81040084700000148006869
:102EE000FFF7A2BB0400002006480078002808BFB6
:102EF000704710B500F008F801F0C2FCBDE81040C2
:102F000002F0DAB87805002010B50E4C20780128C0
:102F100018BF10BD608800281CBF6088401E02D109
:102F200001F0FEFB03206080A08810B1A088401E45
:102F3000A080E088002808BF10BDE088401EE08027
:102F400010BD00007805002001480068FFF794BB21
:102F50000400002001480068FFF799BB040000202E
:102F60002DE9F35F524801F033F9524E002406F187
:102F70002C01347050480860A1F108084F48C8F887
:102F8000000000F095FC02F04FFC4D4800F05DF9A8
:102F900006F1100B4A48CBF8000006F10C05494831
:102FA00028604948FDF7C4FADBF80010464A286853
:102FB00001F0C9F8454800F048F9454800F045F9E6
:102FC00005F108094148C9F8000005F10C0A40481C
:102FD000CAF800003F48F06100F0C2FF05F11C0193
:102FE0003D480860F1693D4FC0E943713C4800F03D
:102FF00001F905F114003A49016005F1240139484D
:10300000086000F027FF0020FDF7A6F9012087F8EF
:103010002400286801F079F83861286801F075F813
:103020000014B88207F128002F1FA0F12803386090
:1030300005F128012A68FFF706FB286801F075F8FA
:103040003B68014600221846FFF7BAFA0098396833
:1030500001602548DBF800100160D9F800104160DC
:10306000DAF80010C0E90214D8F80010C0E904141E
:103070001549C0E9061404622968416205F1280176
:10308000816214390968C162F169C0E90C1405F163
:103090001C0184630968C0E90F1444648464C46437
:1030A0000465019908600120307002B0BDE8F09F0E
:1030B000AC0500207805002088030020E0010020F6
:1030C00028010020AC0100205802002054010020FB
:1030D0008001002048030020140000206407002025
:1030E0002003002070030020A8070020B0F8003162
:1030F000002220F81310B0F80031A0F802315B1C58
:103100009BB2A0F80031802B24BF0023A0F800312F
:103110005FF0000330F913C05B1C9BB26244802B4C
:10312000F8D3D31702EB5362D211A0F8042108465A
:10313000704700210A4620F81120491C89B28029D5
:10314000F9D3A0F80021A0F802217047B0F90401DA
:103150007047000008B5FEF76FFB4FF4FA61B0FB53
:10316000F1F0FEF7B1FD0749081FFFF7F9FE02F085
:10317000DBFA044B04481A1F00900121101F02F0D3
:1031800093F808BD08000020EE58000810B504466A
:103190000078002818BF002012D194F8260000F013
:1031A0006BFDA0F57F41FF3907D0218B238A4A1E92
:1031B00003FB0200B0FBF1F02082204600F02CF867
:1031C000E08280B210BD00210182704701780029A1
:1031D00018BF808A01D000B27047018A026A891A3A
:1031E000B0F91E20808C5143CA1701EB124100EB4D
:1031F0002140F0E710B50446007820B10020E082BD
:10320000608A208210BD201D00F096FD84F8260003
:103210002046FFF7D8FF10BD018A428B914284BF40
:1032200008207047828B8A428CBF0020C08A70477A
:10323000B0F922007047B0F906007047408B704724
:10324000B0F904007047008B704701888180418885
:10325000C180018C4184002181608162704781605E
:10326000704741847047C18070478180704700007B
:1032700070B4B0F90420002402FB01F6B0F9062076
:10328000B0F914C0B0F91630002A04BF00218160E3
:1032900014D085684A43A91805D5002DC4BF002A5B
:1032A0006FF0004103E0002DBCBF002A0F49C26847
:1032B0008A42A5BF0269914282608160827F8168F3
:1032C000057F41FA02F246FA05F52A446245C4BF79
:1032D000ACEB0204624603DC9342C4BF9C1A1A465C
:1032E0002144816070BC10B2704700000100008072
:1032F00070B5D0F80C110446C868D1F8161002B2A7
:103300000BB25A430014091400FB0121C81701EB4A
:1033100010400514D4F8100102F036F8D4F8081162
:1033200048434FF4167190FBF1F0684300EB400006
:103330000749400081FB00108110A1EBE071C81724
:1033400001EB104001142046BDE87040FFF7CEBEEF
:1033500067666666C169084770B50446002511B105
:10336000012908D017E000F007F9B4F85200A4F8DA
:10337000440080B90BE0B4F84400002808BF0125E0
:1033800009D0401E0004000CA4F8440003D12169B8
:10339000204688470125284670BD4268104730B452
:1033A000038E0AB253430A14B0F850104A43520035
:1033B000524202EB030CA2EB03030CEBDC7C03EBAD
:1033C000D3735FEA6C0C4FEA63034FEA910153D564
:1033D000002B18DA042280F83A20ACEB0302D41751
:1033E00002EB943201EBA241DA1703EBD23201EB8C
:1033F00062434FEAEC720CEBD232A1EB624CA0F8C4
:103400003CC0C1876CE0002A1BDC4FF0030C80F845
:103410003AC0A2EB030C4FEAEC740CEB943C01EBCA
:10342000AC414FEAE37C03EBDC334FEAE27C01EB97
:10343000634302EBDC32A3EB624CA0F83CC0C387D1
:1034400017E0022380F83A30ACEB0203DC1703EB01
:10345000943301EBA3414FEAEC730CEBD333A1EBB4
:10346000634CD31702EBD3320CEB62438387A0F893
:103470003EC0A0F8401052E0002B17DB012280F87C
:103480003A20ACEB0302D41702EB943201EBA241D9
:10349000DA1703EBD23201EB62434FEAEC720CEB2A
:1034A000D2328387A1EB624CC18736E0002A1ADC56
:1034B000052380F83A30ACEB0203DC1703EB9433BE
:1034C00001EBA3414FEAEC730CEBD333A1EB634C5C
:1034D000D31702EBD33281870CEB6243A0F83EC0D6
:1034E000A0F840301BE04FF0000C80F83AC0A2EB8F
:1034F000030C4FEAEC740CEB943C01EBAC414FEA4B
:10350000E37C03EBDC3301EB63434FEAE27C02EB49
:10351000DC328187A3EB624CC387A0F840C089B23C
:103520009AB2418682861FFA8CF3C386B0F84EC0E9
:10353000BCF1010F02D0816930BC0847B0F948C026
:10354000BCF1000FB0F854C0CCBF6144A1EB0C013A
:103550004186B0F94A1000291FFA8CF1CCBF114402
:10356000511A8186B0F94C1000291FFA8CF1CCBF9A
:103570001944591AC186DEE781680847416F91F8FE
:103580008820022A11D1CA68896FC1F30F215161C5
:10359000426F1169D26FC2F30F224A61416F4A69CB
:1035A000D1F88010C1F30F215161012180F8721010
:1035B000463070472DE9F0470446406F0027856884
:1035C000E7652766676684F87070286A20F0550002
:1035D00020F4A06028624049616040490326A1614F
:1035E00084F87160204684F83A6000F04EFA606F0B
:1035F00004F1700304F1380190F88920284602F0A4
:1036000043F9204600F014FA84F870703449616080
:1036100084F87170204684F83A7000F036FA606FD2
:1036200004F1700304F1380190F88920284602F073
:103630002BF9204600F0FCF9E06D2C4BC108E16548
:10364000206E05F11809C1082166606EC108616627
:10365000244961602449A161187800EB09021168CE
:10366000D81D4FF0080890F800C008FA0CFC21EAB9
:103670000C01116099784944D1F800A0877808FAC4
:1036800007F72AEA070AC1F800A01B794B44D3F8D0
:103690000090007908FA00F829EA08001860B4F8E8
:1036A0006C006863B4F86C00A863B4F86C00E8635D
:1036B000106840EA0C001060086838430860186819
:1036C00040EA0800186084F83A60296A40F25550D0
:1036D00008432862BDE8F0871D3800086B390008F0
:1036E00073380008F1360008A9390008CA5B0008E1
:1036F00070B4426F9268136A23F48053136290F897
:103700003AC01822436F02EB8C029A5814684FF6A5
:10371000FF7202EA4405302404EB8C041B591B6839
:1037200002EA43043C4A530CBCF1060F66D2DFE8C0
:103730000CF01D414103031DD0F85CC0ACEB050C3F
:103740001CF5004FD8BF0A8005DDBCF5004FACBFAB
:103750000B80A1F800C0D0F860C0ACEB040C1CF5E5
:10376000004F47DDBCF5004F3FDA45E0D0F860C0C0
:10377000ACEB050C1CF5004FD8BF4A8005DDBCF54D
:10378000004FACBF4B80A1F802C0D0F864C0ACEBD6
:10379000040CB1F90240A444CCF1000CBCF5004F7C
:1037A000A8BF0B802ADA1CF5004FD4BF0A80A1F80D
:1037B00000C023E0D0F85CC0ACEB050C1CF5004F5A
:1037C000D8BF0A8005DDBCF5004FACBF0B80A1F867
:1037D00000C0D0F864C0ACEB040CB1F90040A444C4
:1037E000CCF1000CBCF5004F01DB4B8006E01CF572
:1037F000004F01DC4A8001E0A1F802C00A88A0F86D
:1038000048204A88A0F84A200A8849881144494239
:10381000A0F84C1070BC70470180FFFF426F9268A7
:10382000136A23F48053136290F87020102A1CD27C
:1038300090F871304FF0180C426F0CEB8303D258A4
:103840001268C36D4FF0300C1A44C26590F87130A5
:10385000426F0CEB8303D2581268036E1A4402665F
:1038600090F87020521C80F870200020088048805A
:103870007047426F9268136A23F48053136290F882
:103880007020102A10D290F871304FF0300C426F37
:103890000CEB8303D2581268436E1A44426690F8C8
:1038A0007020521C80F870200020088048807047EB
:1038B00010B4436F9968D3E90023D1F800C02CF00D
:1038C000010CC1F800C0D0F874C09CF88AC0BCF1EB
:1038D000000F09D06FF0800CC1F810C0D1F80CC0F7
:1038E0004CF0800CC1F80CC0D1F814C04CF0010CA5
:1038F000C1F814C0DFF858C0A1F18044B4F5963483
:10390000DCF804100CBF41F4806141F40031CCF8C4
:1039100004100CBF4FF480514FF4C041A0F86E105A
:10392000916841F001019160996841F0010199604D
:103930006FF004011160516841F080015160702105
:103940008166002180F87210A0F84E1010BC7047FC
:10395000002004E090F872200021012A03D14021C8
:10396000002280F872200846704790F8711080F8A5
:103970003A10B0F86C10491E8AB20146406F4B8E67
:10398000806843638B8E8363CB8EC3630264006A5B
:1039900010F4805018BF01200A8F012A18BF704709
:1039A000012000220A87704730B470218166456F7C
:1039B000818FB0F86C20B5F88440A2EB010CC38F66
:1039C0001FFA8CFCA44506D9032180F83A1091B265
:1039D000491E89B214E0CB1A9BB2B3EB4C0F84BFE3
:1039E000B5F88620891A0AD8214489B2914207D3B2
:1039F00060228266B0F86C20C1EB4201491E89B298
:103A0000AB680246408E5863908E9863D08ED86320
:103A10001964186A10F4805018BF0120118F012911
:103A20001CBF30BC704701200021118730BC70479B
:103A3000416F8968CA6822F00102CA60002280F8DA
:103A400042204A6C22F400424A64426F92F8883065
:103A5000022B11D1D368926FC2F30F225A61436FC8
:103A60001A69DB6FC3F30F235361426F5069D2F8B9
:103A70008020C2F30F2242616FF001020A610869DF
:103A800010F0010FFBD00A61704710B4416F0022A3
:103A9000896880F84220B0F86C2052084A63B0F878
:103AA0006C2052088A63B0F86C205208CA63B0F8E0
:103AB0006C20521F0A646FF001030B610A6912F057
:103AC000010FFBD00B614A6C42F480624A644A6C7D
:103AD00042F400424A64426F92F888C0BCF1020F7F
:103AE0001CD1D1F820C040F2555434EA0C0CD2F865
:103AF0000CC0926FC2F30F2217D0CCF81420426F83
:103B0000D2F810C0D26FC2F30F22CCF81420426F4B
:103B10005069D2F88020C2F30F2242610B61C8685D
:103B200040F00100C86010BC7047CCF81020426F14
:103B3000D2F810C0D26FC2F30F22CCF81020426F1F
:103B40005069D2F88020C2F30F220261E6E700003C
:103B500030B450F8742F116893685268D1F808C0D7
:103B60002CF4004CC1F808C0D2F808C02CF4004C6A
:103B7000C2F808C050F83AC94825047805EB840417
:103B80005CF804C0C1F838C0D0F83AC010F8344B23
:103B9000602505EB84045CF804C0C2F838C053F813
:103BA00020CF4CF4805C43F808C9B0F800C08C68A2
:103BB0000CF4E04C24F4E04444EA0C0CC1F808C0D6
:103BC00030F806C994680CF4E04C24F4E04444EA6C
:103BD0000C0CC2F808C0D1F808C04CF4004CC1F875
:103BE00008C0916841F4004191600A4950F82229C7
:103BF00089791944D1F800C0074B73259C799B79CA
:103C000005FA04F42CEA040C9A404CEA02020A6019
:103C100030BC7047CA5B0008D15B0008416F0122CD
:103C2000D31E896880F842200B6100224A638A63B0
:103C3000CA630A6912F0010FFBD00B614A6C42F4AF
:103C400000424A64416F91F88820022A18BF7047E9
:103C5000CA68896FC1F30F211161426F1169D26F78
:103C6000C2F30F220A61416F4869D1F88010C1F395
:103C70000F210161704700001C4910B451F8202049
:103C8000D2F800C0127902EB4203092A99BF4FF023
:103C9000007444EA0353164C04EB03531A434FF4E5
:103CA000407494FAA4F44FF40073B4FA84F4E3403B
:103CB0000CEB8303D3F82CC002F01F022CF01F0C76
:103CC0004CEA0202DA6251F820201268D36C936841
:103CD00043F4A003936051F820000068016811F0DC
:103CE000020FFBD0C06C10BC80B27047FC070020F4
:103CF000000020FE10B50E4C6078012818BF10BDE2
:103D00002078FFF7B9FF6080014602206070094A01
:103D1000207852F83030002B08BF10BD4FF0000C57
:103D200002EBC00284F801C05268BDE81040184799
:103D3000B20500200C08002070B4FF21424B002285
:103D400053F822C0BCF1000F1DD09CF80440057947
:103D5000AC4206D1DCF800C00468A44504BF11469B
:103D60000422521CD2B2042AEAD3042968D243F8AE
:103D70002100364B002243F831200268936813F08B
:103D8000010F04D023E0042988BF1146E9E75368F6
:103D900023F02003536002686FF00203136002688F
:103DA000536823F08003536002686FF004031360CC
:103DB0000268936843F0010393600268936843F0DC
:103DC000040393600268936813F0040FFBD1D36A75
:103DD00023F47003D3620279D0F800C04FF000736F
:103DE000092A02EB420492BF43EA0454184D05EB42
:103DF00004542243846893FAA3F302F00070B3FAE8
:103E000083F3D8400CEB8000D0F80CC002F0F873BC
:103E10004FF0F87292FAA2F5B5FA85F592FAA2F28D
:103E200023FA05F50726B2FA82F206FA05F523FA17
:103E300002F22CEA050C04FA02F24CEA0202C26019
:103E400070BC084670470000FC0700200C080020EA
:103E5000000020FE002181604160C16001610121FC
:103E60004161704790F84800704701EB410100EB59
:103E700081008089704701EB410100EB8100B0F9BE
:103E80000E00704701EB410100EB8100B0F910001A
:103E9000704701EB410100EB81008281704701EB2B
:103EA000410100EB8100C281704701EB410100EB51
:103EB000810002827047000070B5044690F8260029
:103EC000FFF7DAFEA0F57F418446FF3921D094F850
:103ED0002510206A20F811C00021228B0846002AF4
:103EE00088BF236A07D900BF33F81050401CC0B206
:103EF00029448242F8D8B1FBF2F0E080A4F804C073
:103F000094F82500511E8842B4BF401C002084F85C
:103F10002500204600F002F8208170BDC188428B48
:103F2000914284BF02207047808B88428CBF04205E
:103F300000207047418B828B038B11444A0800217B
:103F4000002B07D9036A23F81120491C038B89B27F
:103F50008B42F7D88280C280002180F825107047FC
:103F600010B504460C30FFF7E7FE84F82600204623
:103F7000FFF7E0FF10BDB0F90C007047B0F9040086
:103F80007047B0F910007047B0F90C10B0F9140088
:103F9000C1EBC13191FBF0F000B2704730B4B1F920
:103FA0000050012490F803C000230278002DBABF0E
:103FB000694289B20988858A8D4238BF0123C58A42
:103FC0008D4288BF0123B0F912100029BABF4942BF
:103FD00089B2418A058B8D4228BF002B04D06245EF
:103FE0003CBF511CCAB202E0624538BF00226245A4
:103FF00008BF00240270204630BC704770B50546EB
:10400000007800280CBFAC686C68E968012904D905
:10401000AA69A1F10101144405E005D169884FEABC
:1040200001444FF00001E960012805D0E01704EBDE
:1040300010400014AC6070BDE01704EB1040061493
:104040006869FFF798FF301A01B22869FFF710F985
:104050000104C5E9014170BD0178012918BF70470D
:1040600000690021FFF7FBB82DE9F0410446007814
:1040700017460D46012660B16068C11700EB11407C
:10408000E18B0014A942A4BFB4F924108D4212DAC6
:104090000FE0204600F051F8E18CA94205DAB4F9AE
:1040A000281000268D421CDA03E0B4F928108D4256
:1040B00008DA002615E0218C8D42BCBFB4F922102D
:1040C000A942F6DB87B16580A18B4FF47A72794300
:1040D000B1FBF2F1491C281A000490FBF1F0E160F9
:1040E000A0613046BDE8F08121782804012914BF81
:1040F000A06060600020E060F2E710B5044640690F
:10410000FFF739FF0004606010BD0146C28D098EC3
:1041100062F30F0061F31F407047C08B7047406827
:10412000C11700EB114000147047B0F92C00704724
:10413000B0F924007047406970478068C11700EBF0
:10414000114000147047C0E9041290F82A10017061
:10415000818D09044160C18D090481600021418085
:10416000C1608161704701700021C160704700210A
:10417000C16081617047027800210B2A04D10921B6
:10418000017000218180012108467047B0F802C00B
:1041900003784CEA010C2CEA02024280B0F804C019
:1041A0000A2B4CEA0101818005D012B10A2101706D
:1041B0000B4618467047002AFBD10B2101700B46B5
:1041C000F7E78188408841EA0040704700787047EF
:1041D0000021017041808180704710B50278002471
:1041E000152A6CD2DFE802F00E1B3033525E636694
:1041F00069706B6B0B21262B3D424D5848000029FE
:1042000066D05CE003291CBF01290C2960D0072976
:1042100003D000228021FFF7B9FF204610BD0729F7
:104220001CBF0D290E2953D049E00E2918BF0729BC
:104230004ED044E00F2918BF072949D03FE002299A
:1042400018BF072944D03AE0072941D037E00729B1
:1042500018BF10293CD004291CBF1129012937D0CF
:104260002DE0112918BF072932D028E012291CBFE0
:10427000072914292CD022E0122918BF072927D09A
:104280001DE0042918BF072922D018E013291CBFFC
:10429000072905291CD012E004291CBF072905297C
:1042A00016D00CE0062918BF072911D007E007290E
:1042B0000ED004E008290BD001E0092908D0032919
:1042C00018BF0129A9D0A2E7002918BF0C29F6D1EF
:1042D0004FF001040170A0E710B5084C20780228C7
:1042E00005D1FDF77BF8FDF705FD00202070C0B279
:1042F000401C2070BDE81040FEF7F6BDB60500205A
:104300000E48016841F00101016041680C4A11400A
:104310004160016821F4102121F080710160016881
:1043200021F480210160416821F4FE0141604FF4D5
:104330001F0181600349C0030860704700100240FC
:104340000000FFF808ED00E0084810B5406F8068F5
:10435000016911F0800F05D06FF080010161034801
:10436000FFF70CF9BDE81040FEF7CEBDE0010020DC
:1043700003496FF0010008600248FFF7E9BB000045
:10438000102C0140E001002010B50D4CE06A0169DD
:1043900011F0010F05D06FF0010101612046FCF71B
:1043A00065FBE06A016911F0020F08BF10BD6FF0F4
:1043B00002010161BDE810400148FCF7D1B90000DD
:1043C00058020020F0B402681E4B1F4C1F4D204EB7
:1043D000DFF880C0984218BF604508D0B0F1804F28
:1043E00018BFA04203D0A84218BFB04204D14F6802
:1043F00022F0700247EA0202984218BF604508D0D6
:10440000B0F1804F18BFA04203D0A84218BFB042FD
:1044100004D1CC6822F4407244EA02024C6922F0D2
:10442000800242EA040202608A68C2620A6882620A
:10443000984212BF6045096901634FF00101416173
:10444000F0BC7047002C0140000400400008004010
:10445000000C00400034014070B4026A22F01002E7
:104460000262026A4368D0F818C00C682CF4E64C6B
:104470004CEA042C8C6822F0200242EA0412104C10
:10448000104DA04218BFA84206D1CE6822F080028B
:1044900042EA061222F04002A04218BFA84207D109
:1044A0004C6923F4406343EA84038C6943EA840340
:1044B0004360C0F818C049688163026270BC7047ED
:1044C000002C01400034014002689368D1F804C018
:1044D00023F070034CEA0303D1F800C023F0070374
:1044E0004CEA030393604A6812F00F0F59D112117E
:1044F000082A56D2DFE802F055555555122B4104D3
:104500000068D1E90232D1F810C0816843EA0C2377
:1045100021F47F411A431143816042E00A68052A71
:1045200004BF012070470268136AD2F820C02CF043
:10453000010CC2F820C00268D2F818C009692CF03A
:10454000F00C4CEA011191610068036229E00068F7
:104550000B698A68016AD0F820C02CF0010CC0F801
:1045600020C0D0F818C021F00A012CF0F00C4CEA61
:10457000031311438361016213E000688A680969CB
:10458000036A23F010030362D0F818C0036A2CF406
:10459000704C4CEA013123F0A00343EA021281611E
:1045A00002620020704730B4D0F820C02CF0010C1B
:1045B000C0F820C0D0F818C0046AA0F18045B5F555
:1045C00096351CBFA0F18045B5F59A3513D0B0F1F2
:1045D000804F1CBFA0F18045B5F580650BD0A0F1E0
:1045E0008045B5F500651EBFA0F18045B5F5406575
:1045F0004CF0010203D12CF0030C4CEA02024FF004
:10460000F00C22F0F0020CEA03131A4324F00A0320
:1046100001F00A0119438261016230BC7047000059
:10462000034900208988002908BF01207047000045
:1046300078050020054810B50068FFF7F9F9002259
:10464000BDE8104080210248FFF7A0BD9C05002076
:10465000AC0500202DE9F84F4FF0000A2C48FBF77D
:104660001AFF2C480068FFF766FD8346FFF786FCBB
:10467000DFF8A49007466946D9F80000FEF78DFEE2
:104680000098FEF70BF880463946FEF72BF8234CCE
:10469000064631B2B4F91000411AA9F110000068C1
:1046A000FEF7E6FD60F30F05B4F91200A0EB26411A
:1046B000A9F10C000068FEF7DBFD294660F31F41FD
:1046C00009F108000068FBF7C1FD05465846FFF7F1
:1046D00058FC39462846FEF745F883465946D9F82E
:1046E0000000FEF75CFEC4F816500099E660C4E9CD
:1046F0000018C4F81AB02784012805D1002201212E
:1047000009F11000FFF742FD5046BDE8F88F0000A8
:1047100058020020840500209C050020640700202A
:1047200038B50020ADF8000069464F48FBF74BFE56
:1047300004464E480068FEF7DBFD4D48FFF746FD96
:10474000C01E102828BF38BDDFE800F00842475AD5
:104750006A7E88131313131313142330454800681B
:10476000FFF75CFA142000F0E7F810214048FFF74B
:1047700034FD38BDFFF754FF002808BF38BD3D4861
:1047800000210068FEF7E8FD11213948FFF725FDFB
:1047900038BD384801210068FEF7DEFD002808BF5B
:1047A00038BD12213248FFF718FD38BD2E48FBF7FF
:1047B00093FE04212E48FFF710FD002808BF38BDE6
:1047C0000020FBF7C9FD2B480068FFF75EF938BDF4
:1047D00005212748FFF701FD38BD0020FBF7F2FD5A
:1047E0000020FBF79FFD06212148FFF7F6FC224839
:1047F0000068FFF782FC21480068FDF7A5FE38BD80
:104800001E480068FDF7A0FE0020FBF78BFD002C82
:1048100018BF38BD002220211548FFF7B7FC38BD6E
:1048200014480068FFF704F90020FBF795FD0F48D6
:104830000068FEF77EFC4FF4487000F083F8082112
:104840000B48FFF7CAFC38BD00F082F8002808BF0B
:1048500038BD09210648FFF7C0FC38BD00210448D7
:10486000FFF7BBFC38BD000058020020A005002067
:10487000AC0500209C050020840500208005002058
:1048800006480078012818BF704710B5002000F0D6
:1048900007F8BDE81040FFF72DBA000078050020AA
:1048A000F8B504461F48006800901F4850F82400DF
:1048B000FEF76CFC3DF814101C4F00EA010557F898
:1048C0002400FEF747FD054344B9A7F12400C06961
:1048D000FFF7F2FABDF8001008400543E84382B242
:1048E000134804EB440100EB410629463046FFF72C
:1048F0004DFC3046FFF76AFC0A2806D00B2804BF9F
:1049000057F82400FEF738FEF8BD57F82400FEF7EC
:1049100033FE2046FBF720FD064850F82400FEF742
:1049200008FCF8BD10590008980500209C050020DF
:10493000AC050020A00500200149888070470000D8
:10494000780500200149C8807047000078050020E4
:1049500003490020C988002908BF012070470000D2
:104960007805002070B5044600680169E26821F40A
:104970004051114301612169A06808436169014305
:104980002068C26822F4037222F4A0521143C1606D
:1049900020684169A26921F4407111434161206896
:1049A0003C4D3226A0F18041B1F59C3138D0FCF766
:1049B00049FF00EBC00101EB001160688000B1FB12
:1049C000F0F2A5FB02C2B1FBF0F352096FF0180C34
:1049D00002FB0CF203EB820206EB0212A5FB023291
:1049E000520902F0F003B1FBF0F2A5FB02C252093A
:1049F00003EB0212B1FBF0F3B1FBF0F0A5FB0010EA
:104A000040096FF01801484303EB800006EB0010EB
:104A1000A5FB00102168C0F343101044886070BDEE
:104A2000FCF720FF00EBC00101EB00116068800083
:104A3000B1FBF0F2A5FB02C2B1FBF0F352096FF03B
:104A4000180C02FB0CF203EB820206EB0212A5FB30
:104A50000232520902F0F003B1FBF0F2A5FB02C2F0
:104A6000520903EB0212B1FBF0F3B1FBF0F0A5FB2E
:104A7000001040096FF01801484303EB800006EB7B
:104A80000010A5FB00102168C0F34310104488609B
:104A900070BD00001F85EB51002180F81C1170478C
:104AA000FBF724BC08B508218DF8001001236A46E5
:104AB000FF2100F075F808BD38B590F81C212B4D8A
:104AC0000446002A4FD094F81D31C9B28BB10022A0
:104AD000012B15D094F89AC00CF1020C63451AD240
:104AE00004F19900195494F81D01401C84F81D012B
:104AF00039E084F89910208A60821D4D0120F5E785
:104B000084F89A10022084F81D01C8B2802828BFBA
:104B100084F81D2127E084F81B116282D4F820015B
:104B2000144DC16821F02001C16084F81C2104F1FA
:104B30009900FBF7C4FB94F81B1188420AD1D4F802
:104B400008C094F89A3094F8991004F19B022068F8
:104B5000E04708E00A208DF8000001236A46FF21A3
:104B6000204600F01DF8284638BD0000D85B00083C
:104B7000DA5B0008DC5B000890F81C1100291CBF00
:104B800001207047002180F81D11012180F81C11BF
:104B9000D0F82001C16841F02001C16002207047B7
:104BA00010B5044690F8970000281CBF012010BDE6
:104BB00004F1160C2175581E6375C0B207D300BFEF
:104BC00012F8011B401E0CF8011BC0B2F8D204F110
:104BD0001400FBF774FB84F89600002184F8981009
:104BE000012184F89710D4F82001C16841F08001B8
:104BF000C160022010BD90F897200146002A08BF2E
:104C0000704791F89820002A08BF0A7D0CD0012A2D
:104C100008BF4A7D08D04B7D9B1C9A423ABF01F1E8
:104C20001403D25C91F89620D0F820315A604B7D65
:104C300091F898209B1C9A423EBF501C81F8980026
:104C40007047D1F82001C26822F08002C2600020C3
:104C500081F89700D1E90001084770B58268007DAE
:104C600001240F2952F820502AD2DFE801F0291937
:104C700015082A2A111D2125292929291500284628
:104C8000FDF7D2FC062804BF2846FDF704FD18E016
:104C90002846FDF7C9FC18B12846FDF7F8FC10E0DE
:104CA0002846FDF7E9FC0CE02846FDF799FC08E0F2
:104CB0002846FDF745FC04E02846FDF739FC00E0F6
:104CC0000024204670BD000010B58368007D01EB14
:104CD0008101DFF820C053F820004B000021CCFBFD
:104CE00003135911A1EBE37109B2FDF769FC01202F
:104CF00010BD00008988888810B58368007D53F84E
:104D00002000FDF764FC012010BD0020704700006A
:104D10002DE9F0418446C368007DDCF80840012598
:104D200053F8203054F820600020002A18BF157076
:104D3000C04C232900F0538115DC232940D2DFE841
:104D400001F04B5055955A676C718FBBC0C5CAD0E6
:104D5000D5DA3F3F3F3F3F3F3F3F3F767BDF3F3F1F
:104D600080FBFA3FF90002272F2977D00BDCA1F155
:104D700024010B2924D2DFE801F0E8E7E6DFDEE5D5
:104D8000E4E3E2E1E0006E2969D00DDC402900F0A7
:104D90000A8104DC30297DD03F297CD010E04129F4
:104DA0007AD05B2967D00BE0722908BFBDE8F0819B
:104DB0000CDC6F297BD0702904BF9F48BDE8F081CF
:104DC000002A1CBF00211170BDE8F081732918BFB3
:104DD0008129F5D1BDE8F081604600F055F9BDE8C4
:104DE000F081986ABDE8F041FFF7EBB9986ABDE839
:104DF000F041FFF7EBB93046FDF713FCC0EB0010B4
:104E0000800084FB00108110A1EBE070BDE8F08110
:104E10001868BDE8F041FEF713BA1868BDE8F04124
:104E2000FEF709BA1868BDE8F041FEF701BA186B41
:104E3000BDE8F04100F0A8BAD86ABDE8F041FEF73D
:104E4000C5B93046FDF7CFFBC0EB0010800084FBF6
:104E500000108110A1EBE070BDE8F08155E021E089
:104E60003046FDF7D3FB00B2BDE8F0813046BDE827
:104E7000F041FDF7C0BB3046FDF7BDFB0128BAD1BC
:104E80003046FDF7C6FBC0EB0010800084FB00102D
:104E9000811003E062E07BE01DE008E0A1EBE07040
:104EA000BDE8F0811868BDE8F041FEF7CCB918689C
:104EB000BDE8F041FEF7C2B95868BDE8F041FEF721
:104EC000BFB95868BDE8F041FEF7B5B95868BDE80C
:104ED000F041FEF7ADB93046FDF798FB0014BDE890
:104EE000F0819868BDE8F041FEF7AAB99868BDE87E
:104EF000F041FEF7A0B99868BDE8F041FEF798B917
:104F0000D86BBDE8F041FEF721B99CF81420DCF81D
:104F1000101051F822200021B7EB127F14BFB5EB1F
:104F2000127F9969C2F30362022A14BF012AD96968
:104F300000290BE04BE046E041E076E071E06CE0F8
:104F400067E062E05DE058E053E04DE008BFBDE897
:104F5000F0810846BDE8F041FFF710B89CF8142036
:104F6000DCF8101051F822200021B7EB127F14BF9B
:104F7000B5EB127F9969C2F30362022A14BF012ABA
:104F8000D9690029ABD0BDE8F0410846FEF7FCBF67
:104F9000586AFFF7C2F8C0EB001028498000A1FB57
:104FA0000010C0089BE7586AFFF7C2F8C0EB00107A
:104FB000800084FB00108110A1EBE0708FE7304689
:104FC000FDF721FB0EE03046FDF71DFB0FE05969B0
:104FD000002984D0BDE8F0410846FEF743BF3046C3
:104FE000FDF70BFB00B27AE73046FDF706FB001435
:104FF00075E73046FDF704FBF4E73046FDF700FBAC
:10500000F5E73046FDF702FBECE73046FDF7FEFA28
:10501000EDE73046FDF713FBE4E73046FDF70FFB05
:10502000E5E73046FDF707FBDCE73046FDF703FB1D
:10503000DDE70000676666667A84A634CDCCCCCC0A
:105040002DE9F0478946C168007D0124DDF8208004
:1050500051F820001E4617464569002D08BF002460
:105060000FD049462846FEF700FF388049462846BB
:10507000FEF701FF308049462846FEF703FFA8F8F7
:1050800000002046BDE8F087007D704710B5FDF7B1
:1050900025FF18B1BDE81040FDF75CBFBDE810402A
:1050A000FDF752BFDDF800C001710021C0E9022305
:1050B0000175C0F810C070470948418811B1418896
:1050C000491E41808188012902D98188491E818039
:1050D0000188012998BF70470188491E01807047E7
:1050E000B8050020037901228B4294BF002201758C
:1050F0001046704701494F2088807047B80500204E
:105100000149002088807047B8050020D0F808C009
:10511000007D61F30F0319465CF8200062F31F4124
:10512000FDF79BBA2DE9F041154602468368007DE4
:1051300001262CB253F82070D3680A2953F82000B6
:1051400068D008DC0A2916D2DFE801F01915153EEF
:10515000152F3439555F0E2979D006DC0B295ED026
:105160000C2961D00D296DD005E00F2974D041299B
:1051700077D05B2909D000263046BDE8F081E9B23E
:105180001046FFF7AFFF0646F6E705EB8500374A06
:1051900040000021C2FB00104111A1EBE07001B200
:1051A00000223846FDF70CFAE6E700682146FEF7D4
:1051B0005CF8E1E700682146FEF755F8DCE7006897
:1051C0002146FEF74EF8D7E715F0FF0F07D1384616
:1051D000FDF72DFA014600223846FDF7F8F9E8B24E
:1051E0000128C9D13846FDF71CFA0146002238468D
:1051F000FDF7E6F9C0E73846FDF708FA64F30F005B
:1052000001463846FDF729FAB6E740682146FEF721
:105210002CF8B1E740682146FEF725F8ACE7406876
:105220002146FEF71EF8A7E73846FDF7EFF964F3CD
:105230001F4001463846FDF710FA9DE707E001E000
:105240000AE00EE080682146FEF70FF894E78068D8
:105250002146FEF708F88FE780682146FEF701F83F
:105260008AE721463846FDF702FA85E7898888886B
:105270002DE9F0410F46C168007D1D46069E51F89C
:105280002000394644692046FEF703FE2A46394687
:105290002046FEF704FE324639462046FEF705FE5C
:1052A0000120BDE8F08100002DE9F04782B00546FD
:1052B000144C1548DFF848C00A9E1F4690468946A0
:1052C000C4F808C090E80E048CE80E04D0E904107D
:1052D000CCE904100D48FFF7E3FB0D48CDE90006CB
:1052E0000C4B0D4A0949A068FDF78EFA00953B4624
:1052F00042464946A068FFF7D5FE02B0BDE8F087F8
:105300002C080020B8050020380700203C040020AD
:10531000994A0008794B0008A14B000838B5194C90
:10532000D4F82001006885B215F0080F0AD0204695
:10533000FFF7B8FBD4F820010168009140680090A5
:10534000FFF7DEFE15F0200F10D0D4F820014068E2
:10535000C1B20C48FFF7B0FB0088012804D0022836
:1053600008BFFFF7CDFE01E0FFF7C4FED4F820012F
:10537000006810F0800F08BF38BD0248BDE8384013
:10538000FFF739BC3C040020C18840884843000C2A
:10539000704702E008C8121F08C1002AFAD17047FE
:1053A0007047002001E001C1121F002AFBD17047A5
:1053B00098B0FCF71BF80024059406940A940B940B
:1053C0001494012010940090159400040E94019000
:1053D00002940394139401200C940D94049011945E
:1053E000129402250004CDE907504FF4E010099013
:1053F0006846FCF783FA0F20CDE90A056802CDE97B
:105400000C4002210AA80E94FCF72EF9A803129072
:10541000109510A8FCF792F8FCF708FAB8488069D4
:10542000B74940F020008861886900F020000090B2
:10543000886940F004008861886900F004000090E9
:10544000886940F008008861886900F008000090D1
:105450000846806940F010008861886900F01000FB
:105460000090486940F0010048614869A54900F092
:105470000100A548009401940294039404940594B7
:1054800006940794089409948F158760016004734B
:1054900004754FF40068C0F804804FF46021056182
:1054A000C161FBF729FD04200090012001908DF8D7
:1054B000154003264FF4805902908DF81400CDF862
:1054C00018900496694690480394FBF715FB4FF03B
:1054D000050BCDE900B569468B48FBF70DFB4FF096
:1054E000060ACDE900A669468748FBF705FB0820B8
:1054F000079001200890099007A98348FBF74EFC0C
:1055000009200996CDE9070507A97F48FBF746FC66
:105510007F480094019402940394049405940694A3
:105520007A4987600160047304754FF46021C0F804
:105530000480C16101210161FBF7DEFC04200090C1
:10554000012001908DF8154002908DF81400CDF8DF
:105550001890049669466E480394FBF7CDFACDE99E
:1055600000B569466A48FBF7C7FACDE900A6694667
:105570006748FBF7C1FA1294149410941194139491
:10558000179400941694019403940494059462482B
:1055900002940694089409940A940B940C940D9424
:1055A0000E945C490F94C0E90014202181604FF4EF
:1055B000FA61C0E903170121C0E90514FCF74BFCAF
:1055C0005548FCF7C3FE1020CDE910A010A95248A1
:1055D000FCF7D8FE169416A94F481794FCF716FC52
:1055E0006020CDE900040294039404940594002201
:1055F000694649480694FCF781FD042269464648FD
:10560000FCF77CFD082269464348FCF777FD7020D3
:10561000009040F2CF7001900C2269463E48FCF7A2
:105620006DFD6802CDF82080CDE909070E20CDE997
:105630000B040D9408A938480F94FCF75FFB36481B
:10564000FCF720FD354804940594069407940394D0
:10565000009401940294089469070994C0E9001425
:105660004FF6FF71C0E9024104618461FCF7F3FB6E
:1056700004A92A48CDF81090FCF742FC0B200094B6
:10568000CDE90140694625480394FCF760FB5020B2
:10569000CDE9080408A92148FCF7B8FB21482049B6
:1056A00001604FF4E131C0E901140C21C460C0E98C
:1056B00004418461C461FCF790FEFDF74BFD0022BC
:1056C00002211220FBF7F6FE1220FBF7E3FE002278
:1056D00011460B20FBF7EEFE0B20FBF7DBFE002252
:1056E00003211C20FBF7E6FE1C20FBF7D3FE012262
:1056F00003212720FBF7DEFE2720FBF7CBFEFEE78A
:105700000010024000240140D40500200028014080
:1057100004060020002C01403406002074060020FE
:1057200000480040B406002018B43A484FF48032D4
:10573000002382618361826181690091826183615A
:1057400082618169009182618361826181690091D6
:10575000511C4FF0010C8161C0F818C08161816952
:105760000091911C4FF0020C8161C0F818C081615A
:10577000816900912949DFF8A0C04024C1F818C010
:105780008C61C1F818C0D1F818C0CDF800C04FEA3C
:10579000A03C0424C0F818C08461C0F818C0D0F838
:1057A00018C0CDF800C0DFF878C08024C1F818C058
:1057B0008C61C1F818C0D1F818C0CDF800C0DFF86E
:1057C00064C02024C1F818C08C61C1F818C0D1F899
:1057D00018C0CDF800C0826183618261D0F818C022
:1057E000CDF800C0826183618261D0F818C0CDF825
:1057F00000C0826183618261806900908A618B61EF
:105800008A61886900908A618B618A6188690090E9
:1058100018BC70470008014040000100000C014026
:105820008000010020000100164981B0C86910F015
:10583000010F4FF0804013D04168426801F07001C1
:1058400022F0700242F020024260426942F00102FE
:105850004261426822F070021143416001B070471A
:10586000CA6942F00102CA61CA6902F001020092EB
:10587000426942F001024261C86920F00100C8613A
:1058800001B070470010024070B4D0F800C001268B
:105890000CF0700CBCF1600F07BF520102F1200543
:1058A000521C520818BF55016FF00204046193F8AE
:1058B00000C00022BCF1100F24BF70BC704700BFB5
:1058C000D0F810C01CF0020F0AD00461521C92B232
:1058D000954205D81878102838BF0E8070BC7047E4
:1058E00093F800C0BCF1100FEAD370BC704753545A
:1058F000204D432053444B095665722E352E342ECD
:105900003300000000000000000000000000000064
:105910000E000000C90092015B022403ED03B604EF
:105920007F0548061107D907A2086A09330AFB0A4E
:10593000C40B8C0C540D1C0EE30EAB0F72103A11FD
:105940000112C8128F1355141C15E215A8166E17F4
:105950003318F918BE19821A471B0B1CCF1C931D54
:10596000571E1A1FDD1F9F2061212322E522A62337
:1059700067242825E825A82667272628E528A329BF
:10598000612A1F2BDC2B992C552D112ECC2E872F05
:105990004130FB30B5316E322633DF3396344D352E
:1059A0000436BA366F372438D9388C39403AF23A4F
:1059B000A53B563C073DB83D683E173FC53F734089
:1059C0002141CE417A422543D0437A442445CD45F6
:1059D00075461C47C34769480F49B449584AFB4AB2
:1059E0009D4B3F4CE04C814D204EBF4E5D4FFB4FD9
:1059F00097503351CE51685202539B533254C9547D
:105A00006055F5558A561D57B0574258D3586459BA
:105A1000F359825A0F5B9C5B285CB35C3E5DC75DAB
:105A20004F5ED75E5D5FE35F6860EB606E61F06163
:105A30007162F1627063EE636C64E8646365DD65F6
:105A40005666CF664667BC673268A66819698B6977
:105A5000FD696D6ADC6A4A6BB76B236C8E6CF86CFF
:105A6000616DC96D306E966EFB6E5E6FC16F227098
:105A70008370E27040719D71F9715472AE72077358
:105A80005E73B5730A745F74B27404755575A57549
:105A9000F37541768D76D87622776B77B377FA7780
:105AA0003F788478C77809794A798979C879057AFD
:105AB000417A7C7AB67AEE7A267B5C7B917BC57BD9
:105AC000F87B297C597C887CB67CE37C0E7D397D13
:105AD000627D897DB07DD57DFA7D1D7E3E7E5F7EB7
